:020000040800F2
:10000000B80B002001010008D51400086510000895
:10001000D1140008A90B0008FD2100080000000011
:10002000000000000000000000000000411B00086C
:10003000450E0008000000005D150008D11D0008F5
:100040001B0100081B0100081B0100081B01000820
:100050001B0100081B0100081B0100081B01000810
:100060001B0100081B0100081B0100081B01000800
:100070001B0100081B0100081B0100081B010008F0
:100080001B0100081B0100081B0100081B010008E0
:100090001B0100081B0100081B0100081B010008D0
:1000A0001B0100081B0100081B0100081B010008C0
:1000B0001B0100081B0100081B0100081B010008B0
:1000C0001B0100081B0100081B0100081B010008A0
:1000D0001B010008711E0008A91F00081B01000871
:1000E0001B0100081B0100081B010008DFF80CD0F1
:1000F00000F04AFB0048004729450008B80B0020E3
:100100000648804706480047FEE7FEE7FEE7FEE7B1
:10011000FEE7FEE7FEE7FEE7FEE7FEE7111E00084A
:10012000ED00000840EA01039B0703D009E008C97D
:10013000121F08C0042AFAD203E011F8013B00F8AC
:10014000013B521EF9D27047F0B480EA0102D40F8D
:100150004200B2EB410F02D20246084611464A0065
:1001600042D0C30DDDB2C1F3C752AD1A202D35DA2E
:10017000C1F3160141F4000204B15242C5F1200658
:1001800002FA06F12A411044B3EBD05F23D0C4B188
:10019000012DA0EBC35009DCF0BC4FF0004202EA95
:1001A000C352DBB200F5000000F007B9400000F1D7
:1001B000807000EBC350A0F1807040EAD17049001C
:1001C00009E0490841EAC071A0EBC35000F5000006
:1001D000400800EBC350F0BC00F0E6B861420122D9
:1001E00002EB4101001BF6E7F0BC704781F00041D3
:1001F000AAE780F00040A7E780EA010210B502F00C
:100200000043400022D04A001FD0010E01EB1261D2
:10021000C0F35600C2F3560240F4000042F400025C
:10022000A0FB022000047F39140400D0401C50EAD7
:10023000124001D44000491EC2B20C0604EBD0109B
:10024000401C4008802A02D003E0002010BD20F0AE
:100250000100002900DA0020184310BD30B480EA04
:10026000010202F0004530F0004221F0004013D0BE
:1002700090B1C30DD40DC2F31601C0F31600E41AF9
:1002800041F4000140F400027D34914201D3641C2A
:1002900000E04900002C02DA30BC002070474FF427
:1002A00000000023914201D3891A034340084FEA1A
:1002B0004101F7D151B1914202D14FF0004105E027
:1002C00002D24FF0010101E06FF0010103EBC450D5
:1002D000284430BC00F068B8C10F80EAE0700844E0
:1002E000CA079623002100F068B896230022114621
:1002F00000F063B800F0004230F000400AD0C10DB9
:1003000001F56071C0F3160042EA0151C2084007CE
:100310001143704700200146704730B50B46014637
:1003200000202022012409E021FA02F59D4205D394
:1003300003FA02F5491B04FA02F52844151EA2F13E
:100340000102F1DC30BD2DE9F05F05460020924648
:100350009B4688460646814640241BE02846414687
:100360004746224600F031FA53465A46C01A914198
:1003700010D311461846224600F018FA2D1A67EBE2
:1003800001084F4622460120002100F00FFA17EB2A
:1003900000094E41201EA4F10104DFDC484631462D
:1003A0002A464346BDE8F09F0029A8BF7047401C7D
:1003B000490008BF20F00100704710B4B0FA80FC7B
:1003C00000FA0CF050EA010404BF10BC704749B1B8
:1003D000CCF1200421FA04F411FA0CF118BF012128
:1003E00021430843A3EB0C01CB1D4FEA00614FEA08
:1003F000102042BF002010BC704700EBC3501044D7
:100400000029A4BF10BC7047401C490008BF20F061
:10041000010010BC70472DE9FE4F804681EA0300C1
:10042000C00F0C46009021F0004123F00045B8EBCE
:100430000200A94105D24046214690461C460B4683
:10044000024623F00040104347D0270DC7F30A00AF
:10045000C3F30A510290401A019040286BDAC3F3AB
:10046000130040F4801B0098924620B10023D2EB89
:10047000030A63EB0B0B01985946C0F1400250464A
:1004800000F094F906460D4650465946019A00F090
:10049000ACF910EB08006141002487EA115284EAAC
:1004A000E7731A4340D0009A62B3019A012A4FEAD7
:1004B000075215DC001B61EB02014FF0004202EA1B
:1004C0000752CDE90042001C41F5801132462B460F
:1004D00000F0ACF903B0BDE8F08F40462146F9E7E3
:1004E000001B61EB0201001C41F5801300185B4109
:1004F0002018A2F5001747EB030140EAD570B619A2
:100500006D4111E06D084FEA360645EAC0754FEAC5
:100510000752001B61EB0201001C41F580114908E4
:100520004FEA30000019514132462B4603B0BDE876
:10053000F04F00F06CB90098012240000023D0EB8E
:10054000020263EBE073009821464FEAE074B8EBD7
:10055000000061EB0401E9E783F000435BE781F011
:10056000004158E72DE9FE4F81EA030404F00044FE
:1005700021F0004100944FF0000B23F0004350EABB
:1005800001045ED052EA03045BD0C3F30A54C1F302
:100590000A552C44A4F2F3340194A0FB0254C1F395
:1005A000130141F48011C3F3130343F4801301FBDF
:1005B000024400FB034E840A970A44EA815447EA46
:1005C0008357A4FB076802958D0A05FB07854FEA50
:1005D000932C04FB0C542705029D4FEA065847EA6A
:1005E0001637B5EB08056EEB070C870E920E47EA3F
:1005F000811742EA8312A7FB0201B6EB0B0164EB01
:1006000000042B0D43EA0C335E1844EB1C50DA4611
:100610005146E7FB0201C5F313044FEA0B3343EAEB
:1006200014534FEA0432019C43EA0603A4F10C047C
:100630000294009CCDE900B400F0F8F803B0BDE8E6
:10064000F08F00200146F9E72DE9F04D81EA03041F
:1006500004F0004B21F0004514464FF0000A23F04F
:10066000004150EA050220D054EA01021DD0C5F332
:100670000A570246C5F31303C1F31300C1F30A5628
:1006800040F4801543F48013A7EB0608101BD646F0
:1006900008F2FD3873EB050002D308F1010801E010
:1006A00092185B41B8F1000F03DA00200146BDE863
:1006B000F08D00204FF48011064684460EE0171B93
:1006C00073EB050705D3121B63EB050306434CEAE6
:1006D000010C49084FEA300092185B4150EA0107CB
:1006E000EDD152EA030012D082EA040083EA050148
:1006F000084305D0101BAB4106D20122002306E0BF
:1007000000224FF0004302E06FF0010253101AEB99
:1007100006004CEB085110EB0A0041EB0B01BDE861
:10072000F04D00F074B8C1F30A52C1F3130140F266
:10073000FF3341F480119A4202DA002001467047EB
:1007400040F233439A42A2F2334202DC524200F0BA
:100750003CB800F02BB8000030B5041E71F1000465
:1007600004DB4FF00044404264EB0101141E73F1BE
:10077000000405DB1C464FF00043524263EB0403C8
:10078000994208BF904230BD064C074D06E0E06834
:1007900040F0010394E8070098471034AC42F6D3C8
:1007A000FFF7A8FC0852000828520008202A04DBA2
:1007B000203A00FA02F1002070479140C2F1200374
:1007C00020FA03F3194390407047202A04DB203AB3
:1007D00021FA02F00021704721FA02F3D040C2F161
:1007E00020029140084319467047202A06DBCB17A8
:1007F000203A41FA02F043EAE07306E041FA02F3DC
:10080000D040C2F12002914008431946704710B50C
:10081000141E73F1000408DA401C41F10001921823
:100820005B411A4301D120F0010010BD2DE9F04DCC
:1008300092469B4611B1B1FA81F202E0B0FA80F221
:1008400020329046FFF7B2FF04460F4640EA0A0006
:1008500041EA0B0153465A46084313D0114653EA66
:10086000010019D0C8F140025046FFF7AEFF05461F
:100870000E46504659464246FFF798FF084305D0BA
:10088000012004E020463946BDE8F08D00200543F4
:1008900046EAE0762C4337430A986305E40AA0EB66
:1008A00008000022FD0A44EA47540A3002D500201D
:1008B0000146E9E7010510196941DDE9084500191C
:1008C0006941BDE8F04DA2E700B587B001214802BB
:1008D00000F062FE0121042000F05EFE4FF40040B3
:1008E00000F03EFE00208DF81B000120ADF818003E
:1008F00003208DF81A0006A9194800F0AAFA05236A
:1009000001220021174800F083F800200190049094
:100910004FF46020039000208DF809008DF8080046
:1009200001208DF8140001A90E4800F049F80121BA
:100930000C4800F019F80B4800F0C6F800BF094851
:1009400000F034F80128FAD0064800F0CDF800BFD6
:10095000044800F014F80128FAD007B000BD0000E8
:10096000000801400024014021B1826842F00102E8
:10097000826003E0826822F00102826070470146D3
:1009800000208A6802F004020AB1012000E0002081
:1009900070470146C86C80B2704702460020136859
:1009A0000B400BB1012000E0002070470146002001
:1009B0008A6802F008020AB1012000E000207047B6
:1009C00030B502460020002350680F4C20400D79BE
:1009D0000C6844EA05242043506090680B4C20408A
:1009E000D1E902542C434D7944EA450420439060F8
:1009F000D06A20F470000C7C641EE4B2234340EA09
:100A00000350D06230BD0000FFFEF0FFFDF7F1FFA4
:100A1000F0B504460D4600200021092D11DDE068E7
:100A2000A5F10A0606EB4607072606FA07F18843F2
:100A3000A5F10A0606EB460603FA06F10843E06054
:100A40000CE0206905EB4507072606FA07F1884305
:100A500005EB450603FA06F108432061072A0FDA81
:100A6000606B561E06EB86071F2606FA07F18843C1
:100A7000561E06EB860605FA06F10843606322E07F
:100A80000D2A0FDA206BD61F06EB86071F2606FA03
:100A900007F18843D61F06EB860605FA06F10843E0
:100AA000206310E0E06AA2F10D0606EB86071F2620
:100AB00006FA07F18843A2F10D0606EB860605FA51
:100AC00006F10843E062F0BD816841F008018160F1
:100AD000704721B1826842F4A002826003E082681C
:100AE00022F4A00282607047816841F004018160B5
:100AF0007047000070B5012420E0154951F824002A
:100B000001F07EFB022500BF00201249087003217E
:100B1000342001F0FBFB642002F076FF0D480078E2
:100B200040B10B4850F824100BA001F05BFF01F01E
:100B30008FF870BD6D1E002DE6D1641C0A2CDCDB25
:100B40000BA001F04FFF10A001F04CFF00BFF0E739
:100B5000904E0008390000202564206261756420F1
:100B600066696E642073656E736F720D0A0D0A00FC
:100B700063616E206E6F742066696E642073656EAB
:100B8000736F720D0A000000706C656173652063FD
:100B90006865636B20796F757220636F6E6E656335
:100BA00074696F6E0D0A000000BFFEE703468B42BA
:100BB00003DB934201DC012070470020FCE70000CA
:100BC00010B52F48007865281ED008DC422832D0A6
:100BD000552828D0612809D0622849D138E06828F2
:100BE00043D06D2809D0752842D114E001F0E4FD0E
:100BF00010B124A001F0F6FE3BE001F005FE10B1BB
:100C000026A001F0EFFE34E001F026FE10B123A093
:100C100001F0E8FE2DE0062001F06AFD10B125A0EC
:100C200001F0E0FE25E0002001F062FD10B121A0FE
:100C300001F0D8FE1DE0062001F08CFD18B123A0C4
:100C400001F0D0FE03E02649886901F0D9FA10E0EE
:100C5000022001F07FFD18B11CA001F0C3FE03E0EB
:100C60001F49886801F0CCFA03E000F0F1FF00E0D2
:100C700010BD00BFFF200249087000BFF8E7000068
:100C80003A0000200D0A5365742041636343616C90
:100C900069204572726F720D0A0000000D0A5365DB
:100CA00074204D616743616C69204572726F720DEB
:100CB0000A0000000D0A5365742042616E64776972
:100CC000647468204572726F720D0A000D0A5365D4
:100CD000742042617564204572726F720D0A0000C3
:100CE000904E000810B500222EE0362806D0392894
:100CF0000BD03C2810D03F281CD114E0144B1B789B
:100D000043F00103124C23701BE0114B1B7843F09E
:100D100002030F4C237014E00D4B1B7843F00803C3
:100D20000B4C23700DE00A4B1B7843F00403084C76
:100D3000237006E0064B1B7843F08003044C2370BD
:100D400000BF00BF401C521C8A42CED310BD000021
:100D5000390000202DE9F84F07460C4690464FF029
:100D60000009CA4600250026A346A01D00900425C0
:100D7000A7F1500010283AD2DFE800F01608190F4A
:100D80001E2326292C2F3239393939354FF03409B1
:100D900003254FF0400A01262BE04FF03D090325C3
:100DA0004FF02E0A012624E04FF0300921E04FF0E9
:100DB00037094FF003081CE04FF03A094FF00308E1
:100DC00017E04FF0410914E04FF0450911E04FF0F2
:100DD00049090EE04FF04D090BE04FF0510908E0D2
:100DE0004FF0550905E01448D0F8009001E0BDE847
:100DF000F88F00BFB8F1030F01D1032500265DB1C4
:100E00006A000E4901EB49005946FFF78BF9294664
:100E100048460B4A126890475EB17200074901EBE1
:100E20004A000099FFF77EF931465046044A12689D
:100E3000904700BFDBE7000060000020CC050020E9
:100E40004C000020704710B50446204602F0DCFD3F
:100E500010BD2DE9F04102460025002600200023A8
:100E60000024002791F803C00CF00F0591F803C08F
:100E70000CF0100CBCF1000F03D091F802C04CEA4A
:100E8000050591F800C0BCF1000F31D014680020B6
:100E90002BE04FF0010C0CFA00F3B1F800C00CEAA3
:100EA00003069E4220D183004FF00F0C0CFA03F78B
:100EB000BC4305FA03FC4CEA040491F803C0BCF1FE
:100EC000280F06D14FF0010C0CFA00FCC2F814C038
:100ED0000AE091F803C0BCF1480F05D14FF0010CB6
:100EE0000CFA00FCC2F810C0401C0828D1D31460D2
:100EF000B1F800C0BCF1FF0F34DD546800202EE0D3
:100F000000F1080C4FF0010808FA0CF3B1F800C02A
:100F10000CEA03069E4221D183004FF00F0C0CFA1D
:100F200003F7BC4305FA03FC4CEA040491F803C040
:100F3000BCF1280F05D100F1080C08FA0CF8C2F832
:100F4000148091F803C0BCF1480F07D100F1080CE0
:100F50004FF0010808FA0CF8C2F81080401C08286D
:100F6000CED35460BDE8F081F0B50A4600230024DA
:100F70000021002500F00046B6F1004F02D11D4EC1
:100F8000F16901E01B4E7168C0F3034583B200F4C0
:100F90004016B6F5401F08D121F07061154E7668F5
:100FA00026F07066134F7E6012E000F48016B6F5EE
:100FB000801F06D1032606FA05F4A14341F07061B3
:100FC00006E0460D360103FA06F6B14341F07061C2
:100FD00022B1460D360103FA06F6314300F0004611
:100FE000B6F1004F02D1034EF16101E0014E716094
:100FF000F0BD000000000140416170470161704791
:1010000010B501210648FFF764FD00BF0221044826
:10101000FFF7C3FC0028F9D00148FFF7BAFC10BD68
:101020000024014070B504462046FFF75EF90546EE
:101030000149FFF7E1F870BD6740533A70B50446C7
:1010400000212046FFF7D2F806460449FFF706F9CB
:1010500005460349FFF7D0F870BD00000000A0402E
:101060000000C84200BFFEE708B50121042000F0DF
:1010700093FA0121042000F08FFA0121042000F0EE
:101080008BFA0121042000F087FA0121084600F0C4
:1010900083FA01211548FFF767FF01211448FFF784
:1010A00063FF4FF40040ADF8000048208DF80300C6
:1010B00069461048FFF7CDFE4FF48040ADF80000C0
:1010C00069460C48FFF7C5FE4FF40050ADF800002C
:1010D00069460848FFF7BDFE4FF48050ADF80000A8
:1010E00069460448FFF7B5FE08BD00000002300065
:1010F000000430000008014010B50446012C01D165
:10110000244908702348007801282BD12248006820
:1011100058B12148001F006838B11F4808380068DE
:1011200018B11D480C380068E0B90A2002F06CFCC8
:101130000020184908701848006808B9012010BD3F
:101140001548001F006808B90220F8E7124808385F
:10115000006808B90320F2E70F480C380068B0B9FE
:101160000420ECE70C480068012810D10A48001F51
:10117000006801280BD1084808380068012806D10A
:1011800005480C380068012801D102490870002088
:10119000D5E70000380000203C01214210B50023B3
:1011A00018E000F0BFF8024602F01F02052A04D042
:1011B0000B2A04D00D2A06D103E0052405E00B20FC
:1011C00010BD0D20FCE7FF2400BF00BF052C00D19F
:1011D00002E05B1C402BE4D900BF00BF00F0A2F886
:1011E0000028FBD01046EBE700B5034640F6FF723F
:1011F00000E0521E00F096F8984201D0002AF8D183
:101200000AB9FF2000BD0020FCE7000070B50025F2
:1012100000F056FA044602480470204670BD0000F3
:10122000370000202DE9F04104460F461546002600
:101230004FF0FF084FF480511448FFF7DDFEFF2206
:101240003946112000F088F80020FFF7CDFF90B953
:10125000FE20FFF7C9FF70B900BF04E000F062F89C
:101260002070641C761CAE42F8D300F05BF800F0EE
:1012700059F84FF000084FF480510448FFF7BEFEC4
:10128000FF2000F017F94046BDE8F081000C014056
:101290002DE9F04704460D4616460027B946B846E4
:1012A0004FF0FF0A4FEA56294FF480511C48FFF7D0
:1012B000A3FE25E005EB0801FF22112000F04CF809
:1012C0000020FFF791FF10B1FF20BDE8F087FE205E
:1012D000FFF78AFF90B9002704E000F023F82070A0
:1012E000641C7F1CB7F5007FF7D308F5007800F089
:1012F00019F800F017F84FF0000A01E04FF0FF0A6C
:10130000B9F10000A9F10109D4D14FF4805104488A
:10131000FFF774FEFF2000F0CDF85046D5E700003F
:10132000000C014000BF0B48008800F002000028BC
:10133000F9D0FF200749091D088000BF0548008833
:1013400000F001000028F9D00248001D0088C0B25A
:1013500070470000083800403CB504460B4615466F
:10136000002244F040008DF80000180E8DF80100B6
:10137000180C8DF80200180A8DF80300D8B28DF809
:1013800004008DF8055000BF04E01DF8020000F0D5
:1013900091F8521C062AF8D33CBD00002DE9F0411B
:1013A00004460F46154600264FF0FF084FF48051C3
:1013B0001748FFF721FEFF2239461820FFF7CCFF20
:1013C0000020FFF711FFC0B9FF2000F073F8FE20E6
:1013D00000F070F800BF04E0207800F06BF8641CA7
:1013E000761CAE42F8D3FFF79DFFFFF79BFFFFF798
:1013F000D5FE052801D14FF000084FF48051044874
:10140000FFF7FCFDFF2000F055F84046BDE8F081F5
:10141000000C01402DE9F04704460D461646002712
:10142000B946B8464FF0FF0A4FEA56294FF48051AB
:101430001F48FFF7E1FD2BE005EB0801FF22182014
:10144000FFF78AFF0020FFF7CFFE10B1FF20BDE8B5
:10145000F087FF2000F02EF8FE2000F02BF8002788
:1014600004E0207800F026F8641C7F1CB7F5007FAC
:10147000F7D308F50078FFF755FFFFF753FFFFF7A5
:101480008DFE052802D14FF0000A01E04FF0FF0A5F
:10149000B9F10000A9F10109CED14FF480510448FF
:1014A000FFF7ACFDFF2000F005F85046CFE7000045
:1014B000000C014000BF0549098801F00201002924
:1014C000F9D00249091D0880704700000838004023
:1014D00000BFFEE77047000070B5002100230F2217
:1014E000C47804B3154C246804F4E064C4F5E064E3
:1014F000210AC1F10403CA40447804FA03F1847854
:101500001440214309010E4C0678A155047804F0DB
:101510001F050124AC4005786D11AD0005F1E025F3
:10152000C5F8004109E0047804F01F050124AC402F
:10153000044D0678761145F8264070BD0CED00E0AC
:1015400000E400E080E100E002490143024A11604A
:10155000704700000000FA050CED00E07047000045
:1015600001460020034A506820F440400843506080
:10157000704700000010024029B1064AD2690243B8
:10158000044BDA6104E0034AD2698243014BDA6119
:10159000704700000010024029B1064A92690243D8
:1015A000044B9A6104E0034A92698243014B9A61B9
:1015B000704700000010024030B5002100220024D6
:1015C00000232D4D6D6805F00C0121B1042905D0D3
:1015D000082923D105E0294D056022E0274D05604B
:1015E0001FE0254D6D6805F47012234D6D6805F4FC
:1015F0008034022505EB92421CB9214D554305600C
:101600000BE01D4D6D6805F400351DB11C4D5543B3
:10161000056002E0194D5543056002E0174D056075
:1016200000BF00BF144D6D6805F0F0010909154DAC
:101630006B5C0568DD4045600F4D6D6805F4E06149
:10164000090A104D6B5C4568DD4085600A4D6D6888
:1016500005F46051C90A0B4D6B5C4568DD40C560FF
:10166000054D6D6805F44041890B074D6B5CC568FD
:10167000B5FBF3F5056130BD0010024000127A00A1
:1016800000093D000C0000201C00002008B50121CD
:101690000420FFF781FF0220ADF8000010208DF834
:1016A000030003208DF8020069460448FFF7D1FBD0
:1016B00002210248FFF7A2FC08BD0000000801401B
:1016C0007CB500F0EFF84FF480517448FFF794FCBC
:1016D000002601E0701C86B2B6F5706FFADB0026BA
:1016E00004E0FF2000F0E8F9701C86B20A2EF8DB57
:1016F000002500BF95220021084600F069F9044644
:10170000681C85B2012C01D03C2DF3DB3C2D01D1AE
:1017100001207CBD87224FF4D571082000F096F996
:101720000446052C4FD101205D49087001035B4838
:10173000FFF764FCFF2000F0BFF9002500BF002286
:101740001146372000F044F90446012C01D0204610
:10175000DFE700221146292000F03AF90446681C10
:1017600085B20CB13C2DEADB3C2D13D1002500BF26
:1017700000221146012000F02BF90446681C85B2B6
:101780000CB13C2DF4DB3C2D01D10120C1E7002040
:101790004349087000F0EEF8FF2000F08DF9952223
:1017A00000213B2000F014F904460CB12046B0E7BC
:1017B00095224FF40071102000F00AF90446002C25
:1017C0006AD02046A5E7012C66D1FF2000F074F90D
:1017D0008DF80000FF2000F06FF98DF80100FF2068
:1017E00000F06AF98DF80200FF2000F065F98DF82D
:1017F000030021032948FFF701FCFF2000F05CF9FA
:10180000002500BF00221146372000F0E1F8044611
:10181000012C01D020467CE700224FF08041292096
:1018200000F0D6F804463C2D01DD204671E7002C7F
:10183000E8D1002211463A2000F008F904460CB124
:10184000204666E7FF2000F037F98DF80000FF2002
:1018500000F032F98DF80100FF2000F02DF98DF82D
:101860000200FF2000F028F98DF803004FF48051AA
:101870000A48FFF7C3FBFF2000F01EF99DF80000A7
:1018800000F0400018B104200549087002E0022071
:101890000349087000F06EF820463AE7000C01405A
:1018A0002000002000B587B001210D20FFF774FE55
:1018B00001218803FFF760FE4FF46040ADF8180087
:1018C00003208DF81A0018208DF81B0006A9274860
:1018D000FFF7BFFA4FF48040ADF8180003208DF8F1
:1018E0001A0048208DF81B0006A92048FFF7B1FA1E
:1018F0004FF48050ADF8180003208DF81A00102026
:101900008DF81B0006A91948FFF7A3FA4FF4805180
:101910001648FFF773FB0021154800F0E7F8002098
:10192000ADF804004FF48270ADF806000020ADF869
:1019300008000220ADF80A000120ADF80C004002BA
:10194000ADF80E003820ADF810000020ADF8120000
:101950000720ADF8140001A9054800F0D3F80121D3
:10196000034800F0C3F807B000BD0000000C0140C0
:101970000038004000B585B00021144800F0B6F8EA
:101980000020ADF800004FF48270ADF80200002096
:10199000ADF804000220ADF806000120ADF8080003
:1019A0004002ADF80A000820ADF80C000020ADF8A8
:1019B0000E000720ADF810006946044800F0A2F8B8
:1019C0000121024800F092F805B000BD0038004047
:1019D0002DE9F04105460C4616460027FF2000F091
:1019E0006BF84FF480511848FFF706FB45F04000B4
:1019F00000F062F8200E00F05FF8C4F3074000F03A
:101A00005BF8C4F3072000F057F8E0B200F054F898
:101A1000304600F051F804E0781CC7B23C2F00DDDE
:101A200005E0FF2000F048F88046FF28F4D000BF12
:101A30004FF480510448FFF7E1FAFF2000F03CF832
:101A40004046BDE8F0810000000C01402DE9F04166
:101A500005460C4616460027FF2000F02DF84FF4EF
:101A600080511448FFF7C8FA45F0400000F024F810
:101A7000200E00F021F8C4F3074000F01DF8C4F375
:101A8000072000F019F8E0B200F016F8304600F038
:101A900013F804E0781CC7B23C2F00DD05E0FF20FE
:101AA00000F00AF88046FF28F4D000BF4046BDE8A9
:101AB000F0810000000C0140014600BF0A48008888
:101AC00000F002000028F9D00748001D018000BF87
:101AD0000548008800F001000028F9D00248001DE8
:101AE0000088C0B2704700000838004021B1028869
:101AF00042F04002028004E002884FF6BF731A40B1
:101B00000280704710B50022028802F441520B880F
:101B10004C8823438C882343CC8823430C8923435C
:101B20004C8923438C892343CC8923431A43028065
:101B3000838B4FF2FF74234083830B8A038210BD93
:101B40007047000070B504460D4602210548FFF7B6
:101B500055FA2946204600F033FB02210148FFF7E1
:101B60004BFA70BD0008014010B500F001F810BD3F
:101B70000CB50020019000903348006840F480309C
:101B80003149086000BF3048006800F40030009020
:101B90000198401C0190009818B90198B0F5A06F09
:101BA000F1D12948006800F4003010B10120009004
:101BB00001E0002000900098012843D123480068EC
:101BC00040F01000214908600846006820F003003A
:101BD00008600846006840F0020008601A48406843
:101BE000194948600846406848600846406840F423
:101BF000806048600846406820F47C1048600846D1
:101C0000406840F4E81048600846006840F0807082
:101C1000086000BF0C48006800F000700028F9D090
:101C20000948406820F003000749486008464068BA
:101C300040F00200486000BF0348406800F00C001C
:101C40000828F9D10CBD000000100240002002401D
:101C500010B50F4800F0C6FE0E4800F0C3FE0EA0FF
:101C600000F0C0FE184800F0BDFE18A000F0BAFE5B
:101C700020A000F0B7FE2AA000F0B4FE35A000F0CE
:101C8000B1FE41A000F0AEFE464800F0ABFE10BD34
:101C9000C4510008B8500008554152542053454ED5
:101CA000443A615C725C6E202020416363656C6520
:101CB000726174696F6E2063616C696272617469CC
:101CC0006F6E2E0D0A0000005C5100085541525401
:101CD0002053454E443A555C725C6E202020426190
:101CE0006E64776964746820696E63726561736598
:101CF0002E0D0A00554152542053454E443A755C0E
:101D0000725C6E20202042616E6477696474682082
:101D1000726564756374696F6E2E0D0A00000000B1
:101D2000554152542053454E443A425C725C6E20F9
:101D3000202042617564207261746520696E63724F
:101D4000656173656420746F203131353230302E17
:101D50000D0A0000554152542053454E443A625CEE
:101D6000725C6E202020426175642072617465206F
:101D7000726564756374696F6E20746F20393630D4
:101D8000302E0D0A00000000554152542053454E9C
:101D9000443A685C725C6E20202068656C702E0D81
:101DA0000A00000008510008042808D14FF0E02183
:101DB000096941F004014FF0E022116107E04FF0A2
:101DC000E021096921F004014FF0E0221161704720
:101DD0007047000010B504466FF00400FFF7E4FF01
:101DE000E11704EB5171C1F3C701074A11701046A6
:101DF000007800EB4001C1EBC0104FF6FF7101EA23
:101E0000C0000249088010BD640000206600002068
:101E100010B51348006840F00100114908600846F9
:101E20004068104908400E494860084600680E495D
:101E300008400B4908600846006820F480200860CC
:101E40000846406820F4FE0048604FF41F00886098
:101E5000FFF78AFE4FF000600449086010BD0000E3
:101E6000001002400000FFF8FFFFF6FE08ED00E062
:101E700010B540F225511D4800F0DDF810B31B48A5
:101E800000F094F9C4B21A48008800F40040C8B9C0
:101E90001748008800F4804060B10A2C03D000206D
:101EA0001349088020E01248008840F4004010499F
:101EB000088019E00D2C06D10D48008840F48040C0
:101EC0000B49088010E00A480088C0F30D0009495A
:101ED0000C5407480088401C0549088008460088C3
:101EE000C72801DD0020088010BD00000038014037
:101EF00068000020EC06002010B586B004460121E1
:101F00000420FFF749FB01218803FFF745FB4FF44D
:101F10000070ADF8140003208DF8160018208DF81D
:101F2000170005A91E48FEF794FF4FF48060ADF836
:101F3000140004208DF8170005A91948FEF789FF41
:101F400001940020ADF80800ADF80A00ADF80C00CF
:101F5000ADF810000C20ADF80E0001A9114800F0FA
:101F6000B9F801210F4800F04DF840210D4800F06C
:101F700031F8012240F225510A4800F086F8252068
:101F80008DF8000003208DF801008DF8020001207B
:101F90008DF803006846FFF79FFA06B010BD0000F9
:101FA000000801400038014010B540F225510848B2
:101FB00000F041F858B1064800F0F8F8C4B22046E5
:101FC00000F096FA40F22551014800F00CF810BDDF
:101FD0000044004001F40072B2F5007F00D100BF60
:101FE000CA430280704710B50022002340F66A14ED
:101FF000A14200D100BF0A1201249440A3B2DC43E5
:10200000048010BD21B1828942F40052828104E033
:1020100082894DF6FF731A40828170470246002084
:10202000B1F5007F00D100BF13880B400BB1012038
:1020300000E00020704770B5024600240023002510
:10204000002040F66A16B14200D100BFC1F342152C
:1020500001F01F03012606FA03F3012D02D1968930
:10206000334006E0022D02D1168A334001E0968A01
:1020700033400C12012606FA04F41688344013B1DA
:102080000CB1012000E0002070BDF0B50346002433
:1020900000260025002040F66A17B94200D100BF93
:1020A0001846C1F3421401F01F06012707FA06F58E
:1020B000012C01D10C3004E0022C01D1103000E0E1
:1020C00014301AB107682F43076002E00768AF4376
:1020D0000760F0BD2DE9F04786B005460E460024A6
:1020E000A24600BFA1460027B08900B100BF2F461D
:1020F0002C8A4CF6FF700440F08804432C82AC8993
:102100004EF6F3100440B0883189084371890843C2
:102110000443AC81AC8A4FF6FF400440B0890443CD
:10212000AC8201A8FFF748FA1F48874202D1DDF8C8
:1021300010A001E0DDF80CA0A88900F4004040B137
:102140000AEBCA0000EB0A1031684900B0FBF1F855
:1021500007E00AEBCA0000EB0A1031688900B0FB07
:10216000F1F86420B8FBF0F004012009642101FBC0
:102170001089A88900F4004040B1322000EBC9006A
:10218000B0FBF1F000F00700044308E0322000EB60
:1021900009106421B0FBF1F000F00F0004432C8122
:1021A00006B0BDE8F087000000380140014688888D
:1021B000C0F308007047C1F3080282807047000036
:1021C00070B504460D4600260CE000BF80210A4889
:1021D000FFF724FF0028F9D014F8011B0648FFF789
:1021E000EAFF761CAE42F0D300BF40210248FFF761
:1021F00015FF0028F9D070BD0044004000BFFEE785
:1022000010B586B0044601210420FFF7C5F901216D
:102210004804FFF7B1F90220ADF8140010208DF842
:10222000170003208DF8160005A92548FEF711FEBA
:1022300002212348FEF7E2FE0420ADF81400182026
:102240008DF8170003208DF8160005A91C48FEF72D
:1022500000FE0820ADF8140004208DF8170005A931
:102260001748FEF7F6FD01940020ADF80800ADF820
:102270000A00ADF80C00ADF810000C20ADF80E000F
:1022800001A91048FFF726FF012240F225510D4811
:10229000FFF7FBFE01210B48FFF7B4FE26208DF867
:1022A000000001208DF8010008208DF802000120B7
:1022B0008DF803006846FFF70FF906B010BD000067
:1022C0000008014000440040014611B96FF00500CC
:1022D0007047024801600020FAE70000500000202B
:1022E0000246032A02D96FF00500704704480260D5
:1022F000044801700020044B186000BFF5E700009F
:102300005C00002054000020580000202DE9FC4112
:1023100004460D466019902803D36FF00500BDE810
:10232000FC816448006830B1012824D0022857D0CD
:10233000032877D177E0042D02D96FF00500EEE78E
:102340005D48006810B96FF00400E8E7FF208DF8E1
:102350000000AA208DF8010027208DF80200E0B2CD
:102360008DF80300200A8DF8040005216846524AC2
:102370001268904799E05048006810B96FF0040067
:10238000CDE74FF6FF7000EA4506701DB0F5807F7F
:1023900002DD6FF00300C2E7484800788DF80000C6
:1023A00003208DF80100200A8DF80200E0B28DF8BC
:1023B0000300280A8DF80400E8B28DF80500062114
:1023C000684600F037FB064630128DF80600F0B282
:1023D0008DF8070008216846374A1268904764E084
:1023E000032D02D96FF0050099E73548006810B950
:1023F0006FF0040093E7FF208DF80000AA208DF80D
:10240000010027208DF80200E0B28DF80300200AB9
:102410008DF804000522694628480078284B1B687F
:10242000984742E03EE02748006810B96FF004008A
:1024300075E74FF6FF7000EA4506B6F5807F02DDCE
:102440006FF003006BE7E1B21C4A12785206100EDF
:1024500033461D4ADFF86CC0DCF800C0E0470128B5
:102460001FD11A48006810B96FF0040057E7002721
:1024700010E0154810F81700012101EB4701124A3E
:10248000515C40EA012000B23919114A22F81100CA
:10249000781C87B2AF42ECD3294620460B4A12681B
:1024A000904702E06FF0050039E700BF094804607B
:1024B000002034E75C0000203C0000205400002095
:1024C0004800002044000020CC0400204C000020E4
:1024D000CC05002060000020014611B96FF0050016
:1024E0007047024801600020FAE700004C0000201D
:1024F0002DE9FC4180467248006808B9BDE8FC81BE
:10250000704801680068401C6E4A10606E4800F810
:1025100001806E48006830B1012859D0022874D07B
:10252000032854D1BCE06848007855280CD0654891
:102530000068401E6349086008466349491C0268F8
:10254000481EFDF7EFFDD9E75E4800680B283ED333
:102550000A215D4800F08AFA07465B48807AB84253
:102560000CD058480068401E564908600846564935
:10257000491C0268481EFDF7D5FDBFE75248807828
:102580005149C97840EA0120ADF800004E48007971
:102590004D49497940EA0120ADF802004A48807966
:1025A0004949C97940EA0120ADF804004648007A5B
:1025B0004549497A40EA0120ADF806004249487889
:1025C00004226946FEF7C6FB00203E4908606BE026
:1025D0003C480068022861D93B48407803280CD069
:1025E00038480068401E3749086008463649491C8B
:1025F0000268481EFDF796FD80E733488078401D4D
:1026000030490968884201D978E748E02D480068D8
:10261000401E2D49095C2B480068801E2A4A105C28
:1026200041EA002527480088801E81B2104600F04C
:1026300001FA0646B5420CD022480068401E2149E6
:10264000086008462049491C0268481EFDF76AFDDB
:1026500054E71D4880784510002414E0042000EB66
:1026600044001949085C032101EB4401164A515CFE
:1026700040EA012000B2164909682144154A22F8AF
:102680001100601C84B2AC42E8DB294610480068A7
:102690000B4A1268904700200A49086004E000BF16
:1026A00000200849086000BF00BF06480068B0F578
:1026B000807F02D100200349086000BF1EE70000B0
:1026C0004C00002058000020CC0400205C000020BA
:1026D00060000020CC050020014611B96FF0050014
:1026E0007047024801600020FAE700003C0000202B
:1026F00010B504460622002120B2FEF757FA10B9A1
:102700006FF0050010BD4BF28851692000F0CCF845
:1027100010B16FF00200F5E70C480068012804D101
:1027200014200B490968884706E00848006818B972
:102730000120074909688847A1B21F2000F0B4F8BA
:1027400010B16FF00200DDE70020DBE75C00002045
:102750005000002010B504460722012120B2FEF7E8
:1027600025FA10B96FF0050010BD4BF288516920B1
:1027700000F09AF810B16FF00200F5E70C4800681D
:10278000012804D114200B490968884706E008484D
:10279000006818B90120074909688847A1B20420D8
:1027A00000F082F810B16FF00200DDE70020DBE7F7
:1027B0005C0000205000002010B54BF288516920C9
:1027C00000F072F810B16FF0020010BD0C48006804
:1027D000012804D114200B490968884706E00848FD
:1027E000006818B90120074909688847012108468F
:1027F00000F05AF810B16FF00200E6E70020E4E7BD
:102800005C0000205000002010B54BF28851692078
:1028100000F04AF810B16FF0020010BD0C480068DB
:10282000012804D114200B490968884706E00848AC
:10283000006818B901200749096888470721012065
:1028400000F032F810B16FF00200E6E70020E4E794
:102850005C0000205000002010B54BF28851692028
:1028600000F022F810B16FF0020010BD0C480068B3
:10287000012804D114200B490968884706E008485C
:10288000006818B90120074909688847002101201C
:1028900000F00AF810B16FF00200E6E70020E4E76C
:1028A0005C000020500000202DE9FC4105460C464C
:1028B000902D03D36FF00500BDE8FC81444800680B
:1028C00030B101281FD0022847D003287AD161E017
:1028D0004048006810B96FF00400EDE7FF208DF864
:1028E0000000AA208DF80100E8B28DF80200E0B2E5
:1028F0008DF8030020128DF8040005216846354A42
:102900001268904761E03348006810B96FF0040026
:10291000D2E7314800788DF8000006208DF80100DC
:10292000280A8DF80200E8B28DF8030020128DF815
:102930000400E0B28DF805000621684600F07AF840
:10294000064630128DF80600F0B28DF80700082117
:102950006846204A1268904737E02048006810B95E
:102960006FF00400A8E7FF208DF80000AA208DF882
:102970000100E8B28DF80200E0B28DF803002012E9
:102980008DF804000522694613480078134B1B6834
:1029900098471AE01248006810B96FF004008BE7FE
:1029A000E0B28DF8000020128DF80100E9B20A4A69
:1029B00012785206100E02236A46094F3F68B84744
:1029C00003E0FFE76FF0050076E700BF002073E744
:1029D0005C0000203C000020540000204800002043
:1029E000400000200FB4054B10B503A9044A02981B
:1029F00000F01AF910BC5DF814FB00001D4400083B
:102A00006C0000200FB41CB50246002007AC002962
:102A10000BD0491ECDE90021054B6A462146069898
:102A200000F002F9009A002111701CBC5DF814FB43
:102A30005733000870B503460C46FF25FF260022D9
:102A400000BF00BF09E0985C80EA05010548405CD2
:102A500080EA06050448465C521CA242F3DB46EAC3
:102A6000052070BDB84E0008B84F000810B50246EA
:102A70000B460020002103E0545C0444E0B2491CF2
:102A80009942F9D310BD02E008C8121F08C1002AFC
:102A9000FAD170477047002001E001C1121F002ADF
:102AA000FBD170472DE9FF5F82B00021DDE90430E2
:102AB000020DDDF840B0034318D044F61050A2F2E6
:102AC000FF3242431514119801281FD0A5EB0B00CB
:102AD000401C5FEA000A4FF000064E4FDFF83891C5
:102AE000B046504615D5CAF1000413E011980124F0
:102AF0004AA3012801D16FEA0B010298119AC0E99B
:102B00000031C0E9024206B0BDE8F09FCBF1000001
:102B1000DFE704460021404A491842EB0450CDE962
:102B2000001012E0E00707D032463B4640464946D7
:102B3000FDF718FD8046894632463B461046194649
:102B4000FDF710FD06460F466410002CEAD1DDE9C2
:102B50000401DDE90023BAF1000F06DAFDF702FDFA
:102B600042464B46FDF7FEFC05E0FDF76DFD424693
:102B70004B46FDF769FD04460E460022284BFDF743
:102B8000EBFD03D84FF0FF30014607E00022254B54
:102B900020463146FDF73FFCFDF7C5FD102409E056
:102BA000002C0ADB0A220023FDF7CDFB039B303209
:102BB0001A55641E50EA0102F2D1641C039AC4F152
:102BC00011031444119A012A03D0012208430DD1A4
:102BD0000AE0084304D000204FF0110B119072E777
:102BE000A3EB0B056D1E0DE05B4504DD4FF000020D
:102BF00005F1010504E003DA4FF00002A5F101053B
:102C0000002AECD002981199C0E90231C0E90045D0
:102C100079E70000000014400000F03F30000000A1
:102C20000000F0430000E03F2DE9FF4F95B09B46C8
:102C30008946064600250FE2252877D1002427463D
:102C4000F84A0121059400E0044316F8013F203BB7
:102C500001FA03F01042F7D130782A2811D06FF032
:102C60002F033078A0F13002092A16D8059A44F0D3
:102C7000020402EB820203EB42021044761C059030
:102C8000EFE759F8042B0592002A03DA504244F486
:102C90000054059044F00204761C30782E2816D19A
:102CA00016F8010F44F004042A280DD06FF02F020B
:102CB0003078A0F13003092B09D807EB870302EB2A
:102CC0004303C718761CF3E759F8047B761C307869
:102CD0006C280FD006DC4C2817D068280DD06A2845
:102CE00014D104E0742810D07A280FD10DE044F4F8
:102CF00000140AE044F4801401E044F440147278B3
:102D0000824202D104F58014761C761C3078662845
:102D10000BD013DC582877D009DC002875D0452863
:102D2000F6D04628F4D047281AD19DE118E0632850
:102D300035D0642879D0652812D195E1702873D0F8
:102D400008DC6728F1D069286FD06E280DD06F2875
:102D500006D1B5E073282CD0752875D0782874D0AA
:102D60005A46179990476D1C75E1C4F3025002282A
:102D700009D003280DD0D9F8001004280DD00D601B
:102D800009F1040967E1D9F80010EA17C1E9005216
:102D9000F6E7D9F800100D80F2E70D70F0E719F8AA
:102DA000041B8DF8001000208DF80100EA46012078
:102DB00003E059F804AB4FF0FF3061074FF000011A
:102DC00002D40DE008F101018846B9420FDA8045CE
:102DD000F8DB1AF808100029F4D108E008F1010125
:102DE00088468142FADB1AF808100029F6D10598C6
:102DF0005B46A0EB080721463846179A00F094FA84
:102E0000284400EB080507E04DE029E10DE01AF841
:102E1000010B5A4617999047B8F10108F7D25B4663
:102E200021463846179A13E142E00A220092C4F381
:102E300002524FF0000A022A08D059F804CB032AA4
:102E40004FEAEC710AD00DE029E02AE009F1070110
:102E500021F00702F2E802C1914609E00FFA8CFC6A
:102E60004FEAEC71042A03D14FFA8CFC4FEAEC7163
:102E7000002907DA0A460021DCF1000C61EB0201AF
:102E80002D2202E0220504D52B228DF804200122F8
:102E900003E0E20701D02022F7E7904659E00A213B
:102EA00002E010220DE010214FF0000A00910BE02B
:102EB00010224FF0000A44F004040827009203E0B7
:102EC00008224FF0000A0092C4F30252022A05D0F1
:102ED00059F804CB0021032A08D009E009F10701C1
:102EE00021F00702F2E802C1914605E01FFA8CFCCE
:102EF000042A01D10CF0FF0C4FF00008220728D55E
:102F0000702806D0009B83F0100353EA0A0305D013
:102F10000EE040228DF80420012208E05CEA010264
:102F200006D030228DF804208DF80500022290464C
:102F3000009B83F0080353EA0A030AD15CEA01020A
:102F400001D1620705D530228DF804204FF0010829
:102F50007F1E582804D034A003900EA802900DE0E4
:102F600036A0F9E753466046009AFDF7ECF984462F
:102F70000398825C0298401E029002705CEA010095
:102F8000F0D1029806A9081A00F1200A600702D5BC
:102F900024F4803400E00127574502DDA7EB0A0046
:102FA00000E0002000EB0A01009005984144401A1F
:102FB0000590E00306D45B462146179A059800F079
:102FC000B3F90544002706E001A85A46C05D1799E9
:102FD00090476D1C7F1C4745F6DBE0030CD55B4634
:102FE0002146179A059800F09FF9054404E0302027
:102FF0005A46179990476D1C0099481E0090002969
:10300000F5DC08E0029802995A460078491C0291C2
:10301000179990476D1CBAF10001AAF1010AF1DC81
:1030200065E100000928010030313233343536378C
:103030003839616263646566000000003031323304
:1030400034353637383941424344454600000000A4
:1030500000F058F90544761C307800287FF4ECAD78
:1030600019B02846BDE8F08F620700D4062709F1A1
:10307000070222F0070CFCE80223E14603F00048B7
:103080005FEA080C02D00FF2702C0DE05FEA045CDE
:1030900002D50FF2682C07E05FEAC47C02D00FF281
:1030A000602C01E0AFF2700C4FF0FF3823F00043CA
:1030B000CDF850C065280CD006DC452809D046283C
:1030C0001DD047283DD13DE0662818D067287ED125
:1030D00038E00021112F01DB112000E0781CCDE940
:1030E000000106A90EA8FFF7DDFCDDE90F010E9A2D
:1030F00003910021009207F1010A04914DE04FF085
:1031000000400097CDE9011006A90EA8FFF7CAFC00
:10311000DDE90F0203920E9B11990022DDF80CA04D
:103120000093049211B9791C00EB010AB7EB0A0075
:1031300004D4C0F1FF3007F1010A0490AAEB0700A4
:10314000019044E0012F00DA01270021112F01DD59
:10315000112000E03846CDE9000106A90EA8FFF7CE
:10316000A1FCDDE90F010E9A039100210491009268
:10317000BA4621070CD40399514500DA8A46BAF1C0
:10318000010F05DD009AAAF10101515C302908D038
:10319000B84202DA10F1040F06DA0121CDE901107C
:1031A00015E0AAF10101E9E7002805DC04990144D2
:1031B0000491AAEB000102E0411C514500DD8A4662
:1031C0000499401A401C01904FF0004002902007E3
:1031D00004D40198504501DBCDF8048000208DF81F
:1031E0004F0002980DF14F07B0F1004F25D02B2072
:1031F0000E9002984FF0020800280CDA404202902C
:103200002D200E9007E00A210298FDF786F8303154
:10321000029007F8011DB8F10001A8F10108F2DCE5
:1032200002980028EFD1791E0E980870307800F0CF
:10323000200040F0450007F8020D12A8C01B00F165
:1032400007081498007800B1012000EB0A010198EA
:1032500001EBE07105984144401A401E0590E003DF
:1032600006D45B462146179A059800F05DF80544A0
:103270001498007818B15A46179990476D1CE003CE
:1032800024D55B462146179A059800F04DF8054471
:103290001CE00498002807DBDDE90301884203DD18
:1032A0000098405C179901E0179930205A469047E2
:1032B000049805F10105401C04900198401E0190FE
:1032C00004D12E205A46179990476D1CBAF100017F
:1032D000AAF1010ADDDC05E017F8010B5A4617993F
:1032E00090476D1CB8F10001A8F10108F4DC5B46C1
:1032F0002146179A0598ABE62D0000002B00000030
:10330000200000002DE9F041044600251E46174626
:10331000880404D405E039462020B0476D1C641EA3
:10332000F9D52846BDE8F0812DE9F0410446002595
:103330001E469046C80301D5302700E020278804A8
:1033400004D505E041463846B0476D1C641EF9D5EA
:103350002846BDE8F0814A68002A06D00A68531C56
:103360000B6010704868401E4860704770B5044696
:103370000D46607801232A4604F1340100F000FD77
:1033800008B1032070BD94F8321294F8330241EA78
:1033900000204AF65521884201D00220F2E794F835
:1033A0006D00010694F86C0041EA004194F86B004E
:1033B00041EA002094F86A10084320F07F400E494B
:1033C000884201D10020DDE794F88900010694F8D5
:1033D000880041EA004194F8870041EA002094F80F
:1033E0008610084320F07F400349884201D1002025
:1033F000C8E70120C6E7000046415400024600E04D
:10340000521C107810B110788842F9D110787047AA
:103410002DE9F74F86B00698006800900098007874
:1034200030380590059809280AD8009840783A283D
:1034300006D10098801C009006990098086002E070
:10344000CC4800780590059818B10B2009B0BDE86C
:10345000F08FC949059851F82040079804600CB9CD
:103460000C20F3E7207878B1607800F0C1FC80464A
:1034700008F0010040B9089820B108F0040008B134
:103480000A20E3E70020E1E7002020700598607043
:10349000607800F01DFC804608F0010008B10320B0
:1034A000D4E7089820B108F0040008B10A20CDE75D
:1034B0004FF0000A51462046FFF758FF0546012D00
:1034C00013D104F5F977387978B1F87A0106B87A2A
:1034D00041EA0041787A41EA0020397A40EA010A5B
:1034E00051462046FFF742FF0546032D01D101203A
:1034F000ACE70DB10D20A9E73F20015D94F8400035
:1035000041EA0020B0F5007F01D00D209EE74A205F
:10351000015D94F84B0041EA0029B9F1000F0ED18A
:1035200094F85B00010694F85A0041EA004194F8CF
:10353000590041EA002094F8581040EA0109C4F803
:1035400020904420065DE670012E03D0022E01D0AB
:103550000D207BE709FB06F94120005D0646A070BF
:1035600016B1701E304008B10D206FE74520015D97
:1035700094F8460041EA00202081207A00F00F00F4
:1035800008B10D2062E74720015D94F8480041EA48
:1035900000200490049870B994F85700010694F83C
:1035A000560041EA004194F8550041EA002094F8A1
:1035B0005410084304904220015D94F8430041EA0E
:1035C00000200190019808B90D203FE70198484478
:1035D000218900EB11100390DDE90301814201D242
:1035E0000D2033E7DDE90310401AA178B0FBF1FBB1
:1035F000BBF1000F01D10D2028E7012540F6F67040
:10360000834500D302254FF6F670834500D303258A
:103610000BF10200E06103985044E06201985044CD
:103620006062032D16D1208908B10D200EE794F8B1
:103630006300010694F8620041EA004194F86100D9
:1036400041EA002094F860100843A062E06980001D
:10365000029014E0208908B90D20F7E6606A48441A
:10366000A062022D02D1E069400007E0207F00F057
:103670000100E16901EB410100EB51000290216A78
:10368000029800F2FF10B1EB502F01D20D20DDE6C1
:103690004FF0FF3020610020E060032D5CD16071AD
:1036A00094F8641094F8650041EA00205044606189
:1036B0006078012304F13401626900F061FBE8BB2A
:1036C00094F8321294F8330241EA00204AF6552168
:1036D000884241D13720005D01063620005D41EA75
:1036E00000413520005D41EA002094F83410084381
:1036F0002249884230D194F81B02010694F81A023C
:1037000041EA004194F8190241EA002094F81812A5
:1037100008431B4988421FD194F82302010694F8FC
:10372000220241EA004194F8210241EA002094F883
:1037300020120843E06094F81F0200E00CE001064C
:1037400094F81E0241EA004194F81D0241EA00206B
:1037500094F81C120843206125700A480088401C18
:1037600080B208490880E080002020632071A061B9
:1037700000BF6BE63600002030000020525261414D
:1037800072724161340000200246891ED069801E99
:10379000884201D8002070479378D06A01FB03006B
:1037A000F9E72DE9F04704468946B9F1000F06D143
:1037B000E76817B1E069B84211D801270FE0494620
:1037C000204600F03DFE0646022E02D20120BDE852
:1037D000F087E069B04201D93046F8E74F463D46F0
:1037E00000BF6D1CE069A84204D80225BD4201D982
:1037F0000020ECE72946204600F022FE064606B9E6
:1038000009E0701C08B1012E01D13046DFE7BD424E
:10381000E7D10020DBE700BF6FF070422946204669
:1038200001F0EDF98046B8F1000F08D1B9F1000FB1
:1038300005D02A464946204601F0E1F98046B8F114
:10384000000F09D1E5602069401C68B12069401E65
:1038500020610120607107E0B8F1010F02D14FF043
:10386000FF3000E0012005462846B0E72DE9F34F80
:1038700081B08B46019885690B222021284601F0F2
:103880007BF9002006460746804608200090DBF8BA
:1038900000A01AF808002E2825D100BF404608F1E4
:1038A00001081AF800402E2C02D1B8F1030F00D302
:1038B00003E038467F1C2C54F0E700BF2F2C06D0C5
:1038C0005C2C04D0202C02DD0620BDE8FE8F0AEB24
:1038D0000800CBF80000202C01DC242000E0202090
:1038E000E8720020F1E700BF404608F101081AF82D
:1038F0000040202C03DD2F2C01D05C2C00D153E0A4
:103900002E2C02D0009887420CD30098082801D1B1
:103910002E2C01D00620D8E708270B200090B006F7
:10392000060EE1E7802C01DB46F00306812C20DB4C
:10393000FE2C1EDC404608F101081AF80090B9F18F
:10394000400F02DBB9F17E0F05DDB9F1800F06DB18
:10395000B9F1FE0F03DC0098401EB84201D80620E2
:10396000B3E738467F1C2C5438467F1C05F800907E
:1039700019E0214620A0FFF741FD08B10620A4E789
:10398000412C04DB5A2C02DC46F0020608E0612CD4
:1039900006DB7A2C04DC46F00106A4F12000C4B258
:1039A00038467F1C2C549FE700BF0AEB0800CBF879
:1039B0000000202C01DC042000E0002004460FB9A8
:1039C000062082E72878E52801D105202870009894
:1039D000082801D1B006060E06F00300012801D127
:1039E00044F0100406F00C00042801D144F008044F
:1039F000EC72002069E70000222A2B2C3A3B3C3D68
:103A00003E3F5B5D7C7F00000146114A12884A43BD
:103A10004FF0E0235A6100229A611A46126942F07F
:103A200001021A6100BF4FF0E022106900F00102AC
:103A30001AB100F48032002AF5D04FF0E02212696A
:103A400022F001024FF0E0231A6100229A617047D0
:103A5000660000202DE9F04104460021204600F0D8
:103A6000E9F8054615B12846BDE8F08100BF216997
:103A7000206801F08BF8054605B116E066693778D5
:103A80000FB9042511E0F07A00F0080030B90B22DC
:103A90003046A16901F050F800B906E00021204647
:103AA00000F006F80546002DE1D000BF2846DBE710
:103AB0002DE9F04104468846E088401C86B20EB1EC
:103AC000206910B90420BDE8F08106F00F0000283D
:103AD0006FD12069401C2061E06828B92068008906
:103AE000B04266DC0420EEE720688078401E00EAE1
:103AF000161000285DD1E168206800F0A1FC0546A1
:103B0000012D01D80220DEE7681C08B90120DAE7A0
:103B10002068C069A84246D8B8F1000F01D104203E
:103B2000D1E7E1682068FFF73CFE05460DB90720A4
:103B3000C9E7012D01D10220C5E7681C08B90120A1
:103B4000C1E70021206801F021F808B10120BAE79F
:103B5000216801F134004FF40072002101F00CF8EB
:103B600029462068FFF710FE21680863002710E04F
:103B70000120216808710021206801F007F808B1D0
:103B80000120A0E72068006B401C21680863781CB6
:103B9000C7B220688078B842EADC2068006BC01B9E
:103BA0002168086300BFE56029462068FFF7ECFD47
:103BB0002061E6802068343006F00F0100EB4110F0
:103BC000606100207FE72DE9F04104460021204696
:103BD00000F030F80546ADB900BF2169206800F05B
:103BE000D5FF054605B10CE060690678E52E00D0EA
:103BF00006B906E001212046FFF75AFF0546002DD1
:103C0000EBD000BF9DB92169206800F0BFFF0546D9
:103C10006DB9676920220021384600F0ADFF0B2204
:103C20003846A16900F09BFF0120216808712846F1
:103C3000BDE8F0812DE9F04104460E46E680A56816
:103C4000012D03D02068C069A84202D80220BDE837
:103C5000F0812DB920680078032801D12068856A99
:103C600065B9E56020680089B04201DC0220EEE71A
:103C70002068806A00EB1610206120E020688078C0
:103C8000070112E02946206800F0DAFB0546681CAF
:103C900008B90120DBE7022D03D32068C069A842E0
:103CA00001D80220D3E7F01B86B2BE42EADAE56013
:103CB00029462068FFF768FD00EB16102061206898
:103CC000343006F00F0100EB411060610020BEE7C8
:103CD00070B505460DB1012070BDFDF797FA044699
:103CE00007480470007808B10220F5E7022C01D1E2
:103CF0000220F1E70CB10120EEE70020ECE7000024
:103D0000370000202DE9F04106460F4615461848B9
:103D1000007810B10320BDE8F0810EB10420FAE76D
:103D200027B1012F19D0032F1CD111E04FF480517E
:103D30001048FDF761F9FF20FDF756FA08B9002495
:103D400000E001244FF480510A48FDF757F90BE0D9
:103D5000094800882880002406E008480068286098
:103D6000002401E0042400BF00BF2046D3E7000088
:103D700037000020000C0140280000202400002013
:103D80002DE9F04106460F4614461D464FF0000847
:103D900006B915B90420BDE8F0811348007808B1D0
:103DA0000320F8E7012D12D110480078042806D02E
:103DB00061026A023846FDF735FA80460DE04FF49D
:103DC000007221463846FDF72DFA804605E06A026A
:103DD00061023846FDF75CFA8046B8F1000F01D168
:103DE0000020D8E70120D6E737000020200000207F
:103DF000014609B1012070470348007808B102204C
:103E0000F9E70020F7E70000370000202DE9F04136
:103E10000746884616461D4607B915B90420BDE871
:103E2000F0811848007808B10320F8E7012D12D17D
:103E300015480078042806D071026A024046FDF752
:103E4000ADFA044618E04FF4007231464046FDF7E3
:103E5000A5FA044610E00C480078042806D06A024F
:103E600071024046FDF7D6FA044605E06A02314683
:103E70004046FDF7CFFA04460CB90020CFE70120F9
:103E8000CDE70000370000202000002070B5044678
:103E9000204600F002F905460DB9002020602846B2
:103EA00070BD00000246012A01DB0B207047074865
:103EB00050F822300BB10020187009B100200870B2
:103EC000024840F822100020F0E7000030000020F7
:103ED0002DE9F7438AB0054616460020286006F013
:103EE0001F0626F0010203A90BA8FFF791FA074667
:103EF000CDF824D027B903A80B9900F031FA074672
:103F0000089C0FB904B9062706F01C00002858D0F9
:103F10004FB1042F03D103A8FFF755FE074646F023
:103F20000806089C09E006F0040008B1082704E030
:103F3000E07A00F0110000B10727002F40D106F011
:103F4000080000283CD000F0EDFA804684F80E808E
:103F50004FEA1821E1734FEA184121744FEA1861C2
:103F600061740020E072207700216177A177E1770A
:103F7000A17EE07E41EA0021227D607D42EA0020B0
:103F800041EA00490020A0760021E17620756175A4
:103F9000012003990871B9F1000F11D00398D0F8EE
:103FA00030804946039800F0C5FE074647B9A9F19D
:103FB00001000399C8604146039800F0E7FD0746F9
:103FC0000EE06FB9E07A00F0100008B1042707E0B6
:103FD00006F0020020B1E07A00F0010000B10727EE
:103FE00047B906F0080008B146F020060398006BB8
:103FF000E8612C62FFB9AE71A17EE07E41EA00214A
:10400000227D607D42EA002041EA00402861E07F95
:104010000106A07F41EA0041607F41EA0020217F44
:104020000843E8600020A860A861686203982860DF
:104030000398C088A88038460DB0BDE8F0837CB5F1
:1040400004460E460A2C03D131460D20FFF7F7FF38
:104050008DF80040012501AB2A466946304600F044
:1040600078F80198A84200D17CBD4FF0FF30FBE703
:1040700070B504460E4600250AE020783146FFF769
:10408000DEFF401C10B94FF0FF3070BD641C6D1C8A
:1040900020780028F1D12846F7E72DE9F0410446C1
:1040A000A188206800F0DFFE0746002F4FD1A079DD
:1040B00000F0200000284AD0A07900F0400078B13C
:1040C00021684878012304F12801A269FFF79EFEC8
:1040D00010B10120BDE8F081A07920F04000A0716E
:1040E000E169206800F052FD0746002F2FD1256AB4
:1040F000E87A40F02000E872207B2877A089010A46
:104100006977E068010CA977E068010EE977207C07
:10411000A876208A010AE9762069000C28752069B2
:10412000010E697500F0FEF90646AE75310AE975B3
:10413000310C2976310E6976A07920F02000A0712B
:10414000012021680871206800F028FE07463846E3
:10415000C0E72DE9FF4F83B0044615469B460498FF
:1041600001900020CBF80000A188206800F07BFEC1
:104170000290029818B1029807B0BDE8F08FA079BC
:1041800000F0800008B10220F6E7A07900F00200FC
:1041900008B90720F0E7E0682844E168884200D2C7
:1041A0000025CDE02089C0F30800002877D12068E1
:1041B0008078401EA16800EA512000F0FF0ABAF1A1
:1041C000000F2AD1A06858B9D4F81080B8F1000FB8
:1041D0000BD100212068FFF7E4FA8046206104E05B
:1041E00061692068FFF7DDFA8046B8F1000F00D161
:1041F000A9E0B8F1010F05D1A07940F08000A071CD
:104200000220B9E708F1010028B9A07940F0800048
:10421000A0710120B0E7C4F81480A07900F040003C
:1042200090B121684878012304F12801A269FFF7C1
:10423000EDFD28B1A07940F08000A07101209BE73E
:10424000A07920F04000A07161692068FFF79CFA16
:1042500006462EB9A07940F08000A07102208BE7BD
:1042600056444FEA5529B9F1000F2FD00AEB090047
:1042700021688978884203D920688078A0EB0A09F0
:1042800009F0FF032168487832460199FFF7BEFD27
:1042900030B1A07940F08000A07101206CE72CE0E3
:1042A000A069801B48450ED2A069801B019A02EBD1
:1042B00040214FF4007204F1280000F050FCA07976
:1042C00020F04000A0714FEA49272DE0A069B042DC
:1042D00012D0D4E9020188420ED221684878012325
:1042E000324604F12801FFF74BFD28B1A07940F0D8
:1042F0008000A07101203FE7A6612089C0F308007B
:10430000C0F50077AF4200D92F462189C1F30802DA
:1043100004F1280150183A46019900F020FCA079D8
:1043200040F04000A07100BF019838440190A0689F
:104330003844A060DBF800003844CBF80000ED1BE7
:10434000002D7FF42FAF00BFD4E90201884201D9CC
:10435000A068E060A07940F02000A07100200BE789
:104360002DE9F3410446019800782F2803D00198E5
:1043700000785C2805D10198401C01900020A060C5
:1043800002E020688069A06001980078202807D2A8
:1043900000212046FFF74EFC07460020606139E00F
:1043A00000BF01A92046FFF761FA074607B130E0D8
:1043B0002046FFF74FFB0746A069C67A97B1042F46
:1043C00000D026E006F0200038B10020A060606137
:1043D000002706F0040020B9E3E706F0040000B966
:1043E000052716E006F0040000B112E06569E87ADE
:1043F00000F0100008B905270BE0A97EE87E41EA2D
:1044000000212A7D687D42EA002041EA0040A06048
:10441000C7E700BF3846BDE8FC81000070B5044620
:104420000D46E1B20548FDF7C6FE00BF80210348F6
:10443000FDF7F4FD0028F9D0204670BD003801409A
:104440002DE9F04105460C46022C02D3E869A04252
:1044500002D80120BDE8F0812878012804D0022884
:104460002CD003285AD13DE0274607EB5707686A4E
:1044700000EB5721284600F089FB00B14EE0C7F35E
:10448000080105F1340010F801807F1C686A00EB18
:104490005721284600F07AFB00B13FE0C7F308013E
:1044A00005F13400405C48EA002804F0010010B136
:1044B0004FEA1810CEE7C8F30B00CBE7686A00EBB1
:1044C0001421284600F062FB00B127E040F2FF1003
:1044D00000EA440105F134000E183078717840EAA2
:1044E0000120B7E7686A00EBD411284600F04EFBC4
:1044F00000B113E040F2FF1000EA840105F134003E
:104500000E18F0780006B17840EA0140717840EA70
:1045100001203178084320F070409BE700BF4FF046
:10452000FF3097E770470000ADF5147D00260125A8
:1045300000208990814682464820FDF74BFCFCF71D
:1045400093FD4FF4E130FDF7D7FC4FF4A060FCF78A
:10455000FBFFFCF7B9F9FCF759FE05462946EDA02B
:10456000FEF740FAEE48057015B1EEA0FEF73AFAF4
:10457000F0490020FFF796FCEF49087008460078E4
:1045800020B108460178EDA0FEF72CFA0A22F1A12D
:10459000F348FFF79DFCE84908700846007820B111
:1045A00008460178EFA0FEF71DFA0FF2D43BEC4964
:1045B0005846FFF75DFD4FF41650FDF721FEFDF75D
:1045C00065F850210120FDF78BFEF248FEF784F8D4
:1045D000F148FDF781FFF148FDF776FEFCF78AFA16
:1045E00096E10020FCF788FD89900C213420FDF72E
:1045F0008DFE4FF4FA70FFF707FAFCF7E1FAE8488E
:10460000007800287DD000243AE004F13401E54A26
:1046100032F91100FBF760FE80464FF08E41FBF748
:104620001DFE07464FF08341FBF7E6FD90A941F8D8
:10463000240004F13701DB4A32F91100FBF74CFE8C
:1046400080464FF08E41FBF709FE0746D649FBF73F
:10465000D3FD8DA941F8240004F13D01D14A32F97E
:104660001100FBF739FE80464FF08E41FBF7F6FD57
:104670000746CE49FBF7C0FD8AA941F82400641C17
:10468000032CC2DBC648007800F0010000282BD0C4
:104690009298FBF72FFE074688469198FBF72AFE73
:1046A000CDE908019098FBF725FECDE90478CDE926
:1046B0000601DDE90801CDE90201DDE90601BCA240
:1046C000CDE90001642155A8FEF79CF955A9BEA0CB
:1046D000FEF788F9A24955A8FFF7CAFCB048007850
:1046E00020F00100AE490870AD48007800F00200EB
:1046F00000282DD08F98FBF7FDFDCDE908018E989D
:1047000000E07AE0FBF7F6FDCDE906018D98FBF7B6
:10471000F1FD07468846DDE90801CDE90401DDE940
:104720000601ADA2CDE90078CDE9020164213CA8E3
:10473000FEF768F93CA9AEA0FEF754F988493CA8F9
:10474000FFF796FC9648007820F002009449087024
:104750009348007800F0040000282BD08C98FBF7D9
:10476000C9FD074688468B98FBF7C4FDCDE90801D3
:104770008A98FBF7BFFDCDE90478CDE90601DDE9B4
:104780000801CDE90201DDE906019DA2CDE90001A4
:10479000642123A8FEF736F923A99FA0FEF722F98A
:1047A0006F4923A8FFF764FC7D48007820F00400DF
:1047B0007B4908707A48007800F00800E8B1794831
:1047C000B0F978007749B1F97610CDE90010754855
:1047D000B0F9743094A264210AA8FEF713F90AA96B
:1047E00095A0FEF7FFF85E490AA8FFF741FC6C4868
:1047F000007820F008006A490870701CC6B2B9F150
:10480000000F31D1642096FBF0F100FB116040BB3A
:10481000FCF7F6FB82465046FCF704FC889088982B
:10482000FCF70CFC87908798FBF764FDCDE9080145
:104830008898FBF75FFD07468846DDE90801534687
:1048400081A2CDE90078CDE9020164216EA8FEF7CE
:10485000D9F86EA986A0FEF7C5F841496EA8FFF702
:1048600007FC0A20FFF7D0F88998012806D0022813
:104870000AD0032843D0042849D144E07FA0FEF7A2
:10488000B1F84FF0010942E07FA0FEF7ABF8B9F1B3
:10489000010F33D13248FFF700FC27490870084662
:1048A000007818B97BA0FEF79DF804E02248017853
:1048B0007CA0FEF797F82A48FFF7E8FA1E4908702F
:1048C0000846007818B97EA0FEF78CF804E01A4874
:1048D00001787FA0FEF786F800210846FFF7E2FA8C
:1048E000154908700846007818B980A0FEF77AF8D4
:1048F00004E01148017882A0FEF774F807E088A070
:10490000FEF770F803E089A0FEF76CF800BF00BF67
:1049100067E60000B3F5CABCBBAF3A2025640A00C5
:10492000370000205344BFA8B3F5CABCBBAFCAA729
:10493000B0DC0A007000002000000020B9D2D4D8FA
:10494000CAA7B0DCA3ACB4EDCEF3C2EB3A20256429
:104950000A000000546573742E747874000000001F
:10496000A4020020B4B4BDA8CEC4BCFECAA7B0DC6B
:10497000A3ACB4EDCEF3C2EB3A2025640A000000EC
:1049800073746172742077726974696E67210D0A9D
:1049900000000000451B0008E50C0008470E000859
:1049A00039000020CC0500200000FA440000344308
:1049B0006163633A252E336620252E336620252E2B
:1049C00033660D0A00000000616363427566666528
:1049D000723A2025730000006779726F3A252E33F2
:1049E0006620252E336620252E33660D0A00000032
:1049F0006779726F4275666665723A2025730000AA
:104A0000616E676C653A252E336620252E3366204D
:104A1000252E33660D0A0000616E676C654275666F
:104A20006665723A202573006D61673A256420251A
:104A3000642025640D0A00006D6167427566666535
:104A4000723A20257300000041443A2025642C204E
:104A5000766F6C3A20252E3266562C207765696772
:104A600068743A20252E32666B670D0A000000003C
:104A70006275666665723A2025730000B0B4BCFCAE
:104A800031B4A5B7A2000000B0B4BCFC32B4A5B7E5
:104A9000A2000000CAFDBEDDCDACB2BDB3C9B9A64F
:104AA0000A000000CAFDBEDDCDACB2BDCAA7B0DCB5
:104AB000A3ACB4EDCEF3C2EB3A2025640A000000AB
:104AC000CEC4BCFEB9D8B1D5B3C9B9A60A0000009E
:104AD000CEC4BCFEB9D8B1D5CAA7B0DCA3ACB4ED86
:104AE000CEF3C2EB3A2025640A0000005344BFA86D
:104AF000C8A1CFFBB9D2D4D8B3C9B9A60A00000067
:104B00005344BFA8C8A1CFFBB9D2D4D8CAA7B0DC40
:104B1000A3ACB4EDCEF3C2EB3A2025640A0000004A
:104B2000B0B4BCFC33B4A5B7A2000000B0B4BCFC68
:104B300034B4A5B7A2000000F0B503461C460D46EC
:104B4000002000BF161EA2F1010207D014F8017B5D
:104B500015F801CBA7EB0C06301EF3D0F0BD70B5F5
:104B600003460C4603E014F8015B03F8015B151ED5
:104B7000A2F10102F7D170BD30B5034601E003F8A0
:104B8000011B141EA2F10102F9D130BD2DE9F04143
:104B900004460D46266BAE422FD0207908B36078CC
:104BA0000123324604F13401FFF730F910B101203E
:104BB000BDE8F08100202071D4E908100844B0421B
:104BC0000FD9E7780AE0206A06446078012332466C
:104BD00004F13401FFF71AF9781EC7B2012FF2DC95
:104BE00000BF55B1607801232A4604F13401FFF774
:104BF000C7F808B10120DBE725630020D8E72DE9DD
:104C0000F04705460E461746022E02D3E869B04229
:104C100002D84FF002088AE02878012804D0022840
:104C200041D003287DD154E0B14609EB5909686AA7
:104C300000EB59212846FFF7A9FF8046B8F1000F85
:104C400000D071E0C9F3080105F134000C1806F03A
:104C5000010020B1F9B2207861F31F1000E038465E
:104C6000207009F1010901202871686A00EB5921BF
:104C70002846FFF78BFF8046B8F1000F00D053E0C5
:104C8000C9F3080105F134000C1806F0010010B159
:104C9000C7F3071005E0207800F0F000C7F3032108
:104CA0000843207040E0686A00EB16212846FFF7B1
:104CB0006DFF8046B8F1000F00D035E040F2FF10E4
:104CC00000EA460105F134000C182770380A6070BC
:104CD0002AE0686A00EBD6112846FFF757FF8046A6
:104CE000B8F1000F00D01FE040F2FF1000EA86018B
:104CF00005F134000C18E0780006A17840EA014084
:104D0000617840EA01202178084300F070400743B1
:104D10002770380A6070380CA070380EE07003E01D
:104D2000FFE74FF0020800BF00BF01202871404696
:104D3000BDE8F0872DE9F04104460E46022E02D36D
:104D4000E069B04201D8022725E000271FE0314684
:104D50002046FFF775FB054605B91BE0012D01D183
:104D6000022717E0681C08B9012713E0002231462A
:104D70002046FFF744FF074607B10BE02069401CBF
:104D800020B12069401C2061012060712E46E0693D
:104D9000B042DCD800BF3846BDE8F08170B50446AB
:104DA00000212046FFF7F2FE0546002D59D120785C
:104DB00003284FD1607900284CD0002020634FF4A5
:104DC0000072002104F13400FFF7D6FE552184F86B
:104DD0003212AA2184F83312522084F8340052216E
:104DE00035200155612136200155412137200155DB
:104DF000722184F8181284F81912412184F81A12C9
:104E0000612184F81B12217C84F81C12208A010A7B
:104E100084F81D122069010C84F81E122069010E0D
:104E200084F81F12217B84F82012A089010A84F8DB
:104E30002112E068010C84F82212E068010E84F867
:104E400023126078012304F134016269FEF7DEFF6A
:104E500000206071607800221146FEF753FF00B118
:104E60000125284670BD70B504460D4624B1207852
:104E700010B1E088A84201D0092070BD6078FEF72B
:104E8000B7FF00F0010008B10320F6E70020F4E7C7
:104E900000000000C012000080250000004B000050
:104EA0000096000000E1000000C201000084030041
:104EB0000008070000100E0000C1814001C08041C1
:104EC00001C0804100C1814001C0804100C18140DA
:104ED00000C1814001C0804101C0804100C18140CA
:104EE00000C1814001C0804100C1814001C08041BA
:104EF00001C0804100C1814001C0804100C18140AA
:104F000000C1814001C0804100C1814001C0804199
:104F100001C0804100C1814000C1814001C0804189
:104F200001C0804100C1814001C0804100C1814079
:104F300000C1814001C0804101C0804100C1814069
:104F400000C1814001C0804100C1814001C0804159
:104F500001C0804100C1814000C1814001C0804149
:104F600001C0804100C1814001C0804100C1814039
:104F700000C1814001C0804100C1814001C0804129
:104F800001C0804100C1814001C0804100C1814019
:104F900000C1814001C0804101C0804100C1814009
:104FA00000C1814001C0804100C1814001C08041F9
:104FB00001C0804100C1814000C0C101C30302C2E1
:104FC000C60607C705C5C404CC0C0DCD0FCFCE0E49
:104FD0000ACACB0BC90908C8D81819D91BDBDA1AB9
:104FE0001EDEDF1FDD1D1CDC14D4D515D71716D629
:104FF000D21213D311D1D010F03031F133F3F23299
:1050000036F6F737F53534F43CFCFD3DFF3F3EFE08
:10501000FA3A3BFB39F9F83828E8E929EB2B2AEA78
:10502000EE2E2FEF2DEDEC2CE42425E527E7E626E8
:1050300022E2E323E12120E0A06061A163A3A26258
:1050400066A6A767A56564A46CACAD6DAF6F6EAEC8
:10505000AA6A6BAB69A9A86878B8B979BB7B7ABA38
:10506000BE7E7FBF7DBDBC7CB47475B577B7B676A8
:1050700072B2B373B17170B0509091519353529218
:1050800096565797559594549C5C5D9D5F9F9E5E88
:105090005A9A9B5B99595898884849894B8B8A4AF8
:1050A0004E8E8F4F8D4D4C8C448485458747468668
:1050B00082424383418180400D0A2A2A2A2A2A2AD1
:1050C0002A2A2A2A2A2A2A2A2A2A2A2A2A2A2A2A40
:1050D0002A2A2020202020202020202048454C5013
:1050E00020202020202020202020202A2A2A2A2A8E
:1050F0002A2A2A2A2A2A2A2A2A2A2A2A2A2A2A2A10
:105100002A2A2A0D0A0000002A2A2A2A2A2A2A2ABA
:105110002A2A2A2A2A2A2A2A2A2A2A2A2A2A2A2AEF
:105120002A2A2A2A2A2A2A2A2A2A2A2A2A2A2A2ADF
:105130002A2A2A2A2A2A2A2A2A2A2A2A2A2A2A2ACF
:105140002A2A2A2A2A2A2A2A2A2A2A2A2A2A2A2ABF
:105150002A2A2A2A2A2A0D0A000000005541525400
:105160002053454E443A6D5C725C6E2020204D61A8
:10517000676E65746963206669656C642063616C41
:105180006962726174696F6E2C4166746572206326
:10519000616C6962726174696F6E2073656E643AE6
:1051A000202020655C725C6E202020746F20696E68
:1051B0006469636174652074686520656E640D0AB6
:1051C000000000000D0A2A2A2A2A2A2A2A2A2A2A24
:1051D0002A2A2A2A2A2A2A2A2A2A2A2A2A2A09205A
:1051E0005749545F53444B5F44454D4F092A2A2A7F
:1051F0002A2A2A2A2A2A2A2A2A2A2A2A2A2A2A2A0F
:105200002A2A2A2A2A00000028520008000000202A
:1052100070000000862A00089852000870000020E4
:10522000480B0000962A0008000000000000000063
:10523000000000000000000001020304010203045A
:10524000060708090204060800000000000000002C
:10525000000000000000000000000000000000004E
:105260000100FF000000000000000000000000003E
:10527000000000000000000000000000FF0000002F
:10528000000000000000000000000000000000001E
:08529000000000000000000016
:04000005080000ED02
:00000001FF
