:020000040800F2
:100000006809002001010008810F0008450C000864
:100010007D0F0008BB0A0008731A000800000000EA
:10002000000000000000000000000000B9150008FA
:10003000BF0A00080000000009100008CD160008E3
:100040001B0100081B0100081B0100081B01000820
:100050001B0100081B0100081B0100081B01000810
:100060001B0100081B0100081B0100081B01000800
:100070001B0100081B0100081B0100081B010008F0
:100080001B0100081B0100081B0100081B010008E0
:100090001B0100081B0100081B0100081B010008D0
:1000A0001B0100081B0100081B0100081B010008C0
:1000B0001B0100081B0100081B0100081B010008B0
:1000C0001B0100081B0100081B0100081B010008A0
:1000D0001B0100086D1700081B0100081B01000828
:1000E0001B0100081B0100081B010008DFF80CD0F1
:1000F00000F02EFB004800470D340008680900207E
:100100000648804706480047FEE7FEE7FEE7FEE7B1
:10011000FEE7FEE7FEE7FEE7FEE7FEE70D17000855
:10012000ED000008F0B480EA0102D40F4200B2EB07
:10013000410F02D20246084611464A0042D0C30D82
:10014000DDB2C1F3C752AD1A202D35DAC1F3160165
:1001500041F4000204B15242C5F1200602FA06F150
:100160002A411044B3EBD05F23D0C4B1012DA0EBE2
:10017000C35009DCF0BC4FF0004202EAC352DBB2CC
:1001800000F5000000F0FEB8400000F1807000EBC8
:10019000C350A0F1807040EAD170490009E04908DD
:1001A00041EAC071A0EBC35000F50000400800EB2D
:1001B000C350F0BC00F0DDB86142012202EB410106
:1001C000001BF6E7F0BC704781F00041AAE780F021
:1001D0000040A7E780EA010210B502F000434000AA
:1001E00022D04A001FD0010E01EB1261C0F356006D
:1001F000C2F3560240F4000042F40002A0FB0220C9
:1002000000047F39140400D0401C50EA124001D48D
:100210004000491EC2B20C0604EBD010401C40083E
:10022000802A02D003E0002010BD20F00100002948
:1002300000DA0020184310BD30B480EA010202F059
:10024000004530F0004221F0004013D090B1C30DC2
:10025000D40DC2F31601C0F31600E41A41F40001F4
:1002600040F400027D34914201D3641C00E0490057
:10027000002C02DA30BC002070474FF4000000234D
:10028000914201D3891A034340084FEA4101F7D153
:1002900051B1914202D14FF0004105E002D24FF03E
:1002A000010101E06FF0010103EBC450284430BCB0
:1002B00000F05FB896230022114600F063B800F00A
:1002C000004230F000400AD0C10D01F56071C0F36A
:1002D000160042EA0151C20840071143704700204E
:1002E0000146704730B50B4601460020202201240C
:1002F00009E021FA02F59D4205D303FA02F5491BF4
:1003000004FA02F52844151EA2F10102F1DC30BD09
:100310002DE9F05F0546002092469B46884606463A
:10032000814640241BE0284641464746224600F0CD
:1003300030FA53465A46C01A914110D31146184616
:10034000224600F017FA2D1A67EB01084F462246A5
:100350000120002100F00EFA17EB00094E41201E8B
:10036000A4F10104DFDC484631462A464346BDE895
:10037000F09F0029A8BF7047401C490008BF20F02B
:100380000100704710B4B0FA80FC00FA0CF050EA9B
:10039000010404BF10BC704749B1CCF1200421FA1C
:1003A00004F411FA0CF118BF012121430843A3EB17
:1003B0000C01CB1D4FEA00614FEA102042BF002024
:1003C00010BC704700EBC35010440029A4BF10BC00
:1003D0007047401C490008BF20F0010010BC704766
:1003E0002DE9FE4F804681EA0300C00F0C460090C5
:1003F00021F0004123F00045B8EB0200A94105D2ED
:100400004046214690461C460B46024623F00040DB
:10041000104347D0270DC7F30A00C3F30A510290D7
:10042000401A019040286BDAC3F3130040F4801B9C
:100430000098924620B10023D2EB030A63EB0B0B2A
:1004400001985946C0F14002504600F093F9064623
:100450000D4650465946019A00F0ABF910EB0800E2
:100460006141002487EA115284EAE7731A4340D0BD
:10047000009A62B3019A012A4FEA075215DC001B69
:1004800061EB02014FF0004202EA0752CDE900425F
:10049000001C41F5801132462B4600F0ABF903B049
:1004A000BDE8F08F40462146F9E7001B61EB0201F1
:1004B000001C41F5801300185B412018A2F50017BD
:1004C00047EB030140EAD570B6196D4111E06D08A4
:1004D0004FEA360645EAC0754FEA0752001B61EB4A
:1004E0000201001C41F5801149084FEA3000001953
:1004F000514132462B4603B0BDE8F04F00F06BB9D6
:100500000098012240000023D0EB020263EBE0736D
:10051000009821464FEAE074B8EB000061EB04015B
:10052000E9E783F000435BE781F0004158E72DE9FC
:10053000FE4F81EA030404F0004421F000410094DE
:100540004FF0000B23F0004350EA01045ED052EA62
:1005500003045BD0C3F30A54C1F30A552C44A4F23C
:10056000F3340194A0FB0254C1F3130141F4801150
:10057000C3F3130343F4801301FB024400FB034E57
:10058000840A970A44EA815447EA8357A4FB076820
:1005900002958D0A05FB07854FEA932C04FB0C544A
:1005A0002705029D4FEA065847EA1637B5EB0805BE
:1005B0006EEB070C870E920E47EA811742EA831210
:1005C000A7FB0201B6EB0B0164EB00042B0D43EA21
:1005D0000C335E1844EB1C50DA465146E7FB02012F
:1005E000C5F313044FEA0B3343EA14534FEA0432C2
:1005F000019C43EA0603A4F10C040294009CCDE99B
:1006000000B400F0F7F803B0BDE8F08F0020014619
:10061000F9E72DE9F04D81EA030404F0004B21F0E5
:10062000004514464FF0000A23F0004150EA05024D
:1006300020D054EA01021DD0C5F30A570246C5F383
:100640001303C1F31300C1F30A5640F4801543F4B9
:100650008013A7EB0608101BD64608F2FD3873EB93
:10066000050002D308F1010801E092185B41B8F1DE
:10067000000F03DA00200146BDE8F08D00204FF4A2
:100680008011064684460EE0171B73EB050705D361
:10069000121B63EB050306434CEA010C49084FEAC1
:1006A000300092185B4150EA0107EDD152EA030095
:1006B00012D082EA040083EA0501084305D0101B2A
:1006C000AB4106D20122002306E000224FF0004396
:1006D00002E06FF0010253101AEB06004CEB0851D8
:1006E00010EB0A0041EB0B01BDE8F04D00F073B8D0
:1006F000C1F30A52C1F3130140F2FF3341F48011F8
:100700009A4202DA00200146704740F233439A428F
:10071000A2F2334202DC524200F03BB800F02AB8A9
:1007200030B5041E71F1000404DB4FF00044404278
:1007300064EB0101141E73F1000405DB1C464FF04D
:100740000043524263EB0403994208BF904230BD1C
:10075000064C074D06E0E06840F0010394E807000E
:1007600098471034AC42F6D3FFF7C4FC3038000889
:1007700050380008202A04DB203A00FA02F1002059
:1007800070479140C2F1200320FA03F319439040CF
:100790007047202A04DB203A21FA02F0002170473A
:1007A00021FA02F3D040C2F12002914008431946D9
:1007B0007047202A06DBCB17203A41FA02F043EAC1
:1007C000E07306E041FA02F3D040C2F1200291400A
:1007D00008431946704710B5141E73F1000408DA77
:1007E000401C41F1000192185B411A4301D120F0F5
:1007F000010010BD2DE9F04D92469B4611B1B1FAB2
:1008000081F202E0B0FA80F220329046FFF7B2FFA8
:1008100004460F4640EA0A0041EA0B0153465A4695
:10082000084313D0114653EA010019D0C8F1400221
:100830005046FFF7AEFF05460E4650465946424623
:10084000FFF798FF084305D0012004E02046394611
:10085000BDE8F08D0020054346EAE0762C4337439F
:100860000A986305E40AA0EB08000022FD0A44EAA6
:1008700047540A3002D500200146E9E70105101966
:100880006941DDE9084500196941BDE8F04DA2E77D
:1008900000B587B00121480200F0D4FB01210420FB
:1008A00000F0D0FB4FF4004000F0B0FB00208DF8CA
:1008B0001B000120ADF8180003208DF81A0006A9CE
:1008C000194800F0FDF8052301220021174800F027
:1008D00083F80020019004904FF4602003900020E2
:1008E0008DF809008DF8080001208DF8140001A989
:1008F0000E4800F049F801210C4800F019F80B48A7
:1009000000F0C6F800BF094800F034F80128FAD01A
:10091000064800F0CDF800BF044800F014F80128A4
:10092000FAD007B000BD00000008014000240140DB
:1009300021B1826842F00102826003E0826822F005
:10094000010282607047014600208A6802F00402BA
:100950000AB1012000E0002070470146C86C80B257
:1009600070470246002013680B400BB1012000E0E5
:1009700000207047014600208A6802F008020AB190
:10098000012000E00020704730B50246002000231F
:1009900050680F4C20400D790C6844EA0524204330
:1009A000506090680B4C2040D1E902542C434D79A3
:1009B00044EA450420439060D06A20F470000C7C27
:1009C000641EE4B2234340EA0350D06230BD00000D
:1009D000FFFEF0FFFDF7F1FFF0B504460D460020E5
:1009E0000021092D11DDE068A5F10A0606EB460796
:1009F000072606FA07F18843A5F10A0606EB460624
:100A000003FA06F10843E0600CE0206905EB4507B6
:100A1000072606FA07F1884305EB450603FA06F1B7
:100A200008432061072A0FDA606B561E06EB860723
:100A30001F2606FA07F18843561E06EB860605FABE
:100A400006F10843606322E00D2A0FDA206BD61FFF
:100A500006EB86071F2606FA07F18843D61F06EB2A
:100A6000860605FA06F10843206310E0E06AA2F169
:100A70000D0606EB86071F2606FA07F18843A2F14A
:100A80000D0606EB860605FA06F10843E062F0BDA6
:100A9000816841F008018160704721B1826842F4A9
:100AA000A002826003E0826822F4A00282607047A4
:100AB000816841F004018160704700BFFEE7704724
:100AC0002DE9F041024600250026002000230024E5
:100AD000002791F803C00CF00F0591F803C00CF04B
:100AE000100CBCF1000F03D091F802C04CEA0505D0
:100AF00091F800C0BCF1000F31D0146800202BE049
:100B00004FF0010C0CFA00F3B1F800C00CEA030638
:100B10009E4220D183004FF00F0C0CFA03F7BC4328
:100B200005FA03FC4CEA040491F803C0BCF1280F59
:100B300006D14FF0010C0CFA00FCC2F814C00AE018
:100B400091F803C0BCF1480F05D14FF0010C0CFA2D
:100B500000FCC2F810C0401C0828D1D31460B1F8C2
:100B600000C0BCF1FF0F34DD546800202EE000F11E
:100B7000080C4FF0010808FA0CF3B1F800C00CEAB9
:100B800003069E4221D183004FF00F0C0CFA03F7AD
:100B9000BC4305FA03FC4CEA040491F803C0BCF121
:100BA000280F05D100F1080C08FA0CF8C2F81480DF
:100BB00091F803C0BCF1480F07D100F1080C4FF0C9
:100BC000010808FA0CF8C2F81080401C0828CED39F
:100BD0005460BDE8F08141617047016170470000D9
:100BE00010B501210648FFF758FF00BF0221044855
:100BF000FFF7B7FE0028F9D00148FFF7AEFE10BDA1
:100C00000024014070B504462046FFF753FB05461B
:100C10000149FFF7DFFA70BD6740533A70B50446EB
:100C200000212046FFF7D0FA06460449FFF704FBEF
:100C300005460349FFF7CEFA70BD00000000A04052
:100C40000000C84200BFFEE710B5002318E000F026
:100C5000BFF8024602F01F02052A04D00B2A04D076
:100C60000D2A06D103E0052405E00B2010BD0D2060
:100C7000FCE7FF2400BF00BF052C00D102E05B1C95
:100C8000402BE4D900BF00BF00F0A2F80028FBD041
:100C90001046EBE700B5034640F6FF7200E0521E37
:100CA00000F096F8984201D0002AF8D10AB9FF2046
:100CB00000BD0020FCE7000070B5002500F03CFA04
:100CC000044602480470204670BD00003700002032
:100CD0002DE9F04104460F46154600264FF0FF0867
:100CE0004FF480511448FFF776FFFF223946112058
:100CF00000F088F80020FFF7CDFF90B9FE20FFF745
:100D0000C9FF70B900BF04E000F062F82070641CF5
:100D1000761CAE42F8D300F05BF800F059F84FF0C3
:100D200000084FF480510448FFF757FFFF2000F000
:100D300017F94046BDE8F081000C01402DE9F0476D
:100D400004460D4616460027B946B8464FF0FF0A3E
:100D50004FEA56294FF480511C48FFF73CFF25E02D
:100D600005EB0801FF22112000F04CF80020FFF7EE
:100D700091FF10B1FF20BDE8F087FE20FFF78AFF4A
:100D800090B9002704E000F023F82070641C7F1C59
:100D9000B7F5007FF7D308F5007800F019F800F0F8
:100DA00017F84FF0000A01E04FF0FF0AB9F1000018
:100DB000A9F10109D4D14FF480510448FFF70DFF88
:100DC000FF2000F0CDF85046D5E70000000C0140B0
:100DD00000BF0B48008800F002000028F9D0FF2077
:100DE0000749091D088000BF0548008800F0010080
:100DF0000028F9D00248001D0088C0B270470000EA
:100E0000083800403CB504460B461546002244F025
:100E100040008DF80000180E8DF80100180C8DF8B8
:100E20000200180A8DF80300D8B28DF804008DF87E
:100E3000055000BF04E01DF8020000F091F8521CBC
:100E4000062AF8D33CBD00002DE9F04104460F46C8
:100E5000154600264FF0FF084FF480511748FFF762
:100E6000BAFEFF2239461820FFF7CCFF0020FFF71B
:100E700011FFC0B9FF2000F073F8FE2000F070F8F9
:100E800000BF04E0207800F06BF8641C761CAE42D2
:100E9000F8D3FFF79DFFFFF79BFFFFF7D5FE05286F
:100EA00001D14FF000084FF480510448FFF795FE40
:100EB000FF2000F055F84046BDE8F081000C0140ED
:100EC0002DE9F04704460D4616460027B946B846B8
:100ED0004FF0FF0A4FEA56294FF480511F48FFF7A1
:100EE0007AFE2BE005EB0801FF221820FFF78AFFAE
:100EF0000020FFF7CFFE10B1FF20BDE8F087FF20F4
:100F000000F02EF8FE2000F02BF8002704E02078F7
:100F100000F026F8641C7F1CB7F5007FF7D308F5B6
:100F20000078FFF755FFFFF753FFFFF78DFE052809
:100F300002D14FF0000A01E04FF0FF0AB9F10000C2
:100F4000A9F10109CED14FF480510448FFF745FEC5
:100F5000FF2000F005F85046CFE70000000C0140EC
:100F600000BF0549098801F002010029F9D00249B2
:100F7000091D0880704700000838004000BFFEE7E8
:100F80007047000070B5002100230F22C47804B31D
:100F9000154C246804F4E064C4F5E064210AC1F14E
:100FA0000403CA40447804FA03F1847814402143CE
:100FB00009010E4C0678A155047804F01F050124A0
:100FC000AC4005786D11AD0005F1E025C5F8004194
:100FD00009E0047804F01F050124AC40044D0678B4
:100FE000761145F8264070BD0CED00E000E400E00D
:100FF00080E100E002490143024A116070470000AD
:101000000000FA050CED00E07047000001460020EA
:10101000034A506820F44040084350607047000085
:101020000010024029B1064AD2690243044BDA613A
:1010300004E0034AD2698243014BDA617047000041
:101040000010024029B1064A92690243044B9A619A
:1010500004E0034A92698243014B9A6170470000A1
:101060000010024030B500210022002400232D4D45
:101070006D6805F00C0121B1042905D0082923D1A0
:1010800005E0294D056022E0274D05601FE0254D54
:101090006D6805F47012234D6D6805F480340225E7
:1010A00005EB92421CB9214D554305600BE01D4DE7
:1010B0006D6805F400351DB11C4D5543056002E017
:1010C000194D5543056002E0174D056000BF00BF94
:1010D000144D6D6805F0F0010909154D6B5C05684C
:1010E000DD4045600F4D6D6805F4E061090A104D63
:1010F0006B5C4568DD4085600A4D6D6805F46051A4
:10110000C90A0B4D6B5C4568DD40C560054D6D68D7
:1011100005F44041890B074D6B5CC568B5FBF3F5E1
:10112000056130BD0010024000127A0000093D0048
:101130000C0000201C0000207CB500F0EFF84FF4FC
:1011400080517448FFF747FD002601E0701C86B20D
:10115000B6F5706FFADB002604E0FF2000F0E8F936
:10116000701C86B20A2EF8DB002500BF95220021F4
:10117000084600F069F90446681C85B2012C01D0CC
:101180003C2DF3DB3C2D01D101207CBD87224FF4A7
:10119000D571082000F096F90446052C4FD10120A6
:1011A0005D49087001035B48FFF717FDFF2000F061
:1011B000BFF9002500BF00221146372000F044F996
:1011C0000446012C01D02046DFE7002211462920E9
:1011D00000F03AF90446681C85B20CB13C2DEADBFC
:1011E0003C2D13D1002500BF00221146012000F044
:1011F0002BF90446681C85B20CB13C2DF4DB3C2D68
:1012000001D10120C1E700204349087000F0EEF849
:10121000FF2000F08DF9952200213B2000F014F909
:1012200004460CB12046B0E795224FF4007110201F
:1012300000F00AF90446002C6AD02046A5E7012CEC
:1012400066D1FF2000F074F98DF80000FF2000F057
:101250006FF98DF80100FF2000F06AF98DF80200A7
:10126000FF2000F065F98DF8030021032948FFF7FE
:10127000B4FCFF2000F05CF9002500BF00221146FD
:10128000372000F0E1F80446012C01D020467CE72D
:1012900000224FF08041292000F0D6F804463C2D72
:1012A00001DD204671E7002CE8D1002211463A20EA
:1012B00000F008F904460CB1204666E7FF2000F074
:1012C00037F98DF80000FF2000F032F98DF80100A9
:1012D000FF2000F02DF98DF80200FF2000F028F922
:1012E0008DF803004FF480510A48FFF776FCFF2089
:1012F00000F01EF99DF8000000F0400018B1042035
:101300000549087002E002200349087000F06EF8F9
:1013100020463AE7000C01402000002000B587B0CD
:1013200001210D20FFF78EFE01218803FFF77AFED1
:101330004FF46040ADF8180003208DF81A00182013
:101340008DF81B0006A92748FFF7BAFB4FF4804031
:10135000ADF8180003208DF81A0048208DF81B0006
:1013600006A92048FFF7ACFB4FF48050ADF81800F9
:1013700003208DF81A0010208DF81B0006A91948CB
:10138000FFF79EFB4FF480511648FFF726FC002123
:10139000154800F0E7F80020ADF804004FF4827023
:1013A000ADF806000020ADF808000220ADF80A00F4
:1013B0000120ADF80C004002ADF80E003820ADF869
:1013C00010000020ADF812000720ADF8140001A9AC
:1013D000054800F0D3F80121034800F0C3F807B036
:1013E00000BD0000000C01400038004000B585B091
:1013F0000021144800F0B6F80020ADF800004FF4CA
:101400008270ADF802000020ADF804000220ADF8B3
:1014100006000120ADF808004002ADF80A000820DF
:10142000ADF80C000020ADF80E000720ADF810005C
:101430006946044800F0A2F80121024800F092F841
:1014400005B000BD003800402DE9F04105460C46CE
:1014500016460027FF2000F06BF84FF48051184823
:10146000FFF7B9FB45F0400000F062F8200E00F0F5
:101470005FF8C4F3074000F05BF8C4F3072000F006
:1014800057F8E0B200F054F8304600F051F804E0AC
:10149000781CC7B23C2F00DD05E0FF2000F048F8C3
:1014A0008046FF28F4D000BF4FF480510448FFF776
:1014B00094FBFF2000F03CF84046BDE8F0810000BE
:1014C000000C01402DE9F04105460C461646002768
:1014D000FF2000F02DF84FF480511448FFF77BFBFC
:1014E00045F0400000F024F8200E00F021F8C4F38D
:1014F000074000F01DF8C4F3072000F019F8E0B22F
:1015000000F016F8304600F013F804E0781CC7B27B
:101510003C2F00DD05E0FF2000F00AF88046FF28A0
:10152000F4D000BF4046BDE8F0810000000C01404F
:10153000014600BF0A48008800F002000028F9D0E8
:101540000748001D018000BF0548008800F0010029
:101550000028F9D00248001D0088C0B27047000082
:101560000838004021B1028842F04002028004E0C5
:1015700002884FF6BF731A400280704710B50022F0
:10158000028802F441520B884C8823438C88234301
:10159000CC8823430C8923434C8923438C892343E0
:1015A000CC8923431A430280838B4FF2FF7423407C
:1015B00083830B8A038210BD704710B500F002F8D8
:1015C00010BD00000CB50020019000903348006869
:1015D00040F480303149086000BF3048006800F4B2
:1015E000003000900198401C0190009818B90198B3
:1015F000B0F5A06FF1D12948006800F4003010B1B7
:101600000120009001E0002000900098012843D1C3
:101610002348006840F0100021490860084600682F
:1016200020F0030008600846006840F002000860EF
:101630001A484068194948600846406848600846AA
:10164000406840F4806048600846406820F47C10A0
:1016500048600846406840F4E81048600846006862
:1016600040F08070086000BF0C48006800F0007017
:101670000028F9D00948406820F003000749486075
:101680000846406840F00200486000BF03484068D8
:1016900000F00C000828F9D10CBD00000010024039
:1016A00000200240042808D14FF0E021096941F0F0
:1016B00004014FF0E022116107E04FF0E0210969D9
:1016C00021F004014FF0E0221161704770470000E3
:1016D00010B504466FF00400FFF7E4FFE11704EBD8
:1016E0005171C1F3C701074A11701046007800EB31
:1016F0004001C1EBC0104FF6FF7101EAC000024982
:10170000088010BD380000203A00002010B51348B2
:10171000006840F00100114908600846406810491F
:1017200008400E494860084600680E4908400B49C9
:1017300008600846006820F4802008600846406879
:1017400020F4FE0048604FF41F008860FFF735FF6B
:101750004FF000600449086010BD00000010024016
:101760000000FFF8FFFFF6FE08ED00E010B540F2C4
:1017700025511D4800F0B8F810B31B4800F070F96F
:10178000C4B21A48008800F40040C8B9174800885D
:1017900000F4804060B10A2C03D000201349088077
:1017A00020E01248008840F400401049088019E009
:1017B0000D2C06D10D48008840F480400B4908806C
:1017C00010E00A480088C0F30D0009490C5407488E
:1017D0000088401C0549088008460088C72801DDAC
:1017E0000020088010BD0000003801403C000020AF
:1017F000A004002010B586B0044601210420FFF7A4
:1018000021FC01218803FFF71DFC4FF40070ADF8A7
:10181000140003208DF8160018208DF8170005A974
:101820001E48FFF74DF94FF48060ADF81400042016
:101830008DF8170005A91948FFF742F90194002017
:10184000ADF80800ADF80A00ADF80C00ADF81000D6
:101850000C20ADF80E0001A9114800F095F8012107
:101860000F4800F028F840210D4800F01BF8012235
:1018700040F225510A4800F061F825208DF800005B
:1018800003208DF801008DF8020001208DF803007F
:101890006846FFF777FB06B010BD00000008014066
:1018A0000038014001F40072B2F5007F00D100BFA2
:1018B000CA430280704721B1828942F4005282817A
:1018C00004E082894DF6FF731A4082817047024618
:1018D0000020B1F5007F00D100BF13880B400BB191
:1018E000012000E00020704770B50246002400236C
:1018F0000025002040F66A16B14200D100BFC1F3B6
:10190000421501F01F03012606FA03F3012D02D14F
:101910009689334006E0022D02D1168A334001E059
:10192000968A33400C12012606FA04F416883440D5
:1019300013B10CB1012000E0002070BDF0B50346EA
:10194000002400260025002040F66A17B94200D185
:1019500000BF1846C1F3421401F01F06012707FA21
:1019600006F5012C01D10C3004E0022C01D110301D
:1019700000E014301AB107682F43076002E00768DF
:10198000AF430760F0BD00002DE9F04786B0054683
:101990000E460024A24600BFA1460027B08900B130
:1019A00000BF2F462C8A4CF6FF700440F088044399
:1019B0002C82AC894EF6F3100440B088318908437C
:1019C000718908430443AC81AC8A4FF6FF40044060
:1019D000B0890443AC8201A8FFF744FB1F4887424B
:1019E00002D1DDF810A001E0DDF80CA0A88900F418
:1019F000004040B10AEBCA0000EB0A103168490010
:101A0000B0FBF1F807E00AEBCA0000EB0A103168FE
:101A10008900B0FBF1F86420B8FBF0F00401200964
:101A2000642101FB1089A88900F4004040B13220F4
:101A300000EBC900B0FBF1F000F00700044308E040
:101A4000322000EB09106421B0FBF1F000F00F0030
:101A500004432C8106B0BDE8F08700000038014047
:101A600001468888C0F308007047C1F308028280ED
:101A7000704700BFFEE700000FB4054B10B503A987
:101A8000044A029800F0EEF810BC5DF814FB000068
:101A900001330008400000200FB4084B10B504A922
:101AA00002AA039800F0DEF8044602A9002000F024
:101AB00070FC204610BC5DF814FB00009323000866
:101AC00002E008C8121F08C1002AFAD17047704707
:101AD000002001E001C1121F002AFBD17047000065
:101AE0002DE9FF5F82B00021DDE90430020DDDF851
:101AF00040B0034318D044F61050A2F2FF324243E4
:101B00001514119801281FD0A5EB0B00401C5FEAAB
:101B1000000A4FF000064E4FDFF83891B0465046AD
:101B200015D5CAF1000413E0119801244AA3012835
:101B300001D16FEA0B010298119AC0E90031C0E9A6
:101B4000024206B0BDE8F09FCBF10000DFE704469B
:101B50000021404A491842EB0450CDE9001012E040
:101B6000E00707D032463B4640464946FEF7DFFCD9
:101B70008046894632463B4610461946FEF7D7FC5A
:101B800006460F466410002CEAD1DDE90401DDE9C8
:101B90000023BAF1000F06DAFEF7C9FC42464B46B5
:101BA000FEF7C5FC05E0FEF734FD42464B46FEF766
:101BB00030FD04460E460022284BFEF7B1FD03D847
:101BC0004FF0FF30014607E00022254B204631460A
:101BD000FEF706FCFEF78CFD102409E0002C0ADB62
:101BE0000A220023FEF794FB039B30321A55641E31
:101BF00050EA0102F2D1641C039AC4F111031444A7
:101C0000119A012A03D0012208430DD10AE00843AA
:101C100004D000204FF0110B119072E7A3EB0B05DD
:101C20006D1E0DE05B4504DD4FF0000205F101057E
:101C300004E003DA4FF00002A5F10105002AECD020
:101C400002981199C0E90231C0E9004579E7000026
:101C5000000014400000F03F300000000000F0439E
:101C60000000E03F2DE9FF4F95B09B4689460646B0
:101C700000250FE2252877D100242746F84A0121C4
:101C8000059400E0044316F8013F203B01FA03F0FD
:101C90001042F7D130782A2811D06FF02F03307816
:101CA000A0F13002092A16D8059A44F0020402EB8A
:101CB000820203EB42021044761C0590EFE759F8CC
:101CC000042B0592002A03DA504244F40054059094
:101CD00044F00204761C30782E2816D116F8010F35
:101CE00044F004042A280DD06FF02F023078A0F1C0
:101CF0003003092B09D807EB870302EB4303C7180E
:101D0000761CF3E759F8047B761C30786C280FD0EA
:101D100006DC4C2817D068280DD06A2814D104E0BE
:101D2000742810D07A280FD10DE044F400140AE092
:101D300044F4801401E044F440147278824202D1E9
:101D400004F58014761C761C307866280BD013DCE2
:101D5000582877D009DC002875D04528F6D04628C9
:101D6000F4D047281AD19DE118E0632835D06428C3
:101D700079D0652812D195E1702873D008DC6728E6
:101D8000F1D069286FD06E280DD06F2806D1B5E04C
:101D900073282CD0752875D0782874D05A46179996
:101DA00090476D1C75E1C4F30250022809D0032846
:101DB0000DD0D9F8001004280DD00D6009F10409E8
:101DC00067E1D9F80010EA17C1E90052F6E7D9F83F
:101DD00000100D80F2E70D70F0E719F8041B8DF884
:101DE000001000208DF80100EA46012003E059F8B8
:101DF00004AB4FF0FF3061074FF0000102D40DE05B
:101E000008F101018846B9420FDA8045F8DB1AF87B
:101E100008100029F4D108E008F101018846814248
:101E2000FADB1AF808100029F6D105985B46A0EBFA
:101E3000080721463846179A00F094FA284400EB28
:101E4000080507E04DE029E10DE01AF8010B5A46BC
:101E500017999047B8F10108F7D25B4621463846FA
:101E6000179A13E142E00A220092C4F302524FF0A3
:101E7000000A022A08D059F804CB032A4FEAEC7171
:101E80000AD00DE029E02AE009F1070121F007025C
:101E9000F2E802C1914609E00FFA8CFC4FEAEC71BE
:101EA000042A03D14FFA8CFC4FEAEC71002907DABF
:101EB0000A460021DCF1000C61EB02012D2202E058
:101EC000220504D52B228DF80420012203E0E2072D
:101ED00001D02022F7E7904659E00A2102E01022C3
:101EE0000DE010214FF0000A00910BE010224FF09E
:101EF000000A44F004040827009203E008224FF08F
:101F0000000A0092C4F30252022A05D059F804CB09
:101F10000021032A08D009E009F1070121F0070296
:101F2000F2E802C1914605E01FFA8CFC042A01D1B7
:101F30000CF0FF0C4FF00008220728D5702806D0BF
:101F4000009B83F0100353EA0A0305D00EE0402201
:101F50008DF80420012208E05CEA010206D030225C
:101F60008DF804208DF8050002229046009B83F036
:101F7000080353EA0A030AD15CEA010201D16207AD
:101F800005D530228DF804204FF001087F1E582817
:101F900004D034A003900EA802900DE036A0F9E71B
:101FA00053466046009AFEF7B3F984460398825C74
:101FB0000298401E029002705CEA0100F0D1029883
:101FC00006A9081A00F1200A600702D524F480341B
:101FD00000E00127574502DDA7EB0A0000E00020E2
:101FE00000EB0A01009005984144401A0590E00377
:101FF00006D45B462146179A059800F0B3F90544CC
:10200000002706E001A85A46C05D179990476D1C4D
:102010007F1C4745F6DBE0030CD55B462146179A4B
:10202000059800F09FF9054404E030205A461799BE
:1020300090476D1C0099481E00900029F5DC08E0CF
:10204000029802995A460078491C029117999047C4
:102050006D1CBAF10001AAF1010AF1DC65E1000092
:10206000092801003031323334353637383961626E
:102070006364656600000000303132333435363732
:1020800038394142434445460000000000F058F909
:102090000544761C307800287FF4ECAD19B0284652
:1020A000BDE8F08F620700D4062709F1070222F08D
:1020B000070CFCE80223E14603F000485FEA080C45
:1020C00002D00FF2702C0DE05FEA045C02D50FF233
:1020D000682C07E05FEAC47C02D00FF2602C01E0BC
:1020E000AFF2700C4FF0FF3823F00043CDF850C032
:1020F00065280CD006DC452809D046281DD0472885
:102100003DD13DE0662818D067287ED138E0002117
:10211000112F01DB112000E0781CCDE9000106A998
:102120000EA8FFF7DDFCDDE90F010E9A03910021F7
:10213000009207F1010A04914DE04FF00040009732
:10214000CDE9011006A90EA8FFF7CAFCDDE90F02D0
:1021500003920E9B11990022DDF80CA000930492CB
:1021600011B9791C00EB010AB7EB0A0004D4C0F1E5
:10217000FF3007F1010A0490AAEB0700019044E048
:10218000012F00DA01270021112F01DD112000E0CD
:102190003846CDE9000106A90EA8FFF7A1FCDDE94C
:1021A0000F010E9A0391002104910092BA46210773
:1021B0000CD40399514500DA8A46BAF1010F05DDC6
:1021C000009AAAF10101515C302908D0B84202DA24
:1021D00010F1040F06DA0121CDE9011015E0AAF192
:1021E0000101E9E7002805DC049901440491AAEB08
:1021F000000102E0411C514500DD8A460499401A65
:10220000401C01904FF000400290200704D4019838
:10221000504501DBCDF8048000208DF84F00029876
:102220000DF14F07B0F1004F25D02B200E900298F2
:102230004FF0020800280CDA404202902D200E9048
:1022400007E00A210298FEF74DF83031029007F8B6
:10225000011DB8F10001A8F10108F2DC0298002884
:10226000EFD1791E0E980870307800F0200040F011
:10227000450007F8020D12A8C01B00F107081498CA
:10228000007800B1012000EB0A01019801EBE07138
:1022900005984144401A401E0590E00306D45B4671
:1022A0002146179A059800F05DF8054414980078C7
:1022B00018B15A46179990476D1CE00324D55B4628
:1022C0002146179A059800F04DF805441CE0049843
:1022D000002807DBDDE90301884203DD0098405C4C
:1022E000179901E0179930205A469047049805F154
:1022F0000105401C04900198401E019004D12E203D
:102300005A46179990476D1CBAF10001AAF1010ACB
:10231000DDDC05E017F8010B5A46179990476D1C54
:10232000B8F10001A8F10108F4DC5B462146179AD8
:102330000598ABE62D0000002B00000020000000F7
:102340002DE9F041044600251E461746880404D4B2
:1023500005E039462020B0476D1C641EF9D528469B
:10236000BDE8F0812DE9F041044600251E46904667
:10237000C80301D5302700E02027880404D505E0F4
:1023800041463846B0476D1C641EF9D52846BDE865
:10239000F0810A68531C0B601070704770B50446DA
:1023A0000D46607801232A4604F1340100F0C2FC96
:1023B00008B1032070BD94F8321294F8330241EA58
:1023C00000204AF65521884201D00220F2E794F815
:1023D0006D00010694F86C0041EA004194F86B002E
:1023E00041EA002094F86A10084320F07F400E492B
:1023F000884201D10020DDE794F88900010694F8B5
:10240000880041EA004194F8870041EA002094F8EE
:102410008610084320F07F400349884201D1002004
:10242000C8E70120C6E7000046415400024600E02C
:10243000521C107810B110788842F9D1107870478A
:102440002DE9F74F86B00698006800900098007854
:1024500030380590059809280AD8009840783A281D
:1024600006D10098801C009006990098086002E050
:10247000CC4800780590059818B10B2009B0BDE84C
:10248000F08FC949059851F82040079804600CB9AD
:102490000C20F3E7207878B1607800F083FC804668
:1024A00008F0010040B9089820B108F0040008B114
:1024B0000A20E3E70020E1E7002020700598607023
:1024C000607800F01DFC804608F0010008B1032090
:1024D000D4E7089820B108F0040008B10A20CDE73D
:1024E0004FF0000A51462046FFF758FF0546012DE0
:1024F00013D104F5F977387978B1F87A0106B87A0A
:1025000041EA0041787A41EA0020397A40EA010A3A
:1025100051462046FFF742FF0546032D01D1012019
:10252000ACE70DB10D20A9E73F20015D94F8400014
:1025300041EA0020B0F5007F01D00D209EE74A203F
:10254000015D94F84B0041EA0029B9F1000F0ED16A
:1025500094F85B00010694F85A0041EA004194F8AF
:10256000590041EA002094F8581040EA0109C4F8E3
:1025700020904420065DE670012E03D0022E01D08B
:102580000D207BE709FB06F94120005D0646A0709F
:1025900016B1701E304008B10D206FE74520015D77
:1025A00094F8460041EA00202081207A00F00F00D4
:1025B00008B10D2062E74720015D94F8480041EA28
:1025C00000200490049870B994F85700010694F81C
:1025D000560041EA004194F8550041EA002094F881
:1025E0005410084304904220015D94F8430041EAEE
:1025F00000200190019808B90D203FE70198484458
:10260000218900EB11100390DDE90301814201D221
:102610000D2033E7DDE90310401AA178B0FBF1FB90
:10262000BBF1000F01D10D2028E7012540F6F6701F
:10263000834500D302254FF6F670834500D303256A
:102640000BF10200E06103985044E06201985044AD
:102650006062032D16D1208908B10D200EE794F891
:102660006300010694F8620041EA004194F86100B9
:1026700041EA002094F860100843A062E0698000FD
:10268000029014E0208908B90D20F7E6606A4844FA
:10269000A062022D02D1E069400007E0207F00F037
:1026A0000100E16901EB410100EB51000290216A58
:1026B000029800F2FF10B1EB502F01D20D20DDE6A1
:1026C0004FF0FF3020610020E060032D5CD160718D
:1026D00094F8641094F8650041EA00205044606169
:1026E0006078012304F13401626900F023FBE8BB48
:1026F00094F8321294F8330241EA00204AF6552148
:10270000884241D13720005D01063620005D41EA54
:1027100000413520005D41EA002094F83410084360
:102720002249884230D194F81B02010694F81A021B
:1027300041EA004194F8190241EA002094F8181285
:1027400008431B4988421FD194F82302010694F8DC
:10275000220241EA004194F8210241EA002094F863
:1027600020120843E06094F81F0200E00CE001062C
:1027700094F81E0241EA004194F81D0241EA00204B
:1027800094F81C120843206125700A480088401CF8
:1027900080B208490880E080002020632071A06199
:1027A00000BF6BE63600002030000020525261412D
:1027B00072724161340000200246891ED069801E79
:1027C000884201D8002070479378D06A01FB03004B
:1027D000F9E72DE9F04704468946B9F1000F06D123
:1027E000E76817B1E069B84211D801270FE0494600
:1027F000204600F097FD0646022E02D20120BDE8D9
:10280000F087E069B04201D93046F8E74F463D46CF
:1028100000BF6D1CE069A84204D80225BD4201D961
:102820000020ECE72946204600F07CFD064606B96C
:1028300009E0701C08B1012E01D13046DFE7BD422E
:10284000E7D10020DBE700BF6FF070422946204649
:1028500000F009FF8046B8F1000F08D1B9F1000F70
:1028600005D02A464946204600F0FDFE8046B8F1D4
:10287000000F09D1E5602069401C68B12069401E45
:1028800020610120607107E0B8F1010F02D14FF023
:10289000FF3000E0012005462846B0E72DE9F34F60
:1028A00081B08B46019885690B222021284600F0D3
:1028B00097FE002006460746804608200090DBF879
:1028C00000A01AF808002E2825D100BF404608F1C4
:1028D00001081AF800402E2C02D1B8F1030F00D3E2
:1028E00003E038467F1C2C54F0E700BF2F2C06D0A5
:1028F0005C2C04D0202C02DD0620BDE8FE8F0AEB04
:102900000800CBF80000202C01DC242000E020206F
:10291000E8720020F1E700BF404608F101081AF80C
:102920000040202C03DD2F2C01D05C2C00D153E083
:102930002E2C02D0009887420CD30098082801D191
:102940002E2C01D00620D8E708270B200090B006D7
:10295000060EE1E7802C01DB46F00306812C20DB2C
:10296000FE2C1EDC404608F101081AF80090B9F16F
:10297000400F02DBB9F17E0F05DDB9F1800F06DBF8
:10298000B9F1FE0F03DC0098401EB84201D80620C2
:10299000B3E738467F1C2C5438467F1C05F800905E
:1029A00019E0214620A0FFF741FD08B10620A4E769
:1029B000412C04DB5A2C02DC46F0020608E0612CB4
:1029C00006DB7A2C04DC46F00106A4F12000C4B238
:1029D00038467F1C2C549FE700BF0AEB0800CBF859
:1029E0000000202C01DC042000E0002004460FB988
:1029F000062082E72878E52801D105202870009874
:102A0000082801D1B006060E06F00300012801D106
:102A100044F0100406F00C00042801D144F008042E
:102A2000EC72002069E70000222A2B2C3A3B3C3D47
:102A30003E3F5B5D7C7F00000146114A12884A439D
:102A40004FF0E0235A6100229A611A46126942F05F
:102A500001021A6100BF4FF0E022106900F001028C
:102A60001AB100F48032002AF5D04FF0E02212694A
:102A700022F001024FF0E0231A6100229A617047B0
:102A80003A0000202DE9F04104460021204600F0E4
:102A9000E9F8054615B12846BDE8F08100BF216977
:102AA000206800F0A7FD054605B116E06669377895
:102AB0000FB9042511E0F07A00F0080030B90B22BC
:102AC0003046A16900F06CFD00B906E00021204607
:102AD00000F006F80546002DE1D000BF2846DBE7F0
:102AE0002DE9F04104468846E088401C86B20EB1CC
:102AF000206910B90420BDE8F08106F00F0000281D
:102B00006FD12069401C2061E06828B920680089E5
:102B1000B04266DC0420EEE720688078401E00EAC0
:102B2000161000285DD1E168206800F0FBFB054627
:102B3000012D01D80220DEE7681C08B90120DAE780
:102B40002068C069A84246D8B8F1000F01D104201E
:102B5000D1E7E1682068FFF73CFE05460DB9072084
:102B6000C9E7012D01D10220C5E7681C08B9012081
:102B7000C1E70021206800F03DFD08B10120BAE75F
:102B8000216801F134004FF40072002100F028FDAB
:102B900029462068FFF710FE21680863002710E02F
:102BA0000120216808710021206800F023FD08B190
:102BB0000120A0E72068006B401C21680863781C96
:102BC000C7B220688078B842EADC2068006BC01B7E
:102BD0002168086300BFE56029462068FFF7ECFD27
:102BE0002061E6802068343006F00F0100EB4110D0
:102BF000606100207FE72DE9F04104460021204676
:102C000000F030F80546ADB900BF2169206800F03A
:102C1000F1FC054605B10CE060690678E52E00D0B0
:102C200006B906E001212046FFF75AFF0546002DB0
:102C3000EBD000BF9DB92169206800F0DBFC0546A0
:102C40006DB9676920220021384600F0C9FC0B22CB
:102C50003846A16900F0B7FC0120216808712846B8
:102C6000BDE8F0812DE9F04104460E46E680A568F6
:102C7000012D03D02068C069A84202D80220BDE817
:102C8000F0812DB920680078032801D12068856A79
:102C900065B9E56020680089B04201DC0220EEE7FA
:102CA0002068806A00EB1610206120E020688078A0
:102CB000070112E02946206800F034FB0546681C35
:102CC00008B90120DBE7022D03D32068C069A842C0
:102CD00001D80220D3E7F01B86B2BE42EADAE560F3
:102CE00029462068FFF768FD00EB16102061206878
:102CF000343006F00F0100EB411060610020BEE7A8
:102D000070B505460DB1012070BDFDF7D5FF044635
:102D100007480470007808B10220F5E7022C01D1C1
:102D20000220F1E70CB10120EEE70020ECE7000003
:102D3000370000202DE9F04106460F4614461D4697
:102D40004FF0000806B915B90420BDE8F08113481A
:102D5000007808B10320F8E7012D12D1104800785F
:102D6000042806D061026A023846FDF7B1FF8046AA
:102D70000DE04FF4007221463846FDF7A9FF80466A
:102D800005E06A0261023846FDF7D8FF8046B8F1D7
:102D9000000F01D10020D8E70120D6E7370000203E
:102DA00020000020014609B1012070470348007847
:102DB00008B10220F9E70020F7E700003700002003
:102DC0002DE9F0410746884616461D4607B915B954
:102DD0000420BDE8F0811848007808B10320F8E726
:102DE000012D12D115480078042806D071026A021C
:102DF0004046FEF729F8044618E04FF400723146C9
:102E00004046FEF721F8044610E00C4800780428FC
:102E100006D06A0271024046FEF752F8044605E009
:102E20006A0231464046FEF74BF804460CB90020D2
:102E3000CFE70120CDE70000370000202000002070
:102E40000246012A01DB0B207047074850F8223068
:102E50000BB10020187009B100200870024840F83A
:102E600022100020F0E70000300000202DE9F74399
:102E70008AB0054616460020286006F01F0626F098
:102E8000010203A90BA8FFF7DBFA0746CDF824D00F
:102E900027B903A80B9900F0D5F90746089C0FB98C
:102EA00004B9062706F01C00002858D04FB1042FA3
:102EB00003D103A8FFF79FFE074646F00806089CCB
:102EC00009E006F0040008B1082704E0E07A00F009
:102ED000110000B10727002F40D106F0080000289C
:102EE0003CD000F091FA804684F80E804FEA182119
:102EF000E1734FEA184121744FEA186161740020B0
:102F0000E072207700216177A177E177A17EE07EF2
:102F100041EA0021227D607D42EA002041EA004929
:102F20000020A0760021E1762075617501200399CB
:102F30000871B9F1000F11D00398D0F830804946DC
:102F4000039800F02BFC074647B9A9F1010003994B
:102F5000C8604146039800F04DFB07460EE06FB98C
:102F6000E07A00F0100008B1042707E006F0020044
:102F700020B1E07A00F0010000B1072747B906F060
:102F8000080008B146F020060398006BE8612C6247
:102F9000FFB9AE71A17EE07E41EA0021227D607D15
:102FA00042EA002041EA00402861E07F0106A07F5C
:102FB00041EA0041607F41EA0020217F0843E86048
:102FC0000020A860A8616862039828600398C08800
:102FD000A88038460DB0BDE8F0837CB504460E46A7
:102FE0000A2C03D131460D20FFF7F7FF8DF8004082
:102FF000012501AB2A466946304600F01CF80198CD
:10300000A84200D17CBD4FF0FF30FBE770B504460D
:103010000E4600250AE020783146FFF7DEFF401C0F
:1030200010B94FF0FF3070BD641C6D1C2078002873
:10303000F1D12846F7E72DE9FF4F83B00446154646
:103040009B46049801900020CBF80000A1882068DE
:1030500000F0D8FB0290029818B1029807B0BDE8C2
:10306000F08FA07900F0800008B10220F6E7A07987
:1030700000F0020008B90720F0E7E0682844E168A2
:10308000884200D20025CDE02089C0F30800002846
:1030900077D120688078401EA16800EA512000F0B6
:1030A000FF0ABAF1000F2AD1A06858B9D4F81080ED
:1030B000B8F1000F0BD100212068FFF78AFB804692
:1030C000206104E061692068FFF783FB8046B8F166
:1030D000000F00D1A9E0B8F1010F05D1A07940F0AF
:1030E0008000A0710220B9E708F1010028B9A07999
:1030F00040F08000A0710120B0E7C4F81480A079EE
:1031000000F0400090B121684878012304F12801C3
:10311000A269FFF755FE28B1A07940F08000A071A8
:1031200001209BE7A07920F04000A0716169206830
:10313000FFF742FB06462EB9A07940F08000A0714F
:1031400002208BE756444FEA5529B9F1000F2FD0E2
:103150000AEB090021688978884203D920688078C1
:10316000A0EB0A0909F0FF0321684878324601996B
:10317000FFF726FE30B1A07940F08000A071012059
:103180006CE72CE0A069801B48450ED2A069801B2B
:10319000019A02EB40214FF4007204F1280000F084
:1031A00012FAA07920F04000A0714FEA49272DE0E3
:1031B000A069B04212D0D4E9020188420ED221683F
:1031C00048780123324604F12801FFF7B3FD28B106
:1031D000A07940F08000A07101203FE7A66120891E
:1031E000C0F30800C0F50077AF4200D92F4621890F
:1031F000C1F3080204F1280150183A46019900F081
:10320000E2F9A07940F04000A07100BF0198384475
:103210000190A0683844A060DBF800003844CBF887
:103220000000ED1B002D7FF42FAF00BFD4E9020199
:10323000884201D9A068E060A07940F02000A07128
:1032400000200BE72DE9F3410446019800782F2870
:1032500003D0019800785C2805D10198401C0190AA
:103260000020A06002E020688069A06001980078DA
:10327000202807D200212046FFF7F4FC0746002053
:10328000606139E000BF01A92046FFF707FB074650
:1032900007B130E02046FFF7F5FB0746A069C67A84
:1032A00097B1042F00D026E006F0200038B10020AE
:1032B000A0606061002706F0040020B9E3E706F093
:1032C000040000B9052716E006F0040000B112E082
:1032D0006569E87A00F0100008B905270BE0A97EBF
:1032E000E87E41EA00212A7D687D42EA002041EA29
:1032F0000040A060C7E700BF3846BDE8FC81000081
:1033000070B504460D46E1B20548FEF7AEFB00BFBE
:1033100080210348FEF7DBFA0028F9D0204670BD73
:10332000003801402DE9F04105460C46022C02D33D
:10333000E869A04202D80120BDE8F0812878012880
:1033400004D002282CD003285AD13DE0274607EBB1
:103350005707686A00EB5721284600F04BF900B187
:103360004EE0C7F3080105F1340010F801807F1C1E
:10337000686A00EB5721284600F03CF900B13FE0B5
:10338000C7F3080105F13400405C48EA002804F066
:10339000010010B14FEA1810CEE7C8F30B00CBE7DD
:1033A000686A00EB1421284600F024F900B127E0F8
:1033B00040F2FF1000EA440105F134000E183078A5
:1033C000717840EA0120B7E7686A00EBD41128461B
:1033D00000F010F900B113E040F2FF1000EA8401A0
:1033E00005F134000E18F0780006B17840EA01408B
:1033F000717840EA01203178084320F070409BE763
:1034000000BF4FF0FF3097E770470000B8B00024CE
:103410004FF0010AA1464820FEF75AF94FF4A06088
:10342000FDF7E8FDFDF734FA4FF4E130FEF7E2F97D
:10343000FDF742FC8246304880F800A02F4900206A
:10344000FFF7FEFC2E4908701A222EA13048FFF724
:103450000DFD2B4908700FF2BC0B2D495846FFF7A4
:10346000D5FD48E0601CC4B222462FA104A8FEF797
:1034700013FB274904A8FFF7C9FD642094FBF0F172
:1034800000FB1140002833D1FDF7AAFB81464946D5
:1034900028A0FEF7F1FA4846FDF7B4FB37903798BD
:1034A000FCF70DFF05462A460B4627A0FEF7E4FA77
:1034B0003798FDF7B3FB36903698FCF700FF0546CA
:1034C0002A460B4626A0FEF7D7FA3698FCF7F7FEF9
:1034D00005460E463798FCF7F2FE4A468DE8630033
:1034E00025A11DA8FEF7D8FA09491DA8FFF78EFDF2
:1034F0000A20FFF7A1FAB5E73700002044000020BA
:1035000000000020546573742E747874000000006D
:103510007802002073746172742077726974696E26
:1035200067210D0A0000000074696D653A2025646A
:103530000D0A0000BCECB2E24144D6B5CEAAA3BA53
:1035400025640D0A00000000BCECB2E2B5E7D1B979
:10355000D6B5CEAAA3BA252E3266560D0A000000B3
:10356000BCECB2E2D6D8C1BFCEAAA3BA252E326631
:103570006B670D0A0000000041443A2025642C20AE
:10358000766F6C3A20252E3266562C207765696757
:1035900068743A20252E32666B670D0A0000000021
:1035A000F0B503461C460D46002000BF161EA2F1D2
:1035B000010207D014F8017B15F801CBA7EB0C062C
:1035C000301EF3D0F0BD70B503460C4603E014F88E
:1035D000015B03F8015B151EA2F10102F7D170BD7A
:1035E00030B5034601E003F8011B141EA2F10102ED
:1035F000F9D130BD2DE9F04104460D46266BAE42AF
:103600002FD0207908B360780123324604F13401C9
:10361000FFF7D6FB10B10120BDE8F081002020713A
:10362000D4E908100844B0420FD9E7780AE0206ACC
:10363000064460780123324604F13401FFF7C0FBF1
:10364000781EC7B2012FF2DC00BF55B160780123AC
:103650002A4604F13401FFF76DFB08B10120DBE7D6
:1036600025630020D8E72DE9F04705460E461746AA
:10367000022E02D3E869B04202D84FF002088AE075
:103680002878012804D0022841D003287DD154E0B5
:10369000B14609EB5909686A00EB59212846FFF742
:1036A000A9FF8046B8F1000F00D071E0C9F308010E
:1036B00005F134000C1806F0010020B1F9B22078B1
:1036C00061F31F1000E03846207009F10109012064
:1036D0002871686A00EB59212846FFF78BFF804666
:1036E000B8F1000F00D053E0C9F3080105F1340030
:1036F0000C1806F0010010B1C7F3071005E02078A0
:1037000000F0F000C7F303210843207040E0686A2E
:1037100000EB16212846FFF76DFF8046B8F1000F39
:1037200000D035E040F2FF1000EA460105F1340018
:103730000C182770380A60702AE0686A00EBD6110E
:103740002846FFF757FF8046B8F1000F00D01FE072
:1037500040F2FF1000EA860105F134000C18E07811
:103760000006A17840EA0140617840EA0120217812
:10377000084300F0704007432770380A6070380C27
:10378000A070380EE07003E0FFE74FF0020800BFC2
:1037900000BF012028714046BDE8F0872DE9F041C7
:1037A00004460E46022E02D3E069B04201D8022739
:1037B00025E000271FE031462046FFF7B3FD054610
:1037C00005B91BE0012D01D1022717E0681C08B9DB
:1037D000012713E0002231462046FFF744FF074649
:1037E00007B10BE02069401C20B12069401C20611A
:1037F000012060712E46E069B042DCD800BF384637
:10380000BDE8F08170B504460D4624B1207810B1B2
:10381000E088A84201D0092070BD6078FFF7C2FAA5
:1038200000F0010008B10320F6E70020F4E70000F3
:10383000503800080000002044000000C01A0008B2
:10384000943800084400002024090000D01A000821
:103850000000000000000000000000000000000068
:103860000102030401020304060708090204060812
:103870000000000000000000000000000000000048
:103880000000000000000000000000000000000038
:043890000000000034
:04000005080000ED02
:00000001FF
