:020000040800F2
:10000000B80D002001010008D5050008990200087C
:10001000D105000875010008371000080000000035
:10002000000000000000000000000000E10B0008DC
:10003000790100080000000049060008CD0C000806
:100040001B0100081B0100081B0100081B01000820
:100050001B0100081B0100081B0100081B01000810
:100060001B0100081B0100081B0100081B01000800
:100070001B0100081B0100081B0100081B010008F0
:100080001B0100081B0100081B0100081B010008E0
:100090001B0100081B0100081B0100081B010008D0
:1000A0001B0100081B0100081B0100081B010008C0
:1000B0001B0100081B0100081B0100081B010008B0
:1000C0001B0100081B0100081B0100081B010008A0
:1000D0001B010008310D00081B0100081B0100086E
:1000E0001B0100081B0100081B010008DFF80CD0F1
:1000F00000F02EF800480047E5220008B80D002067
:100100000648804706480047FEE7FEE7FEE7FEE7B1
:10011000FEE7FEE7FEE7FEE7FEE7FEE7D10C00089C
:10012000ED00000830B50B460146002020220124D6
:1001300009E021FA02F59D4205D303FA02F5491BB5
:1001400004FA02F52844151EA2F10102F1DC30BDCB
:10015000064C074D06E0E06840F0010394E8070014
:1001600098471034AC42F6D3FFF7C4FF20270008AD
:100170004027000800BFFEE770472DE9F041024626
:1001800000250026002000230024002791F803C04A
:100190000CF00F0591F803C00CF0100CBCF1000F2F
:1001A00003D091F802C04CEA050591F800C0BCF1FB
:1001B000000F31D0146800202BE04FF0010C0CFA36
:1001C00000F3B1F800C00CEA03069E4220D1830080
:1001D0004FF00F0C0CFA03F7BC4305FA03FC4CEA92
:1001E000040491F803C0BCF1280F06D14FF0010CB4
:1001F0000CFA00FCC2F814C00AE091F803C0BCF18C
:10020000480F05D14FF0010C0CFA00FCC2F810C0E9
:10021000401C0828D1D31460B1F800C0BCF1FF0F16
:1002200034DD546800202EE000F1080C4FF0010886
:1002300008FA0CF3B1F800C00CEA03069E4221D183
:1002400083004FF00F0C0CFA03F7BC4305FA03FCD4
:100250004CEA040491F803C0BCF1280F05D100F169
:10026000080C08FA0CF8C2F8148091F803C0BCF12D
:10027000480F07D100F1080C4FF0010808FA0CF8FC
:10028000C2F81080401C0828CED35460BDE8F0812D
:10029000416170470161704700BFFEE710B5002360
:1002A00018E000F0BFF8024602F01F02052A04D051
:1002B0000B2A04D00D2A06D103E0052405E00B200B
:1002C00010BD0D20FCE7FF2400BF00BF052C00D1AE
:1002D00002E05B1C402BE4D900BF00BF00F0A2F895
:1002E0000028FBD01046EBE700B5034640F6FF724E
:1002F00000E0521E00F096F8984201D0002AF8D192
:100300000AB9FF2000BD0020FCE7000070B5002501
:1003100000F026FA044602480470204670BD000032
:10032000370000202DE9F04104460F46154600260F
:100330004FF0FF084FF480511448FFF7A9FFFF2248
:100340003946112000F088F80020FFF7CDFF90B962
:10035000FE20FFF7C9FF70B900BF04E000F062F8AB
:100360002070641C761CAE42F8D300F05BF800F0FD
:1003700059F84FF000084FF480510448FFF78AFF06
:10038000FF2000F017F94046BDE8F081000C014065
:100390002DE9F04704460D4616460027B946B846F3
:1003A0004FF0FF0A4FEA56294FF480511C48FFF7DF
:1003B0006FFF25E005EB0801FF22112000F04CF84B
:1003C0000020FFF791FF10B1FF20BDE8F087FE206D
:1003D000FFF78AFF90B9002704E000F023F82070AF
:1003E000641C7F1CB7F5007FF7D308F5007800F098
:1003F00019F800F017F84FF0000A01E04FF0FF0A7B
:10040000B9F10000A9F10109D4D14FF48051044899
:10041000FFF740FFFF2000F0CDF85046D5E7000081
:10042000000C014000BF0B48008800F002000028CB
:10043000F9D0FF200749091D088000BF0548008842
:1004400000F001000028F9D00248001D0088C0B269
:1004500070470000083800403CB504460B4615467E
:10046000002244F040008DF80000180E8DF80100C5
:10047000180C8DF80200180A8DF80300D8B28DF818
:1004800004008DF8055000BF04E01DF8020000F0E4
:1004900091F8521C062AF8D33CBD00002DE9F0412A
:1004A00004460F46154600264FF0FF084FF48051D2
:1004B0001748FFF7EDFEFF2239461820FFF7CCFF63
:1004C0000020FFF711FFC0B9FF2000F073F8FE20F5
:1004D00000F070F800BF04E0207800F06BF8641CB6
:1004E000761CAE42F8D3FFF79DFFFFF79BFFFFF7A7
:1004F000D5FE052801D14FF000084FF48051044883
:10050000FFF7C8FEFF2000F055F84046BDE8F08137
:10051000000C01402DE9F04704460D461646002721
:10052000B946B8464FF0FF0A4FEA56294FF48051BA
:100530001F48FFF7ADFE2BE005EB0801FF22182056
:10054000FFF78AFF0020FFF7CFFE10B1FF20BDE8C4
:10055000F087FF2000F02EF8FE2000F02BF8002797
:1005600004E0207800F026F8641C7F1CB7F5007FBB
:10057000F7D308F50078FFF755FFFFF753FFFFF7B4
:100580008DFE052802D14FF0000A01E04FF0FF0A6E
:10059000B9F10000A9F10109CED14FF4805104480E
:1005A000FFF778FEFF2000F005F85046CFE7000087
:1005B000000C014000BF0549098801F00201002933
:1005C000F9D00249091D0880704700000838004032
:1005D00000BFFEE77047000070B5002100230F2226
:1005E000C47804B3154C246804F4E064C4F5E064F2
:1005F000210AC1F10403CA40447804FA03F1847863
:100600001440214309010E4C0678A155047804F0EA
:100610001F050124AC4005786D11AD0005F1E02502
:10062000C5F8004109E0047804F01F050124AC403E
:10063000044D0678761145F8264070BD0CED00E0BB
:1006400000E400E080E100E07047000029B1064AC4
:10065000D2690243044BDA6104E0034AD26982435F
:10066000014BDA61704700000010024029B1064AD0
:1006700092690243044B9A6104E0034A92698243FF
:10068000014B9A61704700000010024030B5002114
:100690000022002400232D4D6D6805F00C0121B1CE
:1006A000042905D0082923D105E0294D056022E061
:1006B000274D05601FE0254D6D6805F47012234D30
:1006C0006D6805F48034022505EB92421CB9214D7A
:1006D000554305600BE01D4D6D6805F400351DB1F7
:1006E0001C4D5543056002E0194D5543056002E07D
:1006F000174D056000BF00BF144D6D6805F0F00197
:100700000909154D6B5C0568DD4045600F4D6D684E
:1007100005F4E061090A104D6B5C4568DD408560B9
:100720000A4D6D6805F46051C90A0B4D6B5C456854
:10073000DD40C560054D6D6805F44041890B074DEE
:100740006B5CC568B5FBF3F5056130BD0010024078
:1007500000127A0000093D000C0000201C0000205F
:100760007CB500F0EFF84FF480517448FFF790FD2E
:10077000002601E0701C86B2B6F5706FFADB002629
:1007800004E0FF2000F0E8F9701C86B20A2EF8DBC6
:10079000002500BF95220021084600F069F90446B3
:1007A000681C85B2012C01D03C2DF3DB3C2D01D11E
:1007B00001207CBD87224FF4D571082000F096F906
:1007C0000446052C4FD101205D49087001035B48A8
:1007D000FFF760FDFF2000F0BFF9002500BF0022F9
:1007E0001146372000F044F90446012C01D0204680
:1007F000DFE700221146292000F03AF90446681C80
:1008000085B20CB13C2DEADB3C2D13D1002500BF95
:1008100000221146012000F02BF90446681C85B225
:100820000CB13C2DF4DB3C2D01D10120C1E70020AF
:100830004349087000F0EEF8FF2000F08DF9952292
:1008400000213B2000F014F904460CB12046B0E72B
:1008500095224FF40071102000F00AF90446002C94
:100860006AD02046A5E7012C66D1FF2000F074F97C
:100870008DF80000FF2000F06FF98DF80100FF20D7
:1008800000F06AF98DF80200FF2000F065F98DF89C
:10089000030021032948FFF7FDFCFF2000F05CF96D
:1008A000002500BF00221146372000F0E1F8044681
:1008B000012C01D020467CE700224FF08041292006
:1008C00000F0D6F804463C2D01DD204671E7002CEF
:1008D000E8D1002211463A2000F008F904460CB194
:1008E000204666E7FF2000F037F98DF80000FF2072
:1008F00000F032F98DF80100FF2000F02DF98DF89D
:100900000200FF2000F028F98DF803004FF4805119
:100910000A48FFF7BFFCFF2000F01EF99DF8000019
:1009200000F0400018B104200549087002E00220E0
:100930000349087000F06EF820463AE7000C0140C9
:100940002000002000B587B001210D20FFF78EFEAA
:1009500001218803FFF77AFE4FF46040ADF81800DC
:1009600003208DF81A0018208DF81B0006A92748CF
:10097000FFF703FC4FF48040ADF8180003208DF81A
:100980001A0048208DF81B0006A92048FFF7F5FB48
:100990004FF48050ADF8180003208DF81A00102095
:1009A0008DF81B0006A91948FFF7E7FB4FF48051AB
:1009B0001648FFF76FFC0021154800F0E7F800200B
:1009C000ADF804004FF48270ADF806000020ADF8D9
:1009D00008000220ADF80A000120ADF80C0040022A
:1009E000ADF80E003820ADF810000020ADF8120070
:1009F0000720ADF8140001A9054800F0D3F8012143
:100A0000034800F0C3F807B000BD0000000C01402F
:100A10000038004000B585B00021144800F0B6F859
:100A20000020ADF800004FF48270ADF80200002005
:100A3000ADF804000220ADF806000120ADF8080072
:100A40004002ADF80A000820ADF80C000020ADF817
:100A50000E000720ADF810006946044800F0A2F827
:100A60000121024800F092F805B000BD00380040B6
:100A70002DE9F04105460C4616460027FF2000F000
:100A80006BF84FF480511848FFF702FC45F0400026
:100A900000F062F8200E00F05FF8C4F3074000F0A9
:100AA0005BF8C4F3072000F057F8E0B200F054F808
:100AB000304600F051F804E0781CC7B23C2F00DD4E
:100AC00005E0FF2000F048F88046FF28F4D000BF82
:100AD0004FF480510448FFF7DDFBFF2000F03CF8A5
:100AE0004046BDE8F0810000000C01402DE9F041D6
:100AF00005460C4616460027FF2000F02DF84FF45F
:100B000080511448FFF7C4FB45F0400000F024F882
:100B1000200E00F021F8C4F3074000F01DF8C4F3E4
:100B2000072000F019F8E0B200F016F8304600F0A7
:100B300013F804E0781CC7B23C2F00DD05E0FF206D
:100B400000F00AF88046FF28F4D000BF4046BDE818
:100B5000F0810000000C0140014600BF0A480088F7
:100B600000F002000028F9D00748001D018000BFF6
:100B70000548008800F001000028F9D00248001D57
:100B80000088C0B2704700000838004021B10288D8
:100B900042F04002028004E002884FF6BF731A4020
:100BA0000280704710B50022028802F441520B887F
:100BB0004C8823438C882343CC8823430C892343CC
:100BC0004C8923438C892343CC8923431A430280D5
:100BD000838B4FF2FF74234083830B8A038210BD03
:100BE000704710B500F002F810BD00000CB50020F1
:100BF000019000903348006840F48030314908602B
:100C000000BF3048006800F4003000900198401C9C
:100C10000190009818B90198B0F5A06FF1D129485A
:100C2000006800F4003010B10120009001E00020C5
:100C300000900098012843D12348006840F010003C
:100C4000214908600846006820F003000860084653
:100C5000006840F0020008601A484068194948607E
:100C60000846406848600846406840F48060486034
:100C70000846406820F47C1048600846406840F40C
:100C8000E81048600846006840F08070086000BFC7
:100C90000C48006800F000700028F9D0094840684E
:100CA00020F00300074948600846406840F0020011
:100CB000486000BF0348406800F00C000828F9D1E4
:100CC0000CBD0000001002400020024070470000F0
:100CD00010B51348006840F001001149086008464B
:100CE0004068104908400E494860084600680E49AF
:100CF00008400B4908600846006820F4802008601E
:100D00000846406820F4FE0048604FF41F008860E9
:100D1000FFF767FF4FF000600449086010BD000056
:100D2000001002400000FFF8FFFFF6FE08ED00E0B3
:100D300010B540F225511D4800F0B8F810B31B481B
:100D400000F070F9C4B21A48008800F40040C8B935
:100D50001748008800F4804060B10A2C03D00020BE
:100D60001349088020E01248008840F400401049F0
:100D7000088019E00D2C06D10D48008840F4804011
:100D80000B49088010E00A480088C0F30D000949AB
:100D90000C5407480088401C054908800846008814
:100DA000C72801DD0020088010BD00000038014088
:100DB00038000020EC08002010B586B00446012160
:100DC0000420FFF753FC01218803FFF74FFC4FF489
:100DD0000070ADF8140003208DF8160018208DF86F
:100DE000170005A91E48FFF7C8F94FF48060ADF859
:100DF000140004208DF8170005A91948FFF7BDF964
:100E000001940020ADF80800ADF80A00ADF80C0020
:100E1000ADF810000C20ADF80E0001A9114800F04B
:100E200095F801210F4800F028F840210D4800F006
:100E30001BF8012240F225510A4800F061F82520F4
:100E40008DF8000003208DF801008DF802000120CC
:100E50008DF803006846FFF7BFFB06B010BD000029
:100E6000000801400038014001F40072B2F5007F33
:100E700000D100BFCA430280704721B1828942F489
:100E80000052828104E082894DF6FF731A4082810C
:100E9000704702460020B1F5007F00D100BF1388E3
:100EA0000B400BB1012000E00020704770B50246F6
:100EB000002400230025002040F66A16B14200D12C
:100EC00000BFC1F3421501F01F03012606FA03F328
:100ED000012D02D19689334006E0022D02D1168AF7
:100EE000334001E0968A33400C12012606FA04F4DE
:100EF0001688344013B10CB1012000E0002070BD11
:100F0000F0B50346002400260025002040F66A17AD
:100F1000B94200D100BF1846C1F3421401F01F06C8
:100F2000012707FA06F5012C01D10C3004E0022C50
:100F300001D1103000E014301AB107682F43076068
:100F400002E00768AF430760F0BD00002DE9F047FD
:100F500086B005460E460024A24600BFA1460027E3
:100F6000B08900B100BF2F462C8A4CF6FF700440B8
:100F7000F08804432C82AC894EF6F3100440B0880C
:100F800031890843718908430443AC81AC8A4FF628
:100F9000FF400440B0890443AC8201A8FFF776FB10
:100FA0001F48874202D1DDF810A001E0DDF80CA057
:100FB000A88900F4004040B10AEBCA0000EB0A1017
:100FC00031684900B0FBF1F807E00AEBCA0000EB1A
:100FD0000A1031688900B0FBF1F86420B8FBF0F02A
:100FE00004012009642101FB1089A88900F4004054
:100FF00040B1322000EBC900B0FBF1F000F0070077
:10100000044308E0322000EB09106421B0FBF1F04A
:1010100000F00F0004432C8106B0BDE8F08700000B
:101020000038014001468888C0F308007047C1F3CA
:1010300008028280704700BFFEE700000FB4054B36
:1010400010B503A9044A029800F018F810BC5DF826
:1010500014FB0000D92100083C00002002E008C871
:10106000121F08C1002AFAD170477047002001E022
:1010700001C1121F002AFBD1704700002DE9FF4F6C
:1010800089B09B460446002506E025280BD05A4629
:101090000B999047641C6D1C20780028F5D10DB089
:1010A0002846BDE8F08F0027B8460122474900E0F6
:1010B000074314F8013F203B02FA03F00842F7D13E
:1010C00020782E2819D114F8010F47F004072A2898
:1010D0000ED06FF02F022078A0F1300109290CD832
:1010E00008EB880102EB410100EB0108641CF2E708
:1010F0000A98641C50F8048B0A9020780028CED0FF
:10110000642808D0692806D075281ED05A460B9945
:1011100090476D1C58E00A994FF00A0901C90A91DD
:10112000002802DA40422D2102E0390504D52B21A6
:101130008DF82010012103E0F90704D02021F7E702
:101140008A4608AE0DE00021FAE70A994FF00A0935
:1011500001C90A91F7E74946FEF7E4FF303106F886
:10116000011D0028F7D1ADEB060000F1200978073A
:1011700001D44FF00108C84502DDA8EB090000E0EA
:1011800000208046002706E008A85A46C05D0B995B
:1011900090476D1C7F1C5745F6DB04E030205A4613
:1011A0000B9990476D1CB8F10001A8F10108F5DC1E
:1011B00005E016F8010B5A460B9990476D1CB9F1E2
:1011C0000001A9F10109F4DC641C65E709280100AC
:1011D00070B504460D46607801232A4604F13401B7
:1011E00000F0DAFC08B1032070BD94F8321294F8D4
:1011F000330241EA00204AF65521884201D00220FC
:10120000F2E794F86D00010694F86C0041EA0041A1
:1012100094F86B0041EA002094F86A10084320F02B
:101220007F400E49884201D10020DDE794F8890013
:10123000010694F8880041EA004194F8870041EAE9
:10124000002094F88610084320F07F40034988422C
:1012500001D10020C8E70120C6E700004641540044
:10126000024600E0521C107810B110788842F9D183
:10127000107870472DE9F74F86B006980068009007
:101280000098007830380590059809280AD8009809
:1012900040783A2806D10098801C00900699009862
:1012A000086002E0CC4800780590059818B10B2042
:1012B00009B0BDE8F08FC949059851F8204007985A
:1012C00004600CB90C20F3E7207878B1607800F066
:1012D0009BFC804608F0010040B9089820B108F056
:1012E000040008B10A20E3E70020E1E700202070B5
:1012F00005986070607800F0F7FB804608F0010008
:1013000008B10320D4E7089820B108F0040008B120
:101310000A20CDE74FF0000A51462046FFF758FF5C
:101320000546012D13D104F5F977387978B1F87AAB
:101330000106B87A41EA0041787A41EA0020397A18
:1013400040EA010A51462046FFF742FF0546032DB9
:1013500001D10120ACE70DB10D20A9E73F20015DCF
:1013600094F8400041EA0020B0F5007F01D00D2044
:101370009EE74A20015D94F84B0041EA0029B9F14B
:10138000000F0ED194F85B00010694F85A0041EA70
:10139000004194F8590041EA002094F8581040EABE
:1013A0000109C4F820904420065DE670012E03D0A8
:1013B000022E01D00D207BE709FB06F94120005DDC
:1013C0000646A07016B1701E304008B10D206FE7C0
:1013D0004520015D94F8460041EA00202081207AF2
:1013E00000F00F0008B10D2062E74720015D94F87E
:1013F000480041EA00200490049870B994F857001E
:10140000010694F8560041EA004194F8550041EA7B
:10141000002094F85410084304904220015D94F891
:10142000430041EA00200190019808B90D203FE7F0
:1014300001984844218900EB11100390DDE9030174
:10144000814201D20D2033E7DDE90310401AA17873
:10145000B0FBF1FBBBF1000F01D10D2028E7012506
:1014600040F6F670834500D302254FF6F6708345AB
:1014700000D303250BF10200E06103985044E062C1
:10148000019850446062032D16D1208908B10D20C7
:101490000EE794F86300010694F8620041EA004107
:1014A00094F8610041EA002094F860100843A062BB
:1014B000E0698000029014E0208908B90D20F7E669
:1014C000606A4844A062022D02D1E069400007E052
:1014D000207F00F00100E16901EB410100EB5100C8
:1014E0000290216A029800F2FF10B1EB502F01D256
:1014F0000D20DDE64FF0FF3020610020E060032D7D
:101500005CD1607194F8641094F8650041EA0020A1
:10151000504460616078012304F13401626900F095
:101520003BFBE8BB94F8321294F8330241EA002006
:101530004AF65521884241D13720005D0106362008
:10154000005D41EA00413520005D41EA002094F849
:10155000341008432249884230D194F81B02010616
:1015600094F81A0241EA004194F8190241EA002075
:1015700094F8181208431B4988421FD194F823029B
:10158000010694F8220241EA004194F8210241EA5E
:10159000002094F820120843E06094F81F0200E055
:1015A0000CE0010694F81E0241EA004194F81D0285
:1015B00041EA002094F81C120843206125700A4873
:1015C0000088401C80B208490880E0800020206329
:1015D0002071A06100BF6BE63600002030000020C3
:1015E0005252614172724161340000200246891EEC
:1015F000D069801E884201D8002070479378D06A55
:1016000001FB0300F9E72DE9F04704468946B9F1EB
:10161000000F06D1E76817B1E069B84211D8012779
:101620000FE04946204600F0E9FD0646022E02D2B0
:101630000120BDE8F087E069B04201D93046F8E703
:101640004F463D4600BF6D1CE069A84204D8022504
:10165000BD4201D90020ECE72946204600F0CEFD2E
:10166000064606B909E0701C08B1012E01D13046CA
:10167000DFE7BD42E7D10020DBE700BF6FF070423B
:101680002946204600F0FDFE8046B8F1000F08D143
:10169000B9F1000F05D02A464946204600F0F1FE78
:1016A0008046B8F1000F09D1E5602069401C68B19F
:1016B0002069401E20610120607107E0B8F1010F30
:1016C00002D14FF0FF3000E0012005462846B0E788
:1016D0002DE9F34F81B08B46019885690B222021BB
:1016E000284600F08BFE002006460746804608206C
:1016F0000090DBF800A01AF808002E2825D100BFC2
:10170000404608F101081AF800402E2C02D1B8F129
:10171000030F00D303E038467F1C2C54F0E700BFD2
:101720002F2C06D05C2C04D0202C02DD0620BDE836
:10173000FE8F0AEB0800CBF80000202C01DC2420EF
:1017400000E02020E8720020F1E700BF404608F1E9
:1017500001081AF80040202C03DD2F2C01D05C2C4E
:1017600000D153E02E2C02D0009887420CD3009871
:10177000082801D12E2C01D00620D8E708270B20FD
:101780000090B006060EE1E7802C01DB46F0030670
:10179000812C20DBFE2C1EDC404608F101081AF8E3
:1017A0000090B9F1400F02DBB9F17E0F05DDB9F110
:1017B000800F06DBB9F1FE0F03DC0098401EB84233
:1017C00001D80620B3E738467F1C2C5438467F1CCE
:1017D00005F8009019E0214620A0FFF741FD08B16F
:1017E0000620A4E7412C04DB5A2C02DC46F002065A
:1017F00008E0612C06DB7A2C04DC46F00106A4F13B
:101800002000C4B238467F1C2C549FE700BF0AEB6F
:101810000800CBF80000202C01DC042000E00020B0
:1018200004460FB9062082E72878E52801D1052073
:1018300028700098082801D1B006060E06F00300B3
:10184000012801D144F0100406F00C00042801D155
:1018500044F00804EC72002069E70000222A2B2CD7
:101860003A3B3C3D3E3F5B5D7C7F00002DE9F04113
:1018700004460021204600F0E9F8054615B1284647
:10188000BDE8F08100BF2169206800F0C1FD054678
:1018900005B116E0666937780FB9042511E0F07AD2
:1018A00000F0080030B90B223046A16900F086FD37
:1018B00000B906E00021204600F006F80546002D9C
:1018C000E1D000BF2846DBE72DE9F0410446884619
:1018D000E088401C86B20EB1206910B90420BDE832
:1018E000F08106F00F0000286FD12069401C2061B4
:1018F000E06828B920680089B04266DC0420EEE781
:1019000020688078401E00EA161000285DD1E1684A
:10191000206800F073FC0546012D01D80220DEE7A7
:10192000681C08B90120DAE72068C069A84246D8D7
:10193000B8F1000F01D10420D1E7E1682068FFF77A
:1019400062FE05460DB90720C9E7012D01D102202D
:10195000C5E7681C08B90120C1E70021206800F034
:1019600057FD08B10120BAE7216801F134004FF4B6
:101970000072002100F042FD29462068FFF736FE84
:1019800021680863002710E0012021680871002108
:10199000206800F03DFD08B10120A0E72068006B41
:1019A000401C21680863781CC7B220688078B84260
:1019B000EADC2068006BC01B2168086300BFE5609B
:1019C00029462068FFF712FE2061E6802068343047
:1019D00006F00F0100EB4110606100207FE72DE968
:1019E000F04104460021204600F030F80546ADB92C
:1019F00000BF2169206800F00BFD054605B10CE031
:101A000060690678E52E00D006B906E0012120467F
:101A1000FFF75AFF0546002DEBD000BF9DB92169A5
:101A2000206800F0F5FC05466DB9676920220021A9
:101A3000384600F0E3FC0B223846A16900F0D1FCE7
:101A40000120216808712846BDE8F0812DE9F041A8
:101A500004460E46E680A568012D03D02068C069C3
:101A6000A84202D80220BDE8F0812DB92068007894
:101A7000032801D12068856A65B9E560206800897E
:101A8000B04201DC0220EEE72068806A00EB16100D
:101A9000206120E020688078070112E02946206854
:101AA00000F0ACFB0546681C08B90120DBE7022DFD
:101AB00003D32068C069A84201D80220D3E7F01BF5
:101AC00086B2BE42EADAE56029462068FFF78EFD5D
:101AD00000EB161020612068343006F00F0100EB97
:101AE000411060610020BEE770B505460DB10120D0
:101AF00070BDFEF70BFC044607480470007808B17F
:101B00000220F5E7022C01D10220F1E70CB10120FF
:101B1000EEE70020ECE70000370000202DE9F0415F
:101B200006460F4615461848007810B10320BDE858
:101B3000F0810EB10420FAE727B1012F19D0032F4D
:101B40001CD111E04FF480511048FEF7A1FBFF209B
:101B5000FEF7CAFB08B9002400E001244FF48051CD
:101B60000A48FEF797FB0BE009480088288000240C
:101B700006E0084800682860002401E0042400BF53
:101B800000BF2046D3E7000037000020000C0140D2
:101B900028000020240000202DE9F04106460F46D1
:101BA00014461D464FF0000806B915B90420BDE8DB
:101BB000F0811348007808B10320F8E7012D12D115
:101BC00010480078042806D061026A023846FEF701
:101BD000A9FB80460DE04FF4007221463846FEF71F
:101BE000A1FB804605E06A0261023846FEF7D0FBA1
:101BF0008046B8F1000F01D10020D8E70120D6E7D8
:101C00003700002020000020014609B10120704764
:101C10000348007808B10220F9E70020F7E7000048
:101C2000370000202DE9F0410746884616461D463C
:101C300007B915B90420BDE8F0811848007808B14B
:101C40000320F8E7012D12D115480078042806D0AA
:101C500071026A024046FEF721FC044618E04FF488
:101C6000007231464046FEF719FC044610E00C486D
:101C70000078042806D06A0271024046FEF74AFC4A
:101C8000044605E06A0231464046FEF743FC04463E
:101C90000CB90020CFE70120CDE70000370000207D
:101CA0002000002070B50446204600F0D4F8054618
:101CB0000DB900202060284670BD00000246012AB0
:101CC00001DB0B207047074850F822300BB1002091
:101CD000187009B100200870024840F82210002056
:101CE000F0E70000300000202DE9F7438AB00546F8
:101CF00016460020286006F01F0626F0010203A900
:101D00000BA8FFF7B7FA0746CDF824D027B903A8E8
:101D10000B9900F003FA0746089C0FB904B906278F
:101D200006F01C00002858D04FB1042F03D103A89F
:101D3000FFF755FE074646F00806089C09E006F046
:101D4000040008B1082704E0E07A00F0110000B1B7
:101D50000727002F40D106F0080000283CD000F0F3
:101D6000BFFA804684F80E804FEA1821E1734FEAEB
:101D7000184121744FEA186161740020E0722077E5
:101D800000216177A177E177A17EE07E41EA002121
:101D9000227D607D42EA002041EA00490020A076D1
:101DA0000021E17620756175012003990871B9F170
:101DB000000F11D00398D0F830804946039800F006
:101DC000FBFB074647B9A9F101000399C8604146EA
:101DD000039800F01DFB07460EE06FB9E07A00F0B3
:101DE000100008B1042707E006F0020020B1E07AF5
:101DF00000F0010000B1072747B906F0080008B15C
:101E000046F020060398006BE8612C62FFB9AE71C2
:101E1000A17EE07E41EA0021227D607D42EA002031
:101E200041EA00402861E07F0106A07F41EA0041CD
:101E3000607F41EA0020217F0843E8600020A8601D
:101E4000A8616862039828600398C088A880384613
:101E50000DB0BDE8F0832DE9F0410446A18820686B
:101E600000F043FC0746002F4FD1A07900F020007E
:101E700000284AD0A07900F0400078B12168487865
:101E8000012304F12801A269FFF7CCFE10B1012063
:101E9000BDE8F081A07920F04000A071E1692068E0
:101EA00000F0B6FA0746002F2FD1256AE87A40F0F5
:101EB0002000E872207B2877A089010A6977E06812
:101EC000010CA977E068010EE977207CA876208ACA
:101ED000010AE9762069000C28752069010E6975F0
:101EE00000F0FEF90646AE75310AE975310C297627
:101EF000310E6976A07920F02000A07101202168C0
:101F00000871206800F08CFB07463846C0E72DE9D1
:101F1000FF4F83B0044615469B460498019000206D
:101F2000CBF80000A188206800F0DFFB0290029847
:101F300018B1029807B0BDE8F08FA07900F08000DA
:101F400008B10220F6E7A07900F0020008B90720E6
:101F5000F0E7E0682844E168884200D20025CDE03F
:101F60002089C0F30800002877D120688078401EBF
:101F7000A16800EA512000F0FF0ABAF1000F2AD14F
:101F8000A06858B9D4F81080B8F1000F0BD1002127
:101F90002068FFF738FB8046206104E06169206813
:101FA000FFF731FB8046B8F1000F00D1A9E0B8F18E
:101FB000010F05D1A07940F08000A0710220B9E79F
:101FC00008F1010028B9A07940F08000A07101203B
:101FD000B0E7C4F81480A07900F0400090B1216807
:101FE0004878012304F12801A269FFF71BFE28B1FC
:101FF000A07940F08000A07101209BE7A07920F03B
:102000004000A07161692068FFF7F0FA06462EB91A
:10201000A07940F08000A07102208BE756444FEA7F
:102020005529B9F1000F2FD00AEB090021688978F2
:10203000884203D920688078A0EB0A0909F0FF03E1
:102040002168487832460199FFF7ECFD30B1A0795C
:1020500040F08000A07101206CE72CE0A069801B9B
:1020600048450ED2A069801B019A02EB40214FF433
:10207000007204F1280000F0B4F9A07920F04000CB
:10208000A0714FEA49272DE0A069B04212D0D4E9EF
:10209000020188420ED2216848780123324604F1B9
:1020A0002801FFF779FD28B1A07940F08000A071E8
:1020B00001203FE7A6612089C0F30800C0F5007742
:1020C000AF4200D92F462189C1F3080204F128014B
:1020D00050183A46019900F084F9A07940F0400088
:1020E000A07100BF019838440190A0683844A060F6
:1020F000DBF800003844CBF80000ED1B002D7FF426
:102100002FAF00BFD4E90201884201D9A068E06086
:10211000A07940F02000A07100200BE72DE9F341E9
:102120000446019800782F2803D0019800785C2895
:1021300005D10198401C01900020A06002E02068B9
:102140008069A06001980078202807D200212046ED
:10215000FFF77CFC07460020606139E000BF01A961
:102160002046FFF7B5FA074607B130E02046FFF7F3
:102170007DFB0746A069C67A97B1042F00D026E000
:1021800006F0200038B10020A0606061002706F052
:10219000040020B9E3E706F0040000B9052716E0C3
:1021A00006F0040000B112E06569E87A00F0100062
:1021B00008B905270BE0A97EE87E41EA00212A7DC7
:1021C000687D42EA002041EA0040A060C7E700BF06
:1021D0003846BDE8FC81000070B504460D46E1B20A
:1021E0000548FEF724FF00BF80210348FEF751FE9B
:1021F0000028F9D0204670BD003801402DE9F0419B
:1022000005460C46022C02D3E869A04202D8012000
:10221000BDE8F0812878012804D002282CD00328BA
:102220005AD13DE0274607EB5707686A00EB572174
:10223000284600F0EDF800B14EE0C7F3080105F1C3
:10224000340010F801807F1C686A00EB5721284693
:1022500000F0DEF800B13FE0C7F3080105F13400FB
:10226000405C48EA002804F0010010B14FEA181061
:10227000CEE7C8F30B00CBE7686A00EB14212846D1
:1022800000F0C6F800B127E040F2FF1000EA440178
:1022900005F134000E183078717840EA0120B7E774
:1022A000686A00EBD411284600F0B2F800B113E0E0
:1022B00040F2FF1000EA840105F134000E18F078B6
:1022C0000006B17840EA0140717840EA0120317897
:1022D000084320F070409BE700BF4FF0FF3097E7C6
:1022E000704700001EA0FEF7A9FE0124FEF70EF8BD
:1022F00004464FF4E130FEF75FFD1C4804702146B0
:102300001BA0FEF79BFE1C490020FFF7D7FC1B49D2
:102310000870084601781AA0FEF790FE0A221BA159
:102320001D48FFF7E1FC15490870084601781BA01D
:10233000FEF784FE1C4B0A221C491748FFF7E7FDF5
:102340000E4908700846017819A0FEF777FE12487A
:10235000FFF7A8FC00210846FFF7B0FC00BFFEE72E
:1023600073746172742E2E2E00000000370000205E
:102370007265743A25640A004000002000000020C5
:10238000726573313A25640A000000004D456E679E
:102390002E7478740000000074020020726573329D
:1023A0003A25640A000000000800002014270008F5
:1023B000726573333A25640A00000000F0B50346E5
:1023C0001C460D46002000BF161EA2F1010207D0D8
:1023D00014F8017B15F801CBA7EB0C06301EF3D0E7
:1023E000F0BD70B503460C4603E014F8015B03F83A
:1023F000015B151EA2F10102F7D170BD30B5034695
:1024000001E003F8011B141EA2F10102F9D130BD55
:102410002DE9F04104460D46266BAE422FD02079BF
:1024200008B360780123324604F13401FFF7FAFB68
:1024300010B10120BDE8F08100202071D4E908101E
:102440000844B0420FD9E7780AE0206A0644607871
:102450000123324604F13401FFF7E4FB781EC7B2D2
:10246000012FF2DC00BF55B1607801232A4604F148
:102470003401FFF791FB08B10120DBE72563002061
:10248000D8E72DE9F04705460E461746022E02D33F
:10249000E869B04202D84FF002088AE028780128A3
:1024A00004D0022841D003287DD154E0B14609EB85
:1024B0005909686A00EB59212846FFF7A9FF8046B1
:1024C000B8F1000F00D071E0C9F3080105F1340044
:1024D0000C1806F0010020B1F9B2207861F31F104A
:1024E00000E03846207009F1010901202871686A6E
:1024F00000EB59212846FFF78BFF8046B8F1000F0B
:1025000000D053E0C9F3080105F134000C1806F0BF
:10251000010010B1C7F3071005E0207800F0F000CB
:10252000C7F303210843207040E0686A00EB1621DE
:102530002846FFF76DFF8046B8F1000F00D035E068
:1025400040F2FF1000EA460105F134000C18277034
:10255000380A60702AE0686A00EBD6112846FFF757
:1025600057FF8046B8F1000F00D01FE040F2FF1087
:1025700000EA860105F134000C18E0780006A17825
:1025800040EA0140617840EA01202178084300F0E8
:10259000704007432770380A6070380CA070380EFE
:1025A000E07003E0FFE74FF0020800BF00BF01202A
:1025B00028714046BDE8F0872DE9F04104460E46FB
:1025C000022E02D3E069B04201D8022725E000279D
:1025D0001FE031462046FFF711FE054605B91BE016
:1025E000012D01D1022717E0681C08B9012713E06B
:1025F000002231462046FFF744FF074607B10BE0B3
:102600002069401C20B12069401C206101206071BC
:102610002E46E069B042DCD800BF3846BDE8F08104
:1026200070B5044600212046FFF7F2FE0546002D56
:1026300059D1207803284FD1607900284CD0002050
:1026400020634FF40072002104F13400FFF7D6FE3E
:10265000552184F83212AA2184F83312522084F8CA
:102660003400522135200155612136200155412188
:1026700037200155722184F8181284F8191241216B
:1026800084F81A12612184F81B12217C84F81C1230
:10269000208A010A84F81D122069010C84F81E1298
:1026A0002069010E84F81F12217B84F82012A08972
:1026B000010A84F82112E068010C84F82212E06813
:1026C000010E84F823126078012304F13401626959
:1026D000FFF7A8FA00206071607800221146FFF72A
:1026E0001DFA00B10125284670BD70B504460D469F
:1026F00024B1207810B1E088A84201D0092070BD33
:102700006078FFF781FA00F0010008B10320F6E7D6
:102710000020F4E70102030405060708090A000087
:102720004027000800000020400000005C10000866
:102730008027000840000020780D00006C10000881
:102740000000000000000000000000000000000089
:102750000102030401020304060708090204060833
:102760000000000000000000000000000000000069
:102770000000000000000000000000000000000059
:04000005080000ED02
:00000001FF
