:020000040800F2
:100000000804002001010008B50600088904000862
:100010004906000849010008150900080000000011
:100020000000000000000000000000006107000860
:100030004D010008000000003D0700087508000899
:100040001B0100081B0100081B0100081B01000820
:100050001B0100081B0100081B0100081B01000810
:100060001B0100081B0100081B0100081B01000800
:100070001B0100081B0100081B0100081B010008F0
:100080001B0100081B0100081B0100081B010008E0
:100090001B0100081B0100081B0100081B010008D0
:1000A0001B0100081B0100081B0100081B010008C0
:1000B0001B0100081B0100081B0100081B010008B0
:1000C0001B0100081B0100081B0100081B010008A0
:1000D0001B0100081B0100081B0100081B01000890
:1000E000510100081B0100081B010008DFF80CD0BB
:1000F00000F018F8004800478509000808040020AF
:100100000648804706480047FEE7FEE7FEE7FEE7B1
:10011000FEE7FEE7FEE7FEE7FEE7FEE7B5080008BC
:10012000ED000008064C074D06E0E06840F00103D2
:1001300094E8070098471034AC42F6D3FFF7DAFF93
:10014000D0090008F009000800BFFEE77047000072
:1001500010B54FF4805000F043F8012807D11C4837
:10016000006808BB01201A49543108602BE04FF4A5
:10017000005000F035F8012808D11548001D00682E
:1001800090B900201249543108601CE04FF48040BF
:1001900000F026F8012808D10D480830006818B989
:1001A00001200B49503108600DE04FF4004000F091
:1001B00017F8012807D106480C30006818B900204C
:1001C0000349503108604FF4704000F003F810BD4F
:1001D00030012142014908607047000014040140C9
:1001E000014600200022074B1B6803EA0102054B71
:1001F00014331B680B4013B10AB1012000E000204A
:100200007047000000040140002123498279002A40
:100210003AD00A46126803689A430B461A600A1DD0
:10022000126803689A430B1D1A60027911440A6828
:1002300003681A430A60184A0832126803689A432E
:10024000154B08331A601A1D126803689A43124B43
:100250000C331A604279102A0ED11A1F12680368F3
:100260001A430D4B08331A601A1D126803681A43AB
:10027000094B0C331A600DE00749427911440A68B2
:1002800003681A430A6005E0027911440A680368AA
:100290009A430A60704700000004014030B5002214
:1002A0008B071C0F0F2303FA04F20B4B8C1053F82F
:1002B00024309343084C8D1044F8253023468C108D
:1002C00053F824308C07240F00FA04F42343024C23
:1002D0008D1044F8253030BD080001402DE9F04173
:1002E000024600250026002000230024002791F864
:1002F00003C00CF00F0591F803C00CF0100CBCF11A
:10030000000F03D091F802C04CEA050591F800C037
:10031000BCF1000F31D0146800202BE04FF0010C2D
:100320000CFA00F3B1F800C00CEA03069E4220D19B
:1003300083004FF00F0C0CFA03F7BC4305FA03FCE3
:100340004CEA040491F803C0BCF1280F06D14FF029
:10035000010C0CFA00FCC2F814C00AE091F803C0CA
:10036000BCF1480F05D14FF0010C0CFA00FCC2F8AB
:1003700010C0401C0828D1D31460B1F800C0BCF1F3
:10038000FF0F34DD546800202EE000F1080C4FF020
:10039000010808FA0CF3B1F800C00CEA03069E420B
:1003A00021D183004FF00F0C0CFA03F7BC4305FA80
:1003B00003FC4CEA040491F803C0BCF1280F05D1FA
:1003C00000F1080C08FA0CF8C2F8148091F803C088
:1003D000BCF1480F07D100F1080C4FF0010808FAF2
:1003E0000CF8C2F81080401C0828CED35460BDE839
:1003F000F0810000F0B50A4600230024002100250A
:1004000000F00046B6F1004F02D11D4EF16901E047
:100410001B4E7168C0F3034583B200F44016B6F575
:10042000401F08D121F07061154E766826F0706685
:10043000134F7E6012E000F48016B6F5801F06D1DF
:10044000032606FA05F4A14341F0706106E0460D6B
:10045000360103FA06F6B14341F0706122B1460D50
:10046000360103FA06F6314300F00046B6F1004FBC
:1004700002D1034EF16101E0014E7160F0BD000058
:10048000000001400161704700BFFEE708B501218F
:10049000042000F055F90121042000F051F9012158
:1004A000042000F04DF90121042000F049F9012158
:1004B000084600F045F901211548FFF79BFF01218F
:1004C0001448FFF797FF4FF40040ADF800004820B4
:1004D0008DF8030069461048FFF700FF4FF4804095
:1004E000ADF8000069460C48FFF7F8FE4FF40050E5
:1004F000ADF8000069460848FFF7F0FE4FF4805061
:10050000ADF8000069460448FFF7E8FE08BD0000AA
:1005100000023000000430000008014008B501214D
:10052000102000F00DF90121042000F009F901214B
:10053000042000F005F90121042000F001F9012157
:10054000042000F0FDF80121042000F0F9F8012159
:10055000042000F0F5F80121042000F0F1F8012159
:10056000042000F0EDF84FF40050ADF8000010202A
:100570008DF8030003208DF8020069463048FFF72C
:10058000ADFE4FF400512E48FFF77CFF0120ADF87F
:10059000000069462B48FFF7A1FE01212948FFF71B
:1005A00071FF0220ADF8000069462648FFF796FE6D
:1005B00002212448FFF766FF0420ADF800006946D9
:1005C0002048FFF78BFE04211E48FFF75BFF082041
:1005D000ADF8000069461B48FFF780FE0821194866
:1005E000FFF750FF1020ADF8000069461548FFF7EF
:1005F00075FE10211348FFF745FF2020ADF80000DD
:1006000069461048FFF76AFE20210E48FFF73AFFBF
:100610004020ADF8000069460A48FFF75FFE402120
:100620000848FFF72FFF8020ADF800006946054815
:10063000FFF754FE80210348FFF724FF08BD0000A8
:10064000001001400008014000BFFEE70EB5012187
:10065000084600F075F80F210020FFF71FFE0E215D
:100660000020FFF71BFE0D210020FFF717FE0C21D5
:100670000020FFF713FE28208DF8080002208DF8D7
:10068000090003208DF80A0001208DF80B0002A854
:1006900000F012F84FF47040009000208DF8040034
:1006A0000C208DF8050001208DF806006846FFF744
:1006B000ABFD0EBD7047000070B5002100230F2276
:1006C000C47804B3154C246804F4E064C4F5E06411
:1006D000210AC1F10403CA40447804FA03F1847882
:1006E0001440214309010E4C0678A155047804F00A
:1006F0001F050124AC4005786D11AD0005F1E02522
:10070000C5F8004109E0047804F01F050124AC405D
:10071000044D0678761145F8264070BD0CED00E0DA
:1007200000E400E080E100E002490143024A116078
:10073000704700000000FA050CED00E07047000073
:1007400029B1064A92690243044B9A6104E0034AC4
:1007500092698243014B9A61704700000010024089
:10076000704710B500F002F810BD00000CB5002075
:10077000019000903348006840F4803031490860AF
:1007800000BF3048006800F4003000900198401C21
:100790000190009818B90198B0F5A06FF1D12948DF
:1007A000006800F4003010B10120009001E000204A
:1007B00000900098012843D12348006840F01000C1
:1007C000214908600846006820F0030008600846D8
:1007D000006840F0020008601A4840681949486003
:1007E0000846406848600846406840F480604860B9
:1007F0000846406820F47C1048600846406840F491
:10080000E81048600846006840F08070086000BF4B
:100810000C48006800F000700028F9D009484068D2
:1008200020F00300074948600846406840F0020095
:10083000486000BF0348406800F00C000828F9D168
:100840000CBD00000010024000200240042808D126
:100850004FF0E021096941F004014FF0E0221161FD
:1008600007E04FF0E021096921F004014FF0E02298
:10087000116170477047000010B504466FF0040026
:10088000FFF7E4FFE11704EB5171C1F3C701074A19
:1008900011701046007800EB4001C1EBC0104FF61C
:1008A000FF7101EAC0000249088010BD000000206D
:1008B0000200002010B51348006840F00100114903
:1008C000086008464068104908400E4948600846DC
:1008D00000680E4908400B4908600846006820F48B
:1008E000802008600846406820F4FE0048604FF40D
:1008F0001F008860FFF735FF4FF000600449086073
:1009000010BD0000001002400000FFF8FFFFF6FEDF
:1009100008ED00E000BFFEE702E008C8121F08C1B2
:10092000002AFAD170477047002001E001C1121F70
:10093000002AFBD1704700000146114A12884A4341
:100940004FF0E0235A6100229A611A46126942F080
:1009500001021A6100BF4FF0E022106900F00102AD
:100960001AB100F48032002AF5D04FF0E02212696B
:1009700022F001024FF0E0231A6100229A617047D1
:100980000200002000244820FFF776FF4FF4A0600B
:10099000FFF7CAFEFFF7C2FDFFF778FDFFF756FE2F
:1009A00012E0601CC4B20A2094FBF0F100FB11407D
:1009B00038B90648006808B9012000E00020034962
:1009C00008600A20FFF7B8FFEBE70000B4012242FD
:1009D000F0090008000000200400000018090008C9
:1009E000F40900080400002004040000280900089D
:0409F0000000000003
:04000005080000ED02
:00000001FF
