:020000040800F2
:1000000058110020A1010008991100089B11000857
:100010009F110008A3110008A711000800000000AC
:10002000000000000000000000000000AB1100080C
:10003000AD11000800000000AF110008B111000868
:10004000BB010008BB010008BB010008BB010008A0
:10005000BB010008BB010008BB010008BB01000890
:10006000BB010008BB010008BB010008BB01000880
:10007000BB010008BB010008BB010008BB01000870
:10008000BB010008BB010008BB010008BB01000860
:10009000BB010008BB010008BB010008BB01000850
:1000A000BB010008BB010008BB010008BB01000840
:1000B000BB010008BB01000800000000BB010008F4
:1000C000BB0100080000000000000000BB010008A8
:1000D000000000002B450008BB01000800000000E4
:1000E000BB010008BB010008BB01000800F002F8DA
:1000F00000F047F80AA090E8000C82448344AAF17B
:100100000107DA4501D100F03CF8AFF2090EBAE878
:100110000F0013F0010F18BFFB1A43F0010318473B
:100120007C4F00009C4F0000103A24BF78C878C173
:10013000FAD8520724BF30C830C144BF04680C60ED
:10014000704700000023002400250026103A28BF35
:1001500078C1FBD8520728BF30C148BF0B60704739
:10016000642904F06782002070471FB59DE80300F2
:1001700004F05AFD04F024FB1FBD10B504F089FB08
:1001800010BD04F0ECFB1146FFF7EFFF00F0A0FFFD
:1001900004F0F0FC03B4FFF7F0FF03BC04F0D6FE5C
:1001A0000948804709480047FEE7FEE7FEE7FEE70B
:1001B000FEE7FEE7FEE7FEE7FEE7FEE70448054947
:1001C000054A064B7047000093120008ED00000836
:1001D000580B002058110020580D0020580D002009
:1001E00031490143314A1160704770B50021002345
:1001F0000F22C47804B32D4C246804F4E064C4F5E1
:10020000E064210AC1F10403CA40447804FA03F10E
:100210008478144021430901254C0678A1550478BF
:1002200004F01F050124AC4005786D11AD0005F107
:10023000E025C5F8004109E0047804F01F05012419
:10024000AC401C4D0678761145F8264070BD1A4A20
:100250000A400243154B1B1F1A60704739B1134AFD
:10026000121D12680243114B1B1D1A6006E00F4A53
:10027000121D126882430D4B1B1D1A607047042823
:1002800008D14FF0E021096941F004014FF0E0226C
:10029000116107E04FF0E021096921F004014FF0FE
:1002A000E0221161704700000000FA050CED00E04B
:1002B00000E400E080E100E080FFFF1F10B504468D
:1002C000CC48844208D10121042000F02DFB0021FC
:1002D000042000F029FB46E0C748844208D10121F0
:1002E000082000F021FB0021082000F01DFB3AE06F
:1002F000C248844208D10121102000F015FB0021E2
:10030000102000F011FB2EE0BD48844208D10121ED
:10031000202000F009FB0021202000F005FB22E056
:10032000B848844208D10121402000F0FDFA0021A4
:10033000402000F0F9FA16E0B348844208D10121C8
:10034000802000F0F1FA0021802000F0EDFA0AE0B0
:10035000AE48844207D10121801500F0E5FA002162
:10036000A01500F0E1FA10BD10B50121084600F01B
:10037000DBFA0021012000F0D7FA10BD2DE9F04191
:10038000024600250026002000230024002791F8C3
:1003900003C00CF00F0591F803C00CF0100CBCF179
:1003A000000F03D091F802C04CEA050591F800C097
:1003B000BCF1000F31D0146800202BE04FF0010C8D
:1003C0000CFA00F3B1F800C00CEA03069E4220D1FB
:1003D00083004FF00F0C0CFA03F7BC4305FA03FC43
:1003E0004CEA040491F803C0BCF1280F06D14FF089
:1003F000010C0CFA00FCC2F814C00AE091F803C02A
:10040000BCF1480F05D14FF0010C0CFA00FCC2F80A
:1004100010C0401C0828D1D31460B1F800C0BCF152
:10042000FF0F34DD546800202EE000F1080C4FF07F
:10043000010808FA0CF3B1F800C00CEA03069E426A
:1004400021D183004FF00F0C0CFA03F7BC4305FADF
:1004500003FC4CEA040491F803C0BCF1280F05D159
:1004600000F1080C08FA0CF8C2F8148091F803C0E7
:10047000BCF1480F07D100F1080C4FF0010808FA51
:100480000CF8C2F81080401C0828CED35460BDE898
:10049000F0814FF6FF710180022181700421C1704B
:1004A00070470246002093680B400BB1012000E02A
:1004B000002070470146886880B2704702460020DD
:1004C000D3680B400BB1012000E0002070470146CB
:1004D000C86880B2704701617047416170470AB1D6
:1004E000016100E041617047C16070474FF48032A4
:1004F0000A43826181618261826982697047024632
:100500000020434B18684FF68073184040EA0210F1
:1005100008433F4B186070473E49C8617047F0B5CB
:100520000A46002300240021002500F00046B6F111
:10053000004F02D1364EF16901E0354E7168C0F3CB
:10054000034583B200F44016B6F5401F08D121F0F0
:1005500070612F4E766826F070662D4F7E6012E037
:1005600000F48016B6F5801F06D1032606FA05F4BE
:10057000A14341F0706106E0460D360103FA06F62C
:10058000B14341F0706122B1460D360103FA06F61F
:10059000314300F00046B6F1004F02D11C4EF1612C
:1005A00001E01B4E7160F0BD30B500228B071C0FBF
:1005B0000F2303FA04F2164B08338C1053F824303F
:1005C0009343134C08348D1044F8253023468C1087
:1005D00053F824308C07240F00FA04F423430C4C06
:1005E00008348D1044F8253030BD0A49DC310860EC
:1005F0007047000000080140000C0140001001405D
:100600000014014000180140001C0140002001407E
:100610000000014000002042DF48006840F0010077
:10062000DD49086008464068DC490840DA4948600E
:1006300008460068DA490840D7490860084600685B
:1006400020F4802008600846406820F4FE004860DE
:100650004FF41F0088607047CF49096821F480314A
:10066000CD4A11601146096821F480211160B0F56E
:10067000803F03D0B0F5802F0ED106E0C64909684F
:1006800041F48031C44A116007E0C349096841F46C
:10069000A021C14A116000E000BF00BF704710B543
:1006A00001460022002300204A11012A02D1BA4C3F
:1006B000236806E0022A02D1B74C236A01E0B64C57
:1006C000636A01F01F02012494401C400CB1012018
:1006D00000E0002010BD38B5002000900024002567
:1006E00000BF3120FFF7DBFF05460098401C00905B
:1006F0000098B0F5A06F01D0002DF2D03120FFF7A7
:10070000CEFF08B1012400E00024204638BD014698
:100710000020A14A106820F0F80040EAC1001060F3
:100720007047A04908607047024600209A4B5868FD
:1007300020F47C1042EA01031843974B586070473D
:1007400098490866704701460020934A506820F097
:1007500003000843506070478F48406800F00C0069
:100760007047014600208C4A506820F0F000084392
:100770005060704701460020874A506820F4E060CE
:1007800008435060704701460020834A506820F4B7
:10079000605040EAC1005060704729B17E4A527AE9
:1007A00002437D4B5A7204E07B4A527A82437A4B71
:1007B0005A7270477B49D831086070470146002063
:1007C000754A506820F4404008435060704700214B
:1007D000714A20321170704A82F82010012802D02C
:1007E00004280AD104E001216B4A2032117005E08F
:1007F0000521694A2032117000E000BF00BF704738
:100800006949086070476449096A0143624A116294
:100810007047654944390860704730B500210022AF
:10082000002400235C4D6D6805F00C0121B1042902
:1008300005D0082923D105E05C4D056022E05B4D21
:1008400005601FE0544D6D6805F47012524D6D68DF
:1008500005F48034022505EB92421CB9544D5543F2
:1008600005600BE04C4D6D6805F400351DB1504D31
:100870005543056002E04D4D5543056002E04B4D88
:10088000056000BF00BF444D6D6805F0F001090927
:10089000484D6B5C0568DD4045603F4D6D6805F473
:1008A000E061090A434D6B5C4568DD4085603A4D67
:1008B0006D6805F46051C90A3E4D6B5C4568DD40CA
:1008C000C560354D6D6805F44041890B3A4D6B5C50
:1008D000C568B5FBF3F5056130BD29B12E4A5269F3
:1008E00002432D4B5A6104E02B4A526982432A4B42
:1008F0005A61704729B1284A92690243264B9A618E
:1009000004E0254A92698243234B9A61704729B1DA
:10091000214AD2690243204BDA6104E01E4AD269BF
:1009200082431D4BDA61704729B11B4AD2680243EA
:10093000194BDA6004E0184AD2688243164BDA6039
:10094000704729B1144A12690243134B1A6104E03B
:10095000114A12698243104B1A617047124940399B
:10096000086070470F49C86470470B49C8717047E9
:100970000948406A40F08070074948627047014664
:100980000020054A92680A400AB1012000E00020D8
:100990007047014988727047001002400000FFF85C
:1009A000FFFFF6FE000042428004424200127A003D
:1009B00000093D00000000201000002010B5044692
:1009C000BE48844208D101218014FFF7ADFF002109
:1009D000A014FFF7A9FF16E0B948844208D101210D
:1009E0000014FFF7AEFF00212014FFF7AAFF0AE072
:1009F000B448844207D10121C013FFF7A2FF0021B0
:100A0000E013FFF79EFF10BD10B50022028802F42C
:100A100041520B884C8823438C882343CC88234342
:100A20000C8923434C8923438C892343CC8923435A
:100A30001A430280838B4FF2FF74234083830B8A17
:100A4000038210BD2DE9F04F85B005460C464FF0EE
:100A5000000902274FF000084FF0010B0026B246B4
:100A6000A88B4FF240010840A88302202884B5F8E3
:100A70001C90A068022801D100BF38E0A08810B9FE
:100A80004FF0010B01E04FF0020B8D48854200D181
:100A900000E000BF6846FFF7C0FEDDF800A0E08878
:100AA000B0F5007F0AD14FEA1A2000EB8000400029
:100AB000A168B0FBF1F0401D86B20BE04FEA4B108D
:100AC000BAFBF0F000EB80004000A168B0FBF1F051
:100AD000401D86B20A20B6FBF0F606F00108A6EB30
:100AE0000800C0F34F074FF6FF7000EA0828022FF6
:100AF00001DBFF2F02DD02274FF00008E08840EA0B
:100B0000080038432884A088A189084361880843E5
:100B10002188084340F4006040EA0909A5F81C90C8
:100B200005B0BDE8F08F0021018041808180C18047
:100B3000018141818181C1810721018270470021AA
:100B4000018041808180C1800221816000218181FA
:100B5000704721B1028842F04002028004E002881E
:100B60004FF6BF731A400280704721B1828B42F466
:100B70008062828304E0828B4FF6FF331A408283C7
:100B8000704730B5002400230C110125A540ABB2FD
:100B90001AB185881D43858002E085889D43858044
:100BA00030BD1AB183880B43838002E083888B4376
:100BB00083807047818170470146888970474FF66E
:100BC000FF62914204D0028842F48072028004E005
:100BD00002884FF6FF631A400280704721B1828875
:100BE00042F00402828004E082884FF6FB731A40D0
:100BF0008280704702884FF2FF731A400280028899
:100C00000A4302807047018841F480510180704797
:100C100021B1028842F40052028004E002884DF6BD
:100C2000FF731A400280704702460020012901D05C
:100C3000108B00E0908A70470146088A7047B1F532
:100C4000804F04D1028842F48042028004E002888E
:100C50004BF6FF731A40028070470246002013894A
:100C60000B400BB1012000E000207047CA43028115
:100C70007047F0B50246002000240023002501F053
:100C80000F070126BE40B4B20B1101269E40B3B23D
:100C9000968806EA03051689264016B10DB1012093
:100CA00000E00020F0BD10B5002201F00F04012388
:100CB000A3409AB2D343038110BD0000003001402D
:100CC00000380040003C004010B50446FB48844218
:100CD00009D101218803FFF727FE00214FF480404E
:100CE000FFF722FE32E0F648844209D10121480490
:100CF000FFF727FE00214FF40030FFF722FE25E02A
:100D0000F048844209D101218804FFF71AFE00212E
:100D10004FF48020FFF715FE18E0EB48844209D11C
:100D20000121C804FFF70DFE00214FF40020FFF75A
:100D300008FE0BE0E548844208D101210805FFF7D1
:100D400000FE00214FF48010FFF7FBFD10BD2DE9E0
:100D5000F04786B005460E460024A24600BFA146D5
:100D60000027B08900B100BF2F462C8A4CF6FF70D7
:100D70000440F08804432C82AC894EF6F310044002
:100D8000B08831890843718908430443AC81AC8A37
:100D90004FF6FF400440B0890443AC8201A8FFF73E
:100DA0003CFDC648874202D1DDF810A001E0DDF825
:100DB0000CA0A88900F4004040B10AEBCA0000EB87
:100DC0000A1031684900B0FBF1F807E00AEBCA00ED
:100DD00000EB0A1031688900B0FBF1F86420B8FB21
:100DE000F0F004012009642101FB1089A88900F4B6
:100DF000004040B1322000EBC900B0FBF1F000F040
:100E00000700044308E0322000EB09106421B0FB26
:100E1000F1F000F00F0004432C8106B0BDE8F0872C
:100E20004FF41651016000218180C18001810C21A5
:100E3000418100218181704710B502460020108A4F
:100E40004FF2FF0318400B884C8823438C882343C0
:100E5000CC8823431843108210BD002101804180BB
:100E60008180C180704721B1828942F40052828121
:100E700004E082894DF6FF731A4082817047F0B515
:100E80000346002400260025002040F66A17B942D8
:100E900000D100BF1846C1F3421401F01F0601271C
:100EA00007FA06F5012C01D10C3004E0022C01D127
:100EB000103000E014301AB107682F43076002E0D9
:100EC0000768AF430760F0BD1AB1838A0B43838282
:100ED00002E0838A8B4383827047028A4FF6F07365
:100EE0001A400282028A0A430282704782894FF2C4
:100EF000FF731A40828182890A438281704721B13F
:100F0000828942F00202828104E082894FF6FD73F9
:100F10001A4082817047028A4FF6DF731A400282BC
:100F2000028A0A430282704721B1028A42F4804257
:100F3000028204E0028A4BF6FF731A400282704775
:100F4000C1F308028280704701468888C0F3080018
:100F50007047818941F0010181817047028BD2B2D3
:100F60000283028B42EA012202837047028B02F461
:100F70007F420283028B0A430283704721B1828A37
:100F800042F02002828204E0828A4FF6DF731A4028
:100F90008282704721B1828A42F01002828204E08C
:100FA000828A4FF6EF731A408282704721B1828A9B
:100FB00042F00802828204E0828A4FF6F7731A40F8
:100FC0008282704721B1828942F40042828103E02B
:100FD0008289C2F30E028281704721B1828A42F473
:100FE0000062828204E0828A4FF2FF731A4082829A
:100FF0007047828A4FF6FB731A408282828A0A43C4
:101000008282704721B1828A42F00202828204E029
:10101000828A4FF6FD731A40828270470246002092
:10102000B1F5007F00D100BF13880B400BB1012048
:1010300000E00020704701F40072B2F5007F00D19B
:1010400000BFCA430280704770B5024600240023E7
:101050000025002040F66A16B14200D100BFC1F35E
:10106000421501F01F03012606FA03F3012D02D1F8
:101070009689334006E0022D02D1168A334001E002
:10108000968A33400C12012606FA04F4168834407E
:1010900013B10CB1012000E0002070BD10B500229A
:1010A000002340F66A14A14200D100BF0A120124B5
:1010B0009440A3B2DC43048010BD0000003801401E
:1010C0000044004000480040004C004000500040F8
:1010D000012400F0F4FD04464FF4E13003F0D2F9AE
:1010E00019480470214619A003F064FA1949002038
:1010F00001F052FF184908700846017817A003F064
:1011000059FA0A2218A11B4801F059FF1249087028
:101110000846017818A003F04DFA1A4B0A221A4922
:10112000144802F0F2F80C4908700846017817A03C
:1011300003F040FA0F4802F04BFA0021084601F094
:101140002BFF00BFFEE70000340000207265743AF8
:1011500025640A00600000201400002072657331CD
:101160003A25640A000000004D456E672E747874BD
:101170000000000094020020726573323A25640A70
:10118000000000001C0000208450000872657333CA
:101190003A25640A00000000704700BFFEE700BF68
:1011A000FEE700BFFEE700BFFEE7704770477047ED
:1011B000704700000CB50020019000906C4800685A
:1011C00040F480306A49086000BF6948006800F454
:1011D000003000900198401C0190009818B90198C7
:1011E000B0F5A06FF1D16248006800F4003010B192
:1011F0000120009001E0002000900098012843D1D8
:101200005C48006840F010005A49086008460068D1
:1012100020F0030008600846006840F00200086003
:10122000534840685249486008464068486008464C
:10123000406840F4806048600846406820F47C10B4
:1012400048600846406840F4E81048600846006876
:1012500040F08070086000BF4548006800F00070F2
:101260000028F9D04248406820F003004049486017
:101270000846406840F00200486000BF3C484068B3
:1012800000F00C000828F9D10CBD10B5FFF792FF53
:1012900010BD10B53648006840F0010034490860C0
:1012A00008464068344908403149486008460068AB
:1012B000324908402E4908600846006820F4802022
:1012C00008600846406820F4FE0048604FF41F00A4
:1012D0008860FFF7DAFF4FF000602949086010BD11
:1012E00010B5002100200022214B5B6803F00C01A7
:1012F00021B1042906D0082928D107E0214B224C2E
:10130000236027E01F4B204C236023E0184B5B68D1
:1013100003F47010164B5B6803F48032022303EB76
:10132000904022B9194B4343174C23600DE0104BFA
:101330005B6803F4003323B1144B4343124C236026
:1013400003E0104B4343104C236003E00D4B0E4C65
:10135000236000BF00BF064B5B68C3F303130C4C54
:10136000E15C094B1B68CB40074C236010BD0000BB
:1013700000100240002002400000FFF8FFFFF6FED0
:1013800008ED00E000127A002000002000093D0076
:101390002400002070B505460DB1012070BD00F09D
:1013A0008EFC04465F480470007808B10220F5E71F
:1013B000022C01D10220F1E70CB10120EEE7002060
:1013C000ECE7014609B1012070475648007808B1A2
:1013D0000220F9E70020F7E72DE9F04106460F4625
:1013E00014461D464FF0000806B915B90420BDE8A3
:1013F000F0814C48007808B10320F8E7012D12D1A4
:1014000049480078042806D061026A02384600F094
:10141000CDFC80460DE04FF400722146384600F0C6
:10142000C5FC804605E06A026102384600F03FFDD7
:101430008046B8F1000F01D10020D8E70120D6E79F
:101440002DE9F0410746884616461D4607B915B9ED
:101450000420BDE8F0813348007808B10320F8E7A4
:10146000012D12D130480078042806D071026A029A
:10147000404600F053FC044618E04FF40072314639
:10148000404600F04BFC044610E027480078042852
:1014900006D06A027102404600F0BCFC044605E03A
:1014A0006A023146404600F0B5FC04460CB9002003
:1014B000CFE70120CDE72DE9F04106460F4615465E
:1014C0001848007810B10320BDE8F0810EB1042067
:1014D000FAE727B1012F19D0032F1CD111E04FF4E7
:1014E00080511248FEF7F9FFFF2000F0F2F808B92A
:1014F000002400E001244FF480510C48FEF7EBFF7C
:101500000BE00B4800882880002406E009480068AA
:101510002860002401E0042400BF00BF2046D3E778
:10152000704700003400002038000020000C01400B
:10153000400000203C00002000B587B001210D20B4
:10154000FFF7D8F901218803FFF7E1F94FF4604074
:10155000ADF8180003208DF81A0018208DF81B0034
:1015600006A9FE48FEF70AFF4FF48040ADF81800C8
:1015700003208DF81A0048208DF81B0006A9F748B3
:10158000FEF7FCFE4FF48050ADF8180003208DF8F4
:101590001A0010208DF81B0006A9F048FEF7EEFE99
:1015A0004FF48051ED48FEF796FF0021EC48FFF71D
:1015B000D0FA0020ADF804004FF48270ADF80600B8
:1015C0000020ADF808000220ADF80A000120ADF8B7
:1015D0000C004002ADF80E003820ADF810000020DD
:1015E000ADF812000720ADF8140001A9DC48FFF7A0
:1015F0000BFA0121DA48FFF7ACFA07B000BD00B5DD
:1016000085B00021D648FFF7A4FA0020ADF800000D
:101610004FF48270ADF802000020ADF80400022003
:10162000ADF806000120ADF808004002ADF80A0050
:101630000820ADF80C000020ADF80E000720ADF832
:1016400010006946C648FFF7DFF90121C448FFF7DB
:1016500080FA05B000BD00BFC1490831098801F01A
:1016600002010029F8D0BE490C310880704700BF44
:10167000BB480830008800F002000028F8D0FF20A6
:10168000B7490C31088000BFB5480830008800F029
:1016900001000028F8D0B2480C300088C0B2704772
:1016A000014600BFAE480830008800F00200002864
:1016B000F8D0AB480C30018000BFA9480830008842
:1016C00000F001000028F8D0A5480C300088C0B216
:1016D000704700B5034640F6FF7200E0521EFFF768
:1016E000C6FF984201D0002AF8D10AB9FF2000BDF8
:1016F0000020FCE73CB504460B461546002244F0AA
:1017000040008DF80000180E8DF80100180C8DF8BF
:101710000200180A8DF80300D8B28DF804008DF885
:10172000055000BF04E01DF80200FFF794FF521CB3
:10173000062AF8D33CBD7FB504460025FF264FF4AA
:1017400080518648FEF7C9FEFF2200210920FFF7DD
:10175000D1FF0020FFF7BDFF98B9FE20FFF7B9FFCA
:1017600040B900BF04E0FFF782FF0DF805006D1CD3
:10177000102DF8D3FF20FFF76EFFFF20FFF76BFF60
:1017800000264FF480517548FEF7A5FEFF20FFF7B5
:1017900062FF9DF80000800920709DF80000C0F3F2
:1017A000830060709DF8000000F00300A0709DF8B9
:1017B0000100E0709DF8020020719DF80300607147
:1017C0009DF804000001E080E0889DF8051040EAE3
:1017D0001110E0809DF8050000F00F0020729DF8C8
:1017E0000600C00960729DF80600C0F38010A07268
:1017F0009DF80600C0F34010E0729DF80600C0F3AB
:1018000000102073002060739DF806008007000D13
:10181000E081E0899DF8071040EA8100E081E089DD
:101820009DF8081040EA9110E0819DF80800C0F38F
:10183000C20020749DF8080000F0070060749DF855
:1018400009004009A0749DF80900C0F38200E0740B
:101850009DF809008007400F2075207D9DF80A1033
:1018600040EAD11020759DF80A00C0F3840060752D
:101870009DF80A008007C00EA075A07D9DF80B1092
:1018800040EA5110A0759DF80B0000F01F00E075B4
:101890009DF80C00C00920769DF80C00C0F34110A3
:1018A00060769DF80C00C0F38200A0769DF80C00D5
:1018B0008007000FE076E07E9DF80D1040EA911061
:1018C000E0769DF80D00C0F340102077002060778F
:1018D0009DF80D0000F00100A0779DF80E00C009F2
:1018E000E0779DF80E00C0F3801084F820009DF88A
:1018F0000E00C0F3401084F821009DF80E00C0F3E4
:10190000001084F822009DF80E00C0F3810084F8D6
:1019100023009DF80E0000F0030084F824009DF8D9
:101920000F00400884F82500012084F82600304686
:1019300004B070BD70B5002500240A48FFF7FBFE17
:101940000848C089451C0748007D801C012101FA18
:1019500000F405FB04F00449086007E0000C0140B6
:10196000003800400C0900203C000020FA48017AB1
:1019700001208840F9490860F9480068096848432F
:10198000F849086070BD10B541F6FE744FF48051FF
:10199000F548FEF7A2FD952200210846FFF7AAFEB2
:1019A0000120FFF796FE08B1FF2010BD00BF4FF4E5
:1019B0008051ED48FEF78FFDFF20FFF74CFE4FF4FE
:1019C0008051E948FEF789FDFF2200210120FFF741
:1019D00091FE641E0CB9FF20E7E70020FFF779FEB7
:1019E0000028E4D14FF48051DF48FEF774FDFF205A
:1019F000FFF731FEFFF703FEFFF79CFF0020DB49F6
:101A0000087000BFD1E72DE9F04105460C461646A7
:101A10000027FF20FFF744FE4FF48051D248FEF725
:101A20005CFD45F04000FFF73BFE200EFFF738FE5F
:101A3000C4F30740FFF734FEC4F30720FFF730FE7E
:101A4000E0B2FFF72DFE3046FFF72AFE04E0781CD7
:101A5000C7B23C2F00DD05E0FF20FFF721FE8046E6
:101A6000FF28F4D000BF4046BDE8F0812DE9F041E9
:101A700005460C4616460027FF20FFF711FE4FF4DF
:101A80008051B948FEF729FD45F04000FFF708FEF8
:101A9000200EFFF705FEC4F30740FFF701FEC4F375
:101AA0000720FFF7FDFDE0B2FFF7FAFD3046FFF734
:101AB000F7FD04E0781CC7B23C2F00DD05E0FF20F5
:101AC000FFF7EEFD8046FF28F4D000BF4FF48051B1
:101AD000A548FEF700FDFF20FFF7E2FD4046BDE808
:101AE000F0817CB5FFF728FD4FF480519E48FEF74A
:101AF000F4FC002601E0701C86B2B6F5706FFADBCC
:101B0000002604E0FF20FFF7CBFD701C86B20A2EF2
:101B1000F8DB002500BF952200210846FFF7A6FF4D
:101B20000446681C85B2012C01D03C2DF3DB3C2D12
:101B300001D101207CBD87224FF4D5710820FFF729
:101B400062FF0446052C4FD101208949087001032A
:101B50008548FEF7C0FCFF20FFF7A2FD002500BF6F
:101B6000002211463720FFF781FF0446012C01D0E7
:101B70002046DFE7002211462920FFF777FF0446C1
:101B8000681C85B20CB13C2DEADB3C2D13D100253D
:101B900000BF002211460120FFF768FF0446681CC1
:101BA00085B20CB13C2DF4DB3C2D01D10120C1E705
:101BB00000206F490870FFF722FDFF20FFF770FD3E
:101BC000952200213B20FFF751FF04460CB120462F
:101BD000B0E795224FF400711020FFF747FF04464D
:101BE000002C6AD02046A5E7012C66D1FF20FFF724
:101BF00057FD8DF80000FF20FFF752FD8DF8010022
:101C0000FF20FFF74DFD8DF80200FF20FFF748FD94
:101C10008DF8030021035448FEF75DFCFF20FFF719
:101C20003FFD002500BF002211463720FFF71EFFB1
:101C30000446012C01D020467CE700224FF0804171
:101C40002920FFF713FF04463C2D01DD204671E7F4
:101C5000002CE8D1002211463A20FFF7D4FE0446BA
:101C60000CB1204666E7FF20FFF71AFD8DF8000053
:101C7000FF20FFF715FD8DF80100FF20FFF710FD95
:101C80008DF80200FF20FFF70BFD8DF803004FF4E5
:101C900080513548FEF71FFCFF20FFF701FD9DF83E
:101CA000000000F0400018B104203149087002E043
:101CB00002202F490870FFF7A2FC20463AE770B5D2
:101CC0000025FFF70EFF044628480470204670BD2B
:101CD00010B5002318E0FFF7CAFC024602F01F020D
:101CE000052A04D00B2A04D00D2A06D103E00524CE
:101CF00005E00B2010BD0D20FCE7FF2400BF00BF56
:101D0000052C00D102E05B1C402BE4D900BF00BFD2
:101D1000FFF7ADFC0028FBD01046EBE72DE9F041C2
:101D200004460F46154600264FF0FF084FF4805139
:101D30000D48FEF7D2FBFF2239461820FFF7DAFCE8
:101D40000020FFF7C6FC30BBFF20FFF784FCFE201D
:101D5000FFF781FC00BF12E00C09002040000020CA
:101D60003C00002044000020000C01403400002012
:101D7000380000202078FFF76EFC641C761CAE4211
:101D8000F8D3FFF774FCFFF772FCFFF7A1FF0528FB
:101D900001D14FF000084FF48051B848FEF79BFB8B
:101DA000FF20FFF758FC4046BDE8F0812DE9F041E7
:101DB00004460F46154600264FF0FF084FF48051A9
:101DC000AE48FEF78AFBFF2239461120FFF792FC4E
:101DD0000020FFF77EFC90B9FE20FFF77AFC70B977
:101DE00000BF04E0FFF743FC2070641C761CAE4289
:101DF000F8D3FFF73CFCFFF73AFC4FF000084FF434
:101E000080519E48FEF767FBFF20FFF724FC404609
:101E1000BDE8F0812DE9F04704460D46164600273F
:101E2000B946B8464FF0FF0A4FEA56294FF48051A1
:101E30009248FEF752FB2BE005EB0801FF22182029
:101E4000FFF758FC0020FFF744FC10B1FF20BDE86D
:101E5000F087FF20FFF7FFFBFE20FFF7FCFB0027CA
:101E600004E02078FFF7F7FB641C7F1CB7F5007FC8
:101E7000F7D308F50078FFF7FAFBFFF7F8FBFFF759
:101E800027FF052802D14FF0000A01E04FF0FF0ABA
:101E9000B9F10000A9F10109CED14FF48051774882
:101EA000FEF719FBFF20FFF7D6FB5046CFE72DE9E1
:101EB000F04704460D4616460027B946B8464FF08F
:101EC000FF0A4FEA56294FF480516C48FEF705FB94
:101ED00025E005EB0801FF221120FFF70BFC002095
:101EE000FFF7F7FB10B1FF20BDE8F087FE20FFF7FA
:101EF000F0FB90B9002704E0FFF7B9FB2070641CE9
:101F00007F1CB7F5007FF7D308F50078FFF7AFFB2C
:101F1000FFF7ADFB4FF0000A01E04FF0FF0AB9F107
:101F20000000A9F10109D4D14FF480515348FEF7C4
:101F3000D2FAFF20FFF78FFB5046D5E77FB5044666
:101F40000025FF264FF480514C48FEF7C6FAFF22C9
:101F500000210A20FFF7CEFB0020FFF7BAFB98B95B
:101F6000FE20FFF7B6FB40B900BF04E0FFF77FFBA0
:101F70000DF805006D1C102DF8D3FF20FFF76BFB4B
:101F8000FF20FFF768FB00264FF480513B48FEF727
:101F9000A2FAFF20FFF75FFB9DF8000020709DF87C
:101FA00001000002608060889DF802100843608094
:101FB0009DF803000006606060689DF8041040EA28
:101FC0000140606060689DF8051040EA0120606093
:101FD00060689DF80610084360609DF80700207255
:101FE0009DF8080060729DF809000006E060E06856
:101FF0009DF80A1040EA0140E060E0689DF80B108F
:1020000040EA0120E060E0689DF80C100843E060C1
:10201000207C9DF80D1040EA111020749DF80D00F1
:102020000007000D6082608A9DF80E1008436082F0
:102030009DF80F004008207501206075304604B0FF
:1020400070BD10B500244FF480510C48FEF745FADE
:10205000FF2200210D20FFF74DFBFFF708FB044690
:10206000FFF705FB44EA00244FF480510348FEF7D4
:1020700032FAFF20FFF7EFFA204610BD000C0140B6
:1020800070B503460C4603E014F8015B03F8015BEE
:10209000151EA2F10102F7D170BD30B5034601E073
:1020A00003F8011B141EA2F10102F9D130BDF0B5F5
:1020B00003461C460D46002000BF161EA2F1010279
:1020C00007D014F8017B15F801CBA7EB0C06301EE6
:1020D000F3D0F0BD024600E0521C107810B1107829
:1020E0008842F9D1107870472DE9F04104460D4639
:1020F000266BAE422FD0207908B360780123324698
:1021000004F13401FFF79CF910B10120BDE8F08122
:1021100000202071D4E908100844B0420FD9E778B4
:102120000AE0206A064460780123324604F1340153
:10213000FFF786F9781EC7B2012FF2DC00BF55B158
:10214000607801232A4604F13401FFF745F908B10C
:102150000120DBE725630020D8E770B504460021A5
:102160002046FFF7C1FF0546002D59D120780328EE
:102170004FD1607900284CD0002020634FF40072CA
:10218000002104F13400FFF788FF552184F8321252
:10219000AA2184F83312522084F8340052213520C9
:1021A0000155612136200155412137200155722109
:1021B00084F8181284F81912412184F81A12612146
:1021C00084F81B12217C84F81C12208A010A84F8EE
:1021D0001D122069010C84F81E122069010E84F87A
:1021E0001F12217B84F82012A089010A84F8211291
:1021F000E068010C84F82212E068010E84F82312D2
:102200006078012304F134016269FFF719F90020B5
:102210006071607800221146FFF74DF900B1012589
:10222000284670BD0246891ED069801E884201D8AA
:10223000002070479378D06A01FB0300F9E72DE98D
:10224000F04105460C46022C02D3E869A04202D8B0
:102250000120BDE8F0812878012804D002282CD084
:1022600003285AD13DE0274607EB5707686A00EB81
:1022700057212846FFF738FF00B14EE0C7F30801A9
:1022800005F1340010F801807F1C686A00EB5721CB
:102290002846FFF729FF00B13FE0C7F3080105F129
:1022A0003400405C48EA002804F0010010B14FEA15
:1022B0001810CEE7C8F30B00CBE7686A00EB1421D7
:1022C0002846FFF711FF00B127E040F2FF1000EAB7
:1022D000440105F134000E183078717840EA01208D
:1022E000B7E7686A00EBD4112846FFF7FDFE00B19E
:1022F00013E040F2FF1000EA840105F134000E18EB
:10230000F0780006B17840EA0140717840EA012097
:102310003178084320F070409BE700BF4FF0FF305A
:1023200097E72DE9F04705460E461746022E02D3E1
:10233000E869B04202D84FF002088AE02878012804
:1023400004D0022841D003287DD154E0B14609EBE6
:102350005909686A00EB59212846FFF7C5FE8046F7
:10236000B8F1000F00D071E0C9F3080105F13400A5
:102370000C1806F0010020B1F9B2207861F31F10AB
:1023800000E03846207009F1010901202871686ACF
:1023900000EB59212846FFF7A7FE8046B8F1000F51
:1023A00000D053E0C9F3080105F134000C1806F021
:1023B000010010B1C7F3071005E0207800F0F0002D
:1023C000C7F303210843207040E0686A00EB162140
:1023D0002846FFF789FE8046B8F1000F00D035E0AF
:1023E00040F2FF1000EA460105F134000C18277096
:1023F000380A60702AE0686A00EBD6112846FFF7B9
:1024000073FE8046B8F1000F00D01FE040F2FF10CD
:1024100000EA860105F134000C18E0780006A17886
:1024200040EA0140617840EA01202178084300F049
:10243000704007432770380A6070380CA070380E5F
:10244000E07003E0FFE74FF0020800BF00BF01208B
:1024500028714046BDE8F0872DE9F04104460E465C
:10246000022E02D3E069B04201D8022725E00027FE
:102470001FE031462046FFF7E2FE054605B91BE0A6
:10248000012D01D1022717E0681C08B9012713E0CC
:10249000002231462046FFF744FF074607B10BE014
:1024A0002069401C20B12069401C2061012060711E
:1024B0002E46E069B042DCD800BF3846BDE8F08166
:1024C0002DE9F04704468946B9F1000F06D1E768C7
:1024D00017B1E069B84211D801270FE049462046FC
:1024E000FFF7ADFE0646022E02D20120BDE8F087BE
:1024F000E069B04201D93046F8E74F463D4600BF9B
:102500006D1CE069A84204D80225BD4201D9002013
:10251000ECE729462046FFF792FE064606B909E099
:10252000701C08B1012E01D13046DFE7BD42E7D172
:102530000020DBE700BF6FF0704229462046FFF71E
:10254000F0FE8046B8F1000F08D1B9F1000F05D0B8
:102550002A4649462046FFF7E4FE8046B8F1000FC0
:1025600009D1E5602069401C68B12069401E2061E6
:102570000120607107E0B8F1010F02D14FF0FF3088
:1025800000E0012005462846B0E72DE9F041044669
:102590000E46E680A568012D03D02068C069A842D8
:1025A00002D80220BDE8F0812DB920680078032808
:1025B00001D12068856A65B9E56020680089B0426C
:1025C00001DC0220EEE72068806A00EB1610206133
:1025D00020E020688078070112E029462068FFF794
:1025E0002EFE0546681C08B90120DBE7022D03D347
:1025F0002068C069A84201D80220D3E7F01B86B248
:10260000BE42EADAE56029462068FFF70BFE00EBE0
:10261000161020612068343006F00F0100EB4110E5
:1026200060610020BEE72DE9F04104468846E0885D
:10263000401C86B20EB1206910B90420BDE8F081BB
:1026400006F00F0000286FD12069401C2061E0686F
:1026500028B920680089B04266DC0420EEE72068D3
:102660008078401E00EA161000285DD1E1682068DD
:10267000FFF7E5FD0546012D01D80220DEE7681CC5
:1026800008B90120DAE72068C069A84246D8B8F145
:10269000000F01D10420D1E7E1682068FFF710FFA7
:1026A00005460DB90720C9E7012D01D10220C5E774
:1026B000681C08B90120C1E700212068FFF714FD5C
:1026C00008B10120BAE7216801F134004FF400722B
:1026D0000021FFF7E2FC29462068FFF7A3FD2168EF
:1026E0000863002710E0012021680871002120689C
:1026F000FFF7FAFC08B10120A0E72068006B401C3E
:1027000021680863781CC7B220688078B842EADC88
:102710002068006BC01B2168086300BFE560294684
:102720002068FFF77FFD2061E6802068343006F0E6
:102730000F0100EB4110606100207FE72DE9F041BF
:10274000044600212046FFF720FF054615B1284624
:10275000BDE8F08100BF21692068FFF7C5FC054690
:1027600005B116E0666937780FB9042511E0F07AF3
:1027700000F0080030B90B223046A169FFF797FC42
:1027800000B906E000212046FFF74DFF0546002D69
:10279000E1D000BF2846DBE72DE9F04104460425DF
:1027A0001AE021692068FFF79FFC054605B116E095
:1027B00067693E780EB9042511E0E52E05D000BF0B
:1027C000F87A00F0080000B909E000212046FFF780
:1027D0002AFF054605B102E020690028E1D100BFCB
:1027E0000DB1002020612846BDE8F0812DE9F041BF
:1027F000044600212046FFF7C8FE0546ADB900BFDC
:1028000021692068FFF770FC054605B10CE060699E
:102810000678E52E00D006B906E001212046FFF734
:1028200002FF0546002DEBD000BF9DB9216920684D
:10283000FFF75AFC05466DB967692022002138462A
:10284000FFF72BFC0B223846A169FFF719FC01208A
:10285000216808712846BDE8F08170B50446E1881A
:102860002046FFF792FE05465DB921692068FFF713
:102870003BFC05462DB9E5206169087001202168FF
:102880000871284670BD2DE9F34F81B08B46019841
:1028900085690B2220212846FFF7FFFB0020064612
:1028A0000746804608200090DBF800A01AF80800D0
:1028B0002E2825D100BF404608F101081AF8004033
:1028C0002E2C02D1B8F1030F00D303E038467F1C51
:1028D0002C54F0E700BF2F2C06D05C2C04D0202C09
:1028E00002DD0620BDE8FE8F0AEB0800CBF80000F1
:1028F000202C01DC242000E02020E8720020F1E7F9
:1029000000BF404608F101081AF80040202C03DD02
:102910002F2C01D05C2C00D153E02E2C02D000983B
:1029200087420CD30098082801D12E2C01D0062014
:10293000D8E708270B200090B006060EE1E7802CB0
:1029400001DB46F00306812C20DBFE2C1EDC40461A
:1029500008F101081AF80090B9F1400F02DBB9F153
:102960007E0F05DDB9F1800F06DBB9F1FE0F03DC48
:102970000098401EB84201D80620B3E738467F1CB5
:102980002C5438467F1C05F8009019E02146FEA023
:10299000FFF7A0FB08B10620A4E7412C04DB5A2C6A
:1029A00002DC46F0020608E0612C06DB7A2C04DC2F
:1029B00046F00106A4F12000C4B238467F1C2C5416
:1029C0009FE700BF0AEB0800CBF80000202C01DCD9
:1029D000042000E0002004460FB9062082E7287892
:1029E000E52801D1052028700098082801D1B006FB
:1029F000060E06F00300012801D144F0100406F091
:102A00000C00042801D144F00804EC72002069E7AE
:102A1000F0B505460B4603F109022F69002F40D09F
:102A20006869067B00210AE0445C202C00D108E0A4
:102A3000052C00D1E52400BF02F8014B491C0829F0
:102A4000F2D300BF077A202F0FD02E2702F8017B88
:102A5000082107E0445C202C00D105E000BF02F80B
:102A6000014B491C0B29F5D300BFC77A1F72C77FE2
:102A70004FEA076C877F4CEA074C477F4CEA0727F1
:102A800090F81CC047EA0C071F6090F818C0477EFA
:102A90004CEA07279F8090F816C0C77D4CEA0727AD
:102AA000DF8000271770F0BD2DE9F341044601983F
:102AB00000782F2803D0019800785C2805D1019870
:102AC000401C01900020A06002E020688069A060A6
:102AD00001980078202807D200212046FFF755FDF5
:102AE00007460020606139E000BF01A92046FFF7DA
:102AF000CAFE074607B130E02046FFF71FFE074633
:102B0000A069C67A97B1042F00D026E006F0200015
:102B100038B10020A0606061002706F0040020B9F1
:102B2000E3E706F0040000B9052716E006F004000C
:102B300000B112E06569E87A00F0100008B90527D5
:102B40000BE0A97EE87E41EA00212A7D687D42EA09
:102B5000002041EA0040A060C7E700BF3846BDE85A
:102B6000FC8170B504460D46607801232A4604F1C5
:102B70003401FEF731FC08B1032070BD94F8321225
:102B800094F8330241EA00204AF65521884201D0E8
:102B90000220F2E794F86D00010694F86C0041EA17
:102BA000004194F86B0041EA002094F86A10084351
:102BB00020F07F407849884201D10020DDE794F879
:102BC0008900010694F8880041EA004194F88700E2
:102BD00041EA002094F88610084320F07F406E49B7
:102BE000884201D10020C8E70120C6E72DE9F74F50
:102BF00086B00698006800900098007830380590FC
:102C0000059809280AD8009840783A2806D10098F3
:102C1000801C009006990098086002E05F480078E8
:102C20000590059818B10B2009B0BDE8F08F5C49FC
:102C3000059851F82040079804600CB90C20F3E780
:102C4000207878B16078FEF7BCFB804608F0010080
:102C500040B9089820B108F0040008B10A20E3E761
:102C60000020E1E700202070059860706078FEF792
:102C700091FB804608F0010008B10320D4E70898D2
:102C800020B108F0040008B10A20CDE74FF0000A97
:102C900051462046FFF765FF0546012D13D104F587
:102CA000F977387978B1F87A0106B87A41EA0041C3
:102CB000787A41EA0020397A40EA010A51462046F2
:102CC000FFF74FFF0546032D01D10120ACE70DB101
:102CD0000D20A9E73F20015D94F8400041EA002063
:102CE000B0F5007F01D00D209EE74A20015D94F8E9
:102CF0004B0041EA0029B9F1000F0ED194F85B00B6
:102D0000010694F85A0041EA004194F8590041EA5A
:102D1000002094F8581040EA0109C4F8209044209B
:102D2000065DE670012E03D0022E01D00D207BE758
:102D300009FB06F94120005D0646A07016B1701E21
:102D4000304008B10D206FE74520015D94F8460042
:102D500041EA00202081207A00F00F0008B10D2008
:102D600062E74720015D94F8480041EA00200490A2
:102D70000498E8B994F85700010694F8560041EA1F
:102D8000004194F855000DE0222A2B2C3A3B3C3DA3
:102D90003E3F5B5D7C7F0000464154004E000020BA
:102DA0004800002041EA002094F8541008430490A1
:102DB0004220015D94F8430041EA0020019001980F
:102DC00008B90D2030E701984844218900EB111023
:102DD0000390DDE90301814201D20D2024E7DDE902
:102DE0000310401AA178B0FBF1FBBBF1000F01D139
:102DF0000D2019E7012540F6F670834500D3022522
:102E00004FF6F670834500D303250BF10200E06115
:102E100003985044E062019850446062032D16D13B
:102E2000208908B10D20FFE694F86300010694F8AC
:102E3000620041EA004194F8610041EA002094F800
:102E400060100843A062E0698000029014E02089CD
:102E500008B90D20E8E6606A4844A062022D02D15C
:102E6000E069400007E0207F00F00100E16901EB2C
:102E7000410100EB51000290216A029800F2FF101C
:102E8000B1EB502F01D20D20CEE64FF0FF30206184
:102E90000020E060032D5CD1607194F8641094F818
:102EA000650041EA0020504460616078012304F12C
:102EB00034016269FEF790FAF0BB94F8321294F88C
:102EC000330241EA00204AF65521884241D1372099
:102ED000005D01063620005D41EA00413520005DBD
:102EE00041EA002094F834100843FE49884230D16A
:102EF00094F81B02010694F81A0241EA004194F882
:102F0000190241EA002094F818120843F649884251
:102F10001FD194F82302010694F8220241EA0041ED
:102F200094F8210241EA002094F820120843E0605E
:102F300094F81F02010600E00BE094F81E0241EA3B
:102F4000004194F81D0241EA002094F81C12084345
:102F500020612570E5480088401C80B2E349088064
:102F6000E080002020632071A06100BF5CE670B5A6
:102F700004460D4624B1207810B1E088A84201D063
:102F8000092070BD6078FEF71CFA00F0010008B15E
:102F90000320F6E70020F4E70246012A01DB0B20BC
:102FA0007047D34850F822300BB10020187009B197
:102FB00000200870CE4840F822100020F0E72DE9EC
:102FC000F7438AB0054616460020286006F01F0623
:102FD00026F0010203A90BA8FFF708FE0746CDF86B
:102FE00024D027B903A80B99FFF75EFD0746089C7C
:102FF0000FB904B9062706F01C00002858D04FB1BD
:10300000042F03D103A8FFF7F1FB074646F008069B
:10301000089C09E006F0040008B1082704E0E07A03
:1030200000F0110000B10727002F40D106F0080082
:1030300000283CD0FEF774FA804684F80E804FEAF0
:103040001821E1734FEA184121744FEA1861617445
:103050000020E072207700216177A177E177A17EDF
:10306000E07E41EA0021227D607D42EA002041EAC3
:1030700000490020A0760021E176207561750120CD
:1030800003990871B9F1000F11D00398D0F830807E
:1030900049460398FFF7E0F9074647B9A9F101004F
:1030A0000399C86041460398FFF71EF807460EE0F3
:1030B0006FB9E07A00F0100008B1042707E006F0CD
:1030C000020020B1E07A00F0010000B1072747B903
:1030D00006F0080008B146F020060398006BE8618E
:1030E0002C62FFB9AE71A17EE07E41EA0021227D13
:1030F000607D42EA002041EA00402861E07F01064D
:10310000A07F41EA0041607F41EA0020217F08431F
:10311000E8600020A860A8616862039828600398AE
:10312000C088A88038460DB0BDE8F0832DE9FF4F78
:1031300083B0044615469A46DDF810B00020CAF860
:103140000000A1882068FFF712FF0290029818B1D2
:10315000029807B0BDE8F08FA07900F0800008B1B8
:103160000220F6E7A07900F0010008B90720F0E797
:10317000D4E90210401A00900098854200D9009DC1
:10318000BEE02089C0F3080000287AD1206880784A
:10319000401EA16800EA512000F0FF09B9F1000FBC
:1031A0001CD1A06808B9206903E061692068FFF7B5
:1031B00046F801900198012805D8A07940F08000D8
:1031C000A0710220C5E70198401C28B9A07940F001
:1031D0008000A0710120BCE70198606161692068EE
:1031E000FFF720F806462EB9A07940F08000A071C4
:1031F0000220AEE74E444FEA5528B8F1000F2DD01B
:1032000009EB080021688978884203D92068807812
:10321000A0EB090808F0FF032168487832465946B8
:10322000FEF7DAF828B1A07940F08000A071012003
:103230008FE7A07900F0400068B1A069801B40458D
:1032400009D2A169891B0BEB41204FF4007204F1F4
:103250002801FEF715FF4FEA48273DE0A07900F06E
:10326000400098B121684878012304F12801A2693F
:10327000FEF7E6F830B1A07940F08000A07101209F
:1032800067E716E0A07920F04000A071A069B04285
:103290000ED0216848780123324604F12801FEF758
:1032A0009BF828B1A07940F08000A071012050E780
:1032B000A6612089C0F30800C0F50077AF4200D9AD
:1032C0002F462089C0F3080204F1280011183A465D
:1032D0005846FEF7D5FE00BFBB44A0683844A06046
:1032E00008E0000052526141727241614C000020BE
:1032F00048000020DAF800003844CAF80000ED1B4E
:10330000002D7FF43EAF002023E72DE9FF4F83B06F
:10331000044615469B46049801900020CBF8000017
:10332000A1882068FFF723FE0290029818B1029846
:1033300007B0BDE8F08FA07900F0800008B102204E
:10334000F6E7A07900F0020008B90720F0E7E0688E
:103350002844E168884200D20025CDE02089C0F3EE
:103360000800002877D120688078401EA16800EA14
:10337000512000F0FF0ABAF1000F2AD1A06858B915
:10338000D4F81080B8F1000F0BD100212068FFF7AE
:1033900097F88046206104E061692068FFF790F8A3
:1033A0008046B8F1000F00D1A9E0B8F1010F05D1B6
:1033B000A07940F08000A0710220B9E708F1010077
:1033C00028B9A07940F08000A0710120B0E7C4F8CE
:1033D0001480A07900F0400090B121684878012362
:1033E00004F12801A269FEF72BF828B1A07940F07A
:1033F0008000A07101209BE7A07920F04000A0711F
:1034000061692068FEF70EFF06462EB9A07940F0EC
:103410008000A07102208BE756444FEA5529B9F18C
:10342000000F2FD00AEB090021688978884203D960
:1034300020688078A0EB0A0909F0FF03216848782A
:1034400032460199FDF7FCFF30B1A07940F08000D1
:10345000A07101206CE72CE0A069801B48450ED2CA
:10346000A069801B019A02EB40214FF4007204F125
:103470002800FEF705FEA07920F04000A0714FEA79
:1034800049272DE0A069B04212D0D4E90201884258
:103490000ED2216848780123324604F12801FDF755
:1034A0009BFF28B1A07940F08000A07101203FE788
:1034B000A6612089C0F30800C0F50077AF4200D9AB
:1034C0002F462189C1F3080204F1280150183A4619
:1034D0000199FEF7D5FDA07940F04000A07100BF32
:1034E000019838440190A0683844A060DBF80000DF
:1034F0003844CBF80000ED1B002D7FF42FAF00BF48
:10350000D4E90201884201D9A068E060A07940F0C6
:103510002000A07100200BE72DE9F0410446A188AE
:103520002068FFF724FD0746002F4FD1A07900F057
:10353000200000284AD0A07900F0400078B121682E
:103540004878012304F12801A269FDF779FF10B141
:103550000120BDE8F081A07920F04000A071E16970
:103560002068FEF7C1FD0746002F2FD1256AE87AB3
:1035700040F02000E872207B2877A089010A697753
:10358000E068010CA977E068010EE977207CA87655
:10359000208A010AE9762069000C28752069010E4D
:1035A0006975FDF7BDFF0646AE75310AE975310C48
:1035B0002976310E6976A07920F02000A0710120D3
:1035C000216808712068FEF7C8FD07463846C0E745
:1035D00070B504462046FFF79FFF05460DB9002051
:1035E0002060284670BD0146012901DB0B20704791
:1035F000FA4801700020FAE711B58BB0002204A947
:103600000BA8FFF7F3FA04462CBB01A80A9004A804
:103610000B99FFF749FA0446D4B9099818B90499E7
:103620000698886114E00998C07A00F0100070B123
:103630000998817EC07E41EA00210998027D407D83
:1036400042EA002041EA00400499886100E0052434
:10365000042C00D1052420460CB010BD2DE9F34305
:1036600091B0884600201199087000220AA911A87B
:10367000FFF7BCFA0546002D7ED101A81090464602
:103680000A9880690C9064E001210AA8FEF77DFF8A
:10369000054605B162E00AA8FFF77EF8054605B1C8
:1036A0005CE00F98817EC07E41EA00210F98027D88
:1036B000407D42EA002041EA00400C9000210AA827
:1036C000FEF763FF054605B148E000BF0AA8FFF713
:1036D00063F8054605B115E00F98817EC07E41EA8A
:1036E00000210F98027D407D42EA002041EA00401F
:1036F000484500D106E000210AA8FEF794FF0546E0
:10370000002DE3D000BF042D00D1022505B125E036
:1037100004A90AA8FFF77CF90DF1190400BF0027DE
:1037200000E07F1CE05D0028FBD1F81C864201D23E
:10373000112513E006E0781E0746215C701E064640
:10374000119A1154002FF6D12F21701E0646119A9E
:103750001154DDF83090B9F1000F95D100BF119CE4
:10376000C5B99E480078303004F8010B3A2004F8BF
:10377000010B464505D100E00EE02F2004F8010BB7
:1037800008E000BF3046761C1199085C04F8010B74
:103790004645F7D300202070284613B0BDE8F083DB
:1037A0002DE9FE4F04460D46A1882068FFF7DFFB98
:1037B0000290029810B10298BDE8FE8FA07900F047
:1037C000800008B10220F7E7606A002876D0676AB7
:1037D00057F804BB681C002836D126698EB300BF99
:1037E000BBF1040F02D21120029029E0B2464FF043
:1037F000000900BF019609F1010931462068FEF772
:103800001EFD0646012E05D8A07940F08000A0716B
:103810000220D1E7701C28B9A07940F08000A07187
:103820000120C9E70198401C8642E3D047F8049B79
:1038300047F804ABABF1020B2068C069B042CFD8A7
:1038400000BF002038606BE0E068A84200D2E56865
:10385000A560002D64D0681E4FEA5028206880784B
:10386000B8FBF0F600BF57F8049BB9F1000F05D183
:10387000A07940F08000A07102209DE74E4500D263
:1038800003E0A6EB09063F1DEDE700BF38683044B2
:10389000606120688078401E00EA0800C0B2009095
:1038A00061692068FEF7BEFC8046B8F1000F06D1C2
:1038B000A07940F08000A07102207DE731E00098FF
:1038C00080442089C0F3080050B3A069404527D048
:1038D000A07900F0400090B121684878012304F1FC
:1038E0002801A269FDF7ACFD28B1A07940F0800065
:1038F000A071012060E7A07920F04000A07121684C
:1039000048780123424604F12801FDF765FD28B1FE
:10391000A07940F08000A07101204DE7C4F8188024
:10392000C4E0E068A84204D2A07900F0020000B927
:10393000E568D4F808904FF00008C4F80880002D1E
:103940007AD0206880784702B9F1000F11D0681E44
:10395000B0FBF7F1A9F10100B0FBF7F0814208D309
:10396000A9F10100791E8843A060A0682D1A66693C
:1039700018E02669AEB900212068FEF7A1FD0646D1
:10398000012E05D1A07940F08000A071022013E73C
:10399000701C28B9A07940F08000A07101200BE7CD
:1039A00026616661F6B32CE0A07900F0020038B120
:1039B00031462068FEF784FD064636B93D4622E0D2
:1039C00031462068FEF73BFC0646701C40B9A079E2
:1039D00040F08000A0710120EEE600004E000020C3
:1039E000012E03D92068C069B04205D8A07940F003
:1039F0008000A0710220DFE66661A0683844A06004
:103A0000ED1BBD42D0D800BFA0682844A060C5F31C
:103A1000080038B131462068FEF704FC8046B8F152
:103A2000000F00E008E005D1A07940F08000A0710F
:103A30000220C1E608EB55282089C0F3080050B3E6
:103A4000A069404527D0A07900F0400090B12168DE
:103A50004878012304F12801A269FDF7F1FC28B19F
:103A6000A07940F08000A0710120A5E6A07920F0A7
:103A70004000A071216848780123424604F12801E2
:103A8000FDF7AAFC28B1A07940F08000A0710120C8
:103A900092E6C4F81880D4E90201884205D9A068EA
:103AA000E060A07940F02000A07100BF029883E69A
:103AB00033B583B004460022214604A8FFF796F8E8
:103AC00005464DBBC4F818D020460499FEF7ECFF1C
:103AD0000546F5B9606998B16069C07A00F01000D8
:103AE00068B16069817EC07E41EA00216069027D23
:103AF000407D42EA002041EA0040A06000E0052548
:103B00003DB92068C088A08000212046FEF73DFD19
:103B10000546042D00D10525284605B030BDFEB56B
:103B200004460E46A1882068FFF721FA054605BB2A
:103B30002EB900212046FEF728FD054619E0C4F8FD
:103B400018D02046FEF728FE0546042D02D100209D
:103B5000206100256DB931462046FEF759FF00214E
:103B60002046FEF760FD0546042D02D100202061AD
:103B700000252846FEBD33B58BB00D46002204A9B2
:103B80000BA8FFF733F804467CB901A80A9004A8F3
:103B90000B99FEF789FF04463CB9099820B12946E4
:103BA00004A8FEF735FF00E0062420460DB030BD26
:103BB0002DE9F74F82B08B4614460022214602A819
:103BC000FFF714F801900198002877D12068016967
:103BD000C069801E814204D820680069CBF80000CB
:103BE0006CE0206890F800A00026BAF1010F1DD10A
:103BF000022700BF39462068FEF721FB804608F106
:103C0000010010B9012001900FE0B8F1010F02D1BD
:103C10000220019009E0B8F1000F00D1761C781C59
:103C200007462168C9698842E4D33DE02068C76936
:103C30002068406A00904FF00009002500BFB9F1EC
:103C4000000F0FD1009A531C114600932068FEF715
:103C50004BFA0190019800B125E0206800F134058D
:103C60004FF40079BAF1020F09D12878697840EA57
:103C7000012000B9761CAD1CA9F1020910E0E8781A
:103C80000006A97840EA0140697840EA01202978D5
:103C9000084320F0704000B9761C2D1DA9F10409DD
:103CA000781E071ECBD100BF20680661BAF1030F52
:103CB00002D1012021684871CBF80060019805B05D
:103CC000BDE8F08F70B50446A1882068FFF74FF972
:103CD000054655B9A07900F0800008B1022504E03E
:103CE000A07900F0020000B90725002D36D1D4E9F3
:103CF000021088422DD9A068E060A07940F0200031
:103D0000A071A06838B921692068FEF7A5FB0546B7
:103D1000002020611DE061692068FEF790FA0646E8
:103D20000025701C00B90125012E00D1022585B99E
:103D30002068C069B0420CD96FF070426169206898
:103D4000FEF7EFFA054625B931462068FEF784FBF9
:103D500005461DB1A07940F08000A071284670BDD5
:103D600071B591B001220AA911A8FEF73FFF0446E0
:103D7000002C55D1CDF840D00AA81199FEF794FE39
:103D800004462CB91098C07A00F0200000B1062437
:103D9000002C45D10F9D0DB9062404E0E87A00F00F
:103DA000010000B10724A97EE87E41EA00212A7DB6
:103DB000687D42EA002041EA004604BBE87A00F050
:103DC0001000E0B1022E01D2022418E01C220AA940
:103DD00003A8FEF755F90596022103A8FEF7D5FBC7
:103DE000044664B903A8FEF7D7FC04461CB1039847
:103DF0008069B04200D10724042C00D100247CB992
:103E00000AA8FEF72AFD044654B926B131460A989D
:103E1000FEF722FB04461CB90A98FEF79EF90446F9
:103E2000204612B070BD2DE9F1478BB0FDF778FB4D
:103E30000746012204A90BA8FEF7D8FE0646002E6D
:103E400073D101A80A9004A80B99FEF72DFE06462F
:103E500006B90826042E05D10A98C07A00F0200081
:103E600000B10626042EEBD100210498FEF728FBB2
:103E70000546002605B90726012D00D10226681C3B
:103E800000B9012626B900210498FEF72DF906464F
:103E9000002E68D129460498FEF7C4F9824604989A
:103EA00000F134044FF4007200212046FEF7F5F8CB
:103EB0000B2220212046FEF7F0F82E202070102043
:103EC000E072A775390AE175390C2176390E6176F1
:103ED000A576290AE176280C2075290E6175202225
:103EE000214604F12000FEF7CBF82E2084F82100B3
:103EF000DDF8188004980078032804D10498806ABB
:103F0000404500D1B04684F83A804FEA182184F841
:103F10003B10C8F30741342001554FEA186184F87B
:103F20003510049890F8029019E03FE00498C0F82A
:103F300030A00AF1010A01200499087100210498B7
:103F4000FEF7D2F8064606B10CE04FF400720021ED
:103F50002046FEF7A2F8A9F1010000F0FF09B9F12F
:103F6000000FE3D100BF1EB904A8FEF73FFC0646D0
:103F700026B129460498FEF76FFA17E0099C102035
:103F8000E072A775390AE175390C2176390E617630
:103F9000A576290AE176280C2075290E6175012085
:103FA000049908710498FEF7D8F8064630460CB01C
:103FB000BDE8F087F7B58AB00F461446012203A981
:103FC0000AA8FEF713FE05460DBBCDF824D003A8C2
:103FD0000A99FEF769FD05462DB90998C07A00F0E7
:103FE000200000B1062595B9089E0EB906250EE001
:103FF00004F0270407EA0400F17AA1430843F072B1
:104000000120039908710398FEF7A7F80546284692
:104010000DB0F0BD73B58AB00D46012203A90AA800
:10402000FEF7E4FD06461EBBCDF824D003A80A998E
:10403000FEF73AFD06462EB90998C07A00F0200036
:1040400000B10626A6B9089C0CB9062610E0A8798E
:10405000A075E8880112E17528792076A8880112F8
:1040600061760120039908710398FEF776F80646F9
:1040700030460CB070BDF3B597B00F46012210A9C1
:1040800017A8FEF7B3FD0546002D14D1109809902E
:10409000CDF858D010A81799FEF706FD05462DB9A2
:1040A0001698C07A00F0200000B10625002D76D1C8
:1040B000159808B9042572E0159800F10B01152236
:1040C00003A8FDF7DDFF1C2210A909A8FDF7D8FF02
:1040D000394609A8FEF7E8FC054605B90825042D70
:1040E0005DD109A8FEF782FB0546002D57D10E9C35
:1040F00013220DF10E0104F10D00FDF7C1FF9DF833
:104100000C0040F02000E0720120109908710B991A
:104110001298884239D0E07A00F01000002834D09C
:10412000A37EE27E43EA022394F814C0627D4CEA47
:10413000022243EA02410998FEF774F806460EB9D6
:10414000022522E031460998FDF7CEFF0546099881
:1041500000F15404CDB960782E2816D10998007862
:10416000032806D109990B98896A884201D1002059
:1041700000E00B980646A676310AE176300C2075F1
:10418000310E617501200999087145B910A8FEF733
:1041900064FB05461DB91098FDF7DFFF054628466C
:1041A00019B0F0BD2DE9FC47074688469146002529
:1041B0003E4615E06B46012201A94846FEF7B6FFD0
:1041C0000098012800D00FE09DF804400D2C00D18C
:1041D00006E006F8014B6D1C0A2C00D104E000BF7C
:1041E000A8F10100A842E5DC00BF0020307015B145
:1041F0003846BDE8FC870020FBE77CB504460E4648
:104200000A2C03D131460D20FFF7F7FF8DF800404F
:10421000012501AB2A4669463046FFF776F801983A
:10422000A84200D17CBD4FF0FF30FBE770B50446DB
:104230000E4600250AE020783146FFF7DEFF401CDD
:1042400010B94FF0FF3070BD641C6D1C2078002841
:10425000F1D12846F7E70FB42DE9F04F87B012A847
:104260000690002082460646EBE0119810F8014BBC
:10427000119004B9E9E0252C08D020461099FFF7E9
:10428000BCFF0646701C00B10126D9E00020804624
:104290000590119810F8014B1190302C05D14FF07A
:1042A0000108119810F8014B11900AE0059800EBF5
:1042B000800004EB400030380590119810F8014B55
:1042C0001190302C01DB392CF0DD6C2C01D04C2C02
:1042D00005D148F00208119810F8014B119004B96B
:1042E000B3E02546612D04DB7A2D02DCA5F1200028
:1042F000C5B24F2D23D006DC422D1DD0432D11D049
:10430000442D26D11EE0532D04D0552D1BD0582D01
:104310001FD11BE0069901C906911099FFF786FF8E
:1043200006468DE0069911F8042BD0B2069110993B
:10433000FFF763FF064683E04FF0020B0FE04FF0FC
:10434000080B0CE000BF4FF00A0B08E04FF0100B19
:1043500005E020461099FFF750FF064670E000BFC9
:1043600008F0020028B1069800680699091D069118
:104370000CE0442D05D1069800680699091D0691A8
:1043800004E0069800680699091D06918146442DAF
:1043900006D109F0004018B1C9F1000948F004083D
:1043A000002700BFB9FBFBF00BFB1090C5B2B9FBB7
:1043B000FBF9092D06DDE81DC5B2782C02D105F107
:1043C0002000C5B205F13000C2B238467F1C01A9F9
:1043D0000A54B9F1000F01D0102FE3D308F0040004
:1043E00020B12D2239467F1C01A8425400260CE042
:1043F00008F0010109B1302100E0202108461099A0
:10440000FFF7FBFE06460AF1010A0598411E0591D9
:10441000B84202D9701C0028EAD100BF791E0F46AD
:1044200001AA505C1099FFF7E8FE06460AF1010A5E
:1044300017B1701C0028F1D1701C00B1002600BF1C
:10444000B244701C00287FF410AF00BF002006901B
:10445000701C28B9304607B0BDE8F00F5DF814FBBA
:104460005046F8E770B504460D46E1B24D48FCF7FA
:1044700067FD00BF80214B48FCF7D0FD0028F9D034
:10448000204670BD10B586B0044601210420FCF71B
:1044900031FA01218803FCF72DFA4FF40070ADF8D2
:1044A000140003208DF8160018208DF8170005A9B8
:1044B0003D48FBF763FF4FF48060ADF81400042023
:1044C0008DF8170005A93848FBF758FF0194002024
:1044D000ADF80800ADF80A00ADF80C00ADF810001A
:1044E0000C20ADF80E0001A92E48FCF730FC01218C
:1044F0002C48FCF7B8FC40212A48FCF79CFD01221F
:1045000040F225512748FCF7BAFC25208DF8000021
:1045100003208DF801008DF8020001208DF80300C2
:104520006846FBF762FE06B010BD10B540F225519B
:104530001C48FCF789FD10B31A48FCF705FDC4B20E
:104540001A48008800F40040C8B91848008800F4F0
:10455000804060B10A2C03D000201449088020E07C
:104560001248008840F400401049088019E00D2CE2
:1045700006D10E48008840F480400C49088010E0C5
:104580000A480088C0F30D0009490C540748008808
:10459000401C0649088008460088C72801DD002025
:1045A000088010BD00380140000801405000002084
:1045B000340900200FB4044910B503AA029800F092
:1045C000D1F810BC5DF814FB500A00202DE9F04131
:1045D0000E460446002020622046E168884730B33A
:1045E000252805D0D4E901219047206A401CF2E734
:1045F000E168204600278847050018D0A5F1410052
:10460000192802D820354FF4006732462946204643
:104610002760FBF7A5FD40B1012804D0F61D26F068
:1046200007060836D8E7361DD6E72846DAE7206AB7
:10463000BDE8F0812DE9F041064600241068752997
:10464000314616A510D0AFF30080002802DA4042B0
:1046500013A507E031688A0701D512A502E04907D2
:1046600004D511A5012401E0AFF3008000210A2246
:1046700006F1240709E0B0FBF2FCB0FBF2F302FB09
:104680001C00303078541846491C0028F3D12346CA
:104690002A463046BDE8F04100F00BB800000000AB
:1046A0002D0000002B000000200000007047704724
:1046B00070472DE9F0470D4699469246044600F1B1
:1046C00024080168880604D5E06921F01001216002
:1046D00000E00120A84201DD471B00E00027A1699E
:1046E0007A1902EB0900081AA0612078C00602D4EA
:1046F0002046AFF30080002608E0D4E901211AF833
:1047000006009047206A401C761C20624E45F4DB70
:104710002078C0060AD52046AFF3008006E0D4E931
:10472000012130209047206A401C2062381EA7F1EA
:104730000107F4DC07E0D4E9012118F805009047EF
:10474000206A401C2062281EA5F10105F3DC2046EA
:10475000AFF300802078000602D50220BDE8F08784
:104760000120FBE7074B70B50D467B4400F011F8C4
:104770000446284600F020F810B14FF0FF3070BD1D
:10478000204670BDF7FCFFFF01694A1C02610878F2
:10479000704700B58FB0CDE9013100210591054981
:1047A0007944CDE9031011466846FFF70FFF0FB0BB
:1047B00000BD0000E5FFFFFF007B00F080007047B8
:1047C00010B54248542100F0E5F94148542100F069
:1047D000E1F94048542100F0DDF93F493B483C4AAB
:1047E0003F4B08603D490A603A491960531C036514
:1047F000481C1065012008653B48344A39A17844BB
:1048000000F01CF920B9384878440A3800F0BBF9A8
:1048100037482F4A35A1784400F010F920B93448C0
:1048200078440A3800F0AFF932482A4A2FA1784478
:1048300000F004F920B92F4878440A3800F0A3F9B1
:1048400040232248DC000021224600F0D4F820B1A9
:1048500025487844543800F096F91D4822464023F4
:10486000002100F0C8F820B121487844543800F005
:104870008AF9184822461023002100F0BCF80028CD
:1048800006D01C487844BDE81040563800F07BB98B
:1048900010BD104870B5006D20F001040B4800F009
:1048A00043F90B4800F040F90A4800F03DF909E0EF
:1048B000206D20F00105204600F036F9204600F07A
:1048C00073F82C46002CF3D170BD0000FC090020C9
:1048D000500A0020A40A00205400002058000020A4
:1048E0005C000020720000008C08000077000000CF
:1048F00078080000640800000EB5CDE9000100F062
:1049000005FB029069460120ABBE0EBD08B56946A5
:1049100000900220ABBE08BD1FB58DE807006946B8
:104920000520ABBE04B010BD1FB58DE80F00694671
:104930000620ABBEF6E708B5694600900920ABBE7D
:1049400008BD1CB5CDE9000169460A20ABBE1CBDFF
:10495000704708B5694600900C20ABBE08BD75468F
:1049600000F040F9AE4605006946534620F00700C6
:10497000854618B020B5FBF721FCBDE820404FF07C
:1049800000064FF000074FF000084FF0000B21F039
:104990000701AC46ACE8C009ACE8C009ACE8C00906
:1049A000ACE8C0098D46704770B50446051F00F09D
:1049B0001FF90068002C14BF446870BD002C18BF9C
:1049C000AC423CBF20466468F8D301680A18AA428A
:1049D00018BF456003D12A68054611440160286864
:1049E0004119A1421CBF6C6070BD6168696021689B
:1049F0000844286070BD70B5C468A50713D065026F
:104A000011D4B2F5807F09D0B2F5007F06D0B2F59F
:104A1000806F08D1012300F1240106E05D1E6FF0D4
:104A20007F46B54201D3012070BD0161C361416081
:104A300024F470611143C160002070BD2DE9F04184
:104A40000C4607461646104600F06EF82078611CAA
:104A500061280AD0722802D077283CD102E00125D3
:104A6000002405E00225042402E0082448F202059F
:104A700011F8010B2B2806D0622809D011F8010C7F
:104A800074280AD00BE045F0030544F00204EFE778
:104A900045F0040544F00104EAE744F01004384608
:104AA0002146FFF729FF411C15D0002131617160BB
:104AB0004FF40071F560F1617061200704D5304654
:104AC0000222002100F00EF9306D40F00100306547
:104AD0003046BDE8F0810020FBE72DE9F0410D46AE
:104AE0000646104C206DC10704D0410804D020F0C8
:104AF0000104F7E722460EE0542000F0C4F8070056
:104B00000ED0206D47F0010108435421206538463E
:104B100000F040F83A4629463046BDE8F0418DE7BE
:104B20000020D6E7FC0900202DE9F04704464FF0AD
:104B300000094FF0FF37C568D4E90486A80707D0FD
:104B4000204600F07FF93046FFF7E0FE002802DA49
:104B50003846BDE8F087280502D54046FFF724FF18
:104B60004C21204600F016F8206D20F00100206551
:104B70004846EEE710B50446AFF300802046BDE896
:104B80001040FBF707BB10B500F0A6F9BDE81040D8
:104B900000F09CB94FF0000200B5134694469646CB
:104BA000203922BFA0E80C50A0E80C50B1F1200140
:104BB000BFF4F7AF090728BFA0E80C5048BF0CC0EE
:104BC0005DF804EB890028BF40F8042B08BF70474C
:104BD00048BF20F8022B11F0804F18BF00F8012BBE
:104BE0007047000000487047F80A00207047000036
:104BF00000487047000B00207047704770477047AF
:104C000038B504460A4600206946AFF30080002804
:104C100008BF38BD02460099204600F0A4F90120E3
:104C200038BD012000F0F3B9F8B5AFF300800546B8
:104C300000200C46102000BF0646A819A0420DD93E
:104C4000324669460020AFF30080070008BF00F03D
:104C5000DEF90098A04218BF0546C419FFF7C8FF47
:104C600005600746F01D20F007004619284600F0B1
:104C700073F9B44208BFF8BDA21B31463868BDE8DD
:104C8000F84000F070B970B50646FFF7B1FF05684F
:104C900006F10B0020F00704B4429CBF002070BD59
:104CA0002B466A68BAB11068A04210D304F108011B
:104CB00088423CBF5068586007D351681019416062
:104CC0001168091B016058601460101D70BD134607
:104CD0005268002AE7D121462846FFF791FF0028B5
:104CE000DED170BD2DE9F041044616460D464769F8
:104CF000007B80072ED03846FFF71DFE50BB3EB329
:104D0000012E02D0022E25D104E0204600F045F904
:104D100005441DE03846FFF71CFEE168002841F01D
:104D20001001E16005DA204600F058F80120BDE8E6
:104D3000F081C9030BD56268E16A914200D811463F
:104D4000A26911442269891A814200DD084605449E
:104D5000002D01DA0220EAE7E16A6068E268814238
:104D600006D29103E06203D522F4003141F0100233
:104D7000A6690027AE4213DCE16A814201D90B46E5
:104D800000E0034603EB060C2369ACEB030CAC45D7
:104D900006DD814201D98C4600E084469C4505D160
:104DA000A760276042F02000A5620DE0AD1BE66918
:104DB000AE1B8142A66000D90846C01A281A20609E
:104DC0005819606022F0200003490840E06000208C
:104DD00084F84870ABE70000BFCFD7FFC16821F46B
:104DE000001141F08001C1600021816001607047C5
:104DF0002DE9F047814614460E464FF0FF38324801
:104E0000D5685769054209D03846A169FFF799FD71
:104E1000002811DB2C48C0430540E5602B46324694
:104E200049463846FFF778FDA16920F00042B21AE2
:104E300011440028A16103D02046FFF7CFFF404670
:104E4000BDE8F08770B504460569C06A61688842AC
:104E500000D80846E16821F42011E160C90312D5A9
:104E6000A84208D02246411B2846FFF7C1FF10B1D7
:104E70004FF0FF3070BD0020E562C4E90150E068EA
:104E800020F48030E060002070BD10B50446C0689A
:104E900020F02000E060A16AA06988420DD0204681
:104EA000FFF7D0FFE06820F4405040F01000E060D1
:104EB000A06AA0612069E062606044F24001E0689D
:104EC0008843E06010BD000010000200002801D0FF
:104ED00000F03CB87047000010B5014602A000F099
:104EE0007DF8012010BD00005349475254524544FB
:104EF0003A2052656469726563743A2063616E2773
:104F000074206F70656E3A200000000010B5431CDD
:104F100002E010F8011B71B18107FAD14FF00132A4
:104F200002C88C1A8C4314EAC211F9D0C01A0A06BE
:104F300003D0C01E10BDC01A10BD0A0401D0801ECF
:104F400010BD0902FCD0401E10BD00000149182010
:104F5000ABBEFEE72600020000210160C0E901109F
:104F6000704710207047034640688C46002818BFE1
:104F700088423CBF03464068F8D31868184488420A
:104F800007D00CF1030020F00700001D411A521A4F
:104F90000146081D0A60FFF707BD10B50146C2684B
:104FA000900703D0900607D5886A0AE000F03EF823
:104FB00001210160881E10BD8B69486818440B6987
:104FC000C01A91F848301BB191F84910401A10BD31
:104FD0001103FCD50028FADD401E10BD70B5054652
:104FE0000C460A2000E06D1C00F018F835B1287856
:104FF0000028F8D102E0641C00F010F814B1207809
:105000000028F8D1BDE870400A2000F007B810B5BC
:1050100000F010F8BDE81040FFF758BF08B569462A
:105020008DF800000320ABBE08BD000000487047AB
:10503000F80A002010B5012805D0002103A0FFF7D1
:10504000CDFF012010BD09A1F8E7000053494752E8
:10505000544D454D3A204F7574206F662068656148
:1050600070206D656D6F7279000000003A20486510
:105070006170206D656D6F727920636F72727570EB
:10508000746564000102030405060708090A3A74FE
:1050900074003A7474003A7474000000BC50000844
:1050A0000000002060000000280100081C510008DA
:1050B00060000020F810000044010008000000001B
:1050C000010203040102030406070809020406089A
:1050D00000000000000000000000000000A24A04E0
:1050E0000000000000000000010203040607080998
:1050F00000000000000000000000000000000000B0
:10510000000000000000000000000000000000009F
:0C51100000000000000000000000000093
:04000005080000ED02
:00000001FF
