:020000040800F2
:1000000008040020010100089D030008690200089F
:100010009903000849010008B90700080000000022
:10002000000000000000000000000000E1030008E4
:100030004D010008000000009F030008F5040008BF
:100040001B0100081B0100081B0100081B01000820
:100050001B0100081B0100081B0100081B01000810
:100060001B0100081B0100081B0100081B01000800
:100070001B0100081B0100081B0100081B010008F0
:100080001B0100081B0100081B0100081B010008E0
:100090001B0100081B0100081B0100081B010008D0
:1000A0001B0100081B0100081B0100081B010008C0
:1000B0001B0100081B0100081B0100081B010008B0
:1000C0001B0100081B0100081B0100081B010008A0
:1000D0001B0100081B0100081B0100081B01000890
:1000E0001B0100081B0100081B010008DFF80CD0F1
:1000F00000F018F80048004729080008080400200C
:100100000648804706480047FEE7FEE7FEE7FEE7B1
:10011000FEE7FEE7FEE7FEE7FEE7FEE7350500083F
:10012000ED000008064C074D06E0E06840F00103D2
:1001300094E8070098471034AC42F6D3FFF7DAFF93
:1001400094080008B408000800BFFEE770472DE9D6
:10015000F04102460025002600200023002400274D
:1001600091F803C00CF00F0591F803C00CF0100CCF
:10017000BCF1000F03D091F802C04CEA050591F8DC
:1001800000C0BCF1000F31D0146800202BE04FF00C
:10019000010C0CFA00F3B1F800C00CEA03069E4211
:1001A00020D183004FF00F0C0CFA03F7BC4305FA83
:1001B00003FC4CEA040491F803C0BCF1280F06D1FB
:1001C0004FF0010C0CFA00FCC2F814C00AE091F8E0
:1001D00003C0BCF1480F05D14FF0010C0CFA00FC34
:1001E000C2F810C0401C0828D1D31460B1F800C078
:1001F000BCF1FF0F34DD546800202EE000F1080C44
:100200004FF0010808FA0CF3B1F800C00CEA03063D
:100210009E4221D183004FF00F0C0CFA03F7BC4330
:1002200005FA03FC4CEA040491F803C0BCF1280F62
:1002300005D100F1080C08FA0CF8C2F8148091F806
:1002400003C0BCF1480F07D100F1080C4FF00108C2
:1002500008FA0CF8C2F81080401C0828CED354606D
:10026000BDE8F0810161704700BFFEE708B50121DC
:10027000102000F0A5F80121042000F0A1F80121D0
:10028000042000F09DF80121042000F099F80121DC
:10029000042000F095F80121042000F091F80121DC
:1002A000042000F08DF80121042000F089F80121DC
:1002B000042000F085F84FF40050ADF80000102045
:1002C0008DF8030003208DF8020069463048FFF7DF
:1002D0003EFF4FF400512E48FFF7C4FF0120ADF858
:1002E000000069462B48FFF732FF01212948FFF73C
:1002F000B9FF0220ADF8000069462648FFF727FF46
:1003000002212448FFF7AEFF0420ADF80000694643
:100310002048FFF71CFF04211E48FFF7A3FF082019
:10032000ADF8000069461B48FFF711FF0821194886
:10033000FFF798FF1020ADF8000069461548FFF759
:1003400006FF10211348FFF78DFF2020ADF80000B5
:1003500069461048FFF7FBFE20210E48FFF782FF99
:100360004020ADF8000069460A48FFF7F0FE402142
:100370000848FFF777FF8020ADF800006946054880
:10038000FFF7E5FE80210348FFF76CFF08BD000082
:10039000001001400008014000BFFEE770477047B1
:1003A00029B1064AD2690243044BDA6104E0034AE8
:1003B000D2698243014BDA617047000000100240AD
:1003C00029B1064A92690243044B9A6104E0034A48
:1003D00092698243014B9A6170470000001002400D
:1003E000704710B500F002F810BD00000CB50020F9
:1003F000019000903348006840F480303149086033
:1004000000BF3048006800F4003000900198401CA4
:100410000190009818B90198B0F5A06FF1D1294862
:10042000006800F4003010B10120009001E00020CD
:1004300000900098012843D12348006840F0100044
:10044000214908600846006820F00300086008465B
:10045000006840F0020008601A4840681949486086
:100460000846406848600846406840F4806048603C
:100470000846406820F47C1048600846406840F414
:10048000E81048600846006840F08070086000BFCF
:100490000C48006800F000700028F9D00948406856
:1004A00020F00300074948600846406840F0020019
:1004B000486000BF0348406800F00C000828F9D1EC
:1004C0000CBD00000010024000200240042808D1AA
:1004D0004FF0E021096941F004014FF0E022116181
:1004E00007E04FF0E021096921F004014FF0E0221C
:1004F000116170477047000010B504466FF00400AA
:10050000FFF7E4FFE11704EB5171C1F3C701074A9C
:1005100011701046007800EB4001C1EBC0104FF69F
:10052000FF7101EAC0000249088010BD00000020F0
:100530000200002010B51348006840F00100114986
:10054000086008464068104908400E49486008465F
:1005500000680E4908400B4908600846006820F40E
:10056000802008600846406820F4FE0048604FF490
:100570001F008860FFF735FF4FF0006004490860F6
:1005800010BD0000001002400000FFF8FFFFF6FE63
:1005900008ED00E030B589B005460C460121042085
:1005A000FFF70EFF01210220FFF7FAFE8020ADF8D1
:1005B000040003208DF8060018208DF8070001A91B
:1005C0001548FFF7C4FDADF81C50ADF818400020E9
:1005D000ADF81E00ADF81A0006A9104800F09AF810
:1005E0006020ADF808000220ADF810000120ADF841
:1005F0000A0002A9094800F02BF80821074800F07A
:1006000079F80121054800F00BF80121034800F0BA
:1006100013F809B030BD000000080140000400409C
:1006200021B1028842F08002028004E002884FF685
:100630007F731A400280704721B1028842F00102A4
:10064000028004E002884FF6FE731A400280704771
:1006500070B5002400220023058C4FF6EF7635405C
:100660000584028C8388048B48F6FF752C404FF676
:10067000FF452C400D884FF6FF7606EA05252C43F2
:100680004FF6DF752A400D8906EA05152A434D8885
:1006900006EA05152A43154DA84202D0144DA8427A
:1006A0001DD14FF67F752A404D894FF6FF7606EA39
:1006B00005152A434FF6BF752A408D8806EA0515B1
:1006C0002A434FF6FF352B404FF2FF752B408D89A3
:1006D00006EA85052B43CD8906EA85052B438380F1
:1006E0000483CD880587028470BD0000002C014082
:1006F000003401400A460021018B4FF2FF7319407C
:100700004FF6FF7303EA0223194301837047018701
:1007100070470000002202881D4B98420ED01D4BEE
:1007200098420BD0B0F1804F08D01B4B984205D0B7
:100730001A4B984202D01A4B984204D14FF68F734D
:100740001A404B881A43174B984207D0164B9842D1
:1007500004D04FF6FF431A40CB881A4302808B889F
:1007600083850B8803850A4B98420BD0094B98422E
:1007700008D00E4B984205D00D4B984202D00D4B3D
:10078000984201D10B7A03860123838270470000CF
:10079000002C0140003401400004004000080040EB
:1007A000000C0040001000400014004000400140D8
:1007B000004401400048014000BFFEE702E008C8D5
:1007C000121F08C1002AFAD170477047002001E0CB
:1007D00001C1121F002AFBD1704700000146114AD7
:1007E00012884A434FF0E0235A6100229A611A4668
:1007F000126942F001021A6100BF4FF0E022106955
:1008000000F001021AB100F48032002AF5D04FF056
:10081000E022126922F001024FF0E0231A61002267
:100820009A6170470200002000250026002448201D
:10083000FFF762FEFFF71AFD47214FF4FA70FFF74A
:10084000A9FE22E036B9601C84B2B4F5967F05D1CA
:10085000012603E0601E84B204B9002621460B483D
:10086000FFF755FF681CC5B20A2095FBF0F100FBAD
:10087000115038B90648006808B9012000E000208E
:10088000034908600A20FFF7A9FFDBE700040040E6
:10089000B4012242B4080008000000200400000057
:1008A000BC070008B8080008040000200404000089
:0808B000CC0700080000000065
:04000005080000ED02
:00000001FF
